{
	"contracts/FundMe.sol": {
		"FundMe": {
			"abi": [
				{
					"inputs": [],
					"stateMutability": "nonpayable",
					"type": "constructor"
				},
				{
					"stateMutability": "payable",
					"type": "fallback"
				},
				{
					"inputs": [
						{
							"internalType": "address",
							"name": "",
							"type": "address"
						}
					],
					"name": "addressToAmount",
					"outputs": [
						{
							"internalType": "uint256",
							"name": "",
							"type": "uint256"
						}
					],
					"stateMutability": "view",
					"type": "function"
				},
				{
					"inputs": [],
					"name": "fund",
					"outputs": [],
					"stateMutability": "payable",
					"type": "function"
				},
				{
					"inputs": [
						{
							"internalType": "uint256",
							"name": "",
							"type": "uint256"
						}
					],
					"name": "funders",
					"outputs": [
						{
							"internalType": "address",
							"name": "",
							"type": "address"
						}
					],
					"stateMutability": "view",
					"type": "function"
				},
				{
					"inputs": [],
					"name": "i_owner",
					"outputs": [
						{
							"internalType": "address",
							"name": "",
							"type": "address"
						}
					],
					"stateMutability": "view",
					"type": "function"
				},
				{
					"inputs": [],
					"name": "withdraw",
					"outputs": [],
					"stateMutability": "nonpayable",
					"type": "function"
				},
				{
					"stateMutability": "payable",
					"type": "receive"
				}
			],
			"devdoc": {
				"kind": "dev",
				"methods": {},
				"version": 1
			},
			"evm": {
				"assembly": "    /* \"contracts/FundMe.sol\":89:1890  contract FundMe {... */\n  mstore(0x40, 0xa0)\n    /* \"contracts/FundMe.sol\":313:363  constructor(){... */\n  callvalue\n  dup1\n  iszero\n  tag_1\n  jumpi\n  0x00\n  dup1\n  revert\ntag_1:\n  pop\n    /* \"contracts/FundMe.sol\":346:356  msg.sender */\n  caller\n    /* \"contracts/FundMe.sol\":336:356  i_owner = msg.sender */\n  0xffffffffffffffffffffffffffffffffffffffff\n  and\n  0x80\n  dup2\n  0xffffffffffffffffffffffffffffffffffffffff\n  and\n  0x60\n  shl\n  dup2\n  mstore\n  pop\n  pop\n    /* \"contracts/FundMe.sol\":89:1890  contract FundMe {... */\n  shr(0x60, mload(0x80))\n  codecopy(0x00, dataOffset(sub_0), dataSize(sub_0))\n  0x00\n  assignImmutable(\"0x4569971f3d79dc8da7f8a6820be6cb8dc4a52bb0df6599b2aae7182111b63cd5\")\n  return(0x00, dataSize(sub_0))\nstop\n\nsub_0: assembly {\n        /* \"contracts/FundMe.sol\":89:1890  contract FundMe {... */\n      mstore(0x40, 0x80)\n      jumpi(tag_1, lt(calldatasize, 0x04))\n      shr(0xe0, calldataload(0x00))\n      dup1\n      0x3c7e7d28\n      eq\n      tag_3\n      jumpi\n      dup1\n      0x3ccfd60b\n      eq\n      tag_4\n      jumpi\n      dup1\n      0xb60d4288\n      eq\n      tag_5\n      jumpi\n      dup1\n      0xdba6335f\n      eq\n      tag_6\n      jumpi\n      dup1\n      0xdc0d3dff\n      eq\n      tag_7\n      jumpi\n      jump(tag_2)\n    tag_1:\n      jumpi(tag_2, calldatasize)\n        /* \"contracts/FundMe.sol\":1723:1729  fund() */\n      tag_10\n        /* \"contracts/FundMe.sol\":1723:1727  fund */\n      tag_11\n        /* \"contracts/FundMe.sol\":1723:1729  fund() */\n      jump\t// in\n    tag_10:\n        /* \"contracts/FundMe.sol\":89:1890  contract FundMe {... */\n      stop\n    tag_2:\n        /* \"contracts/FundMe.sol\":1875:1881  fund() */\n      tag_14\n        /* \"contracts/FundMe.sol\":1875:1879  fund */\n      tag_11\n        /* \"contracts/FundMe.sol\":1875:1881  fund() */\n      jump\t// in\n    tag_14:\n        /* \"contracts/FundMe.sol\":89:1890  contract FundMe {... */\n      stop\n        /* \"contracts/FundMe.sol\":218:268  mapping(address => uint256) public addressToAmount */\n    tag_3:\n      callvalue\n      dup1\n      iszero\n      tag_15\n      jumpi\n      0x00\n      dup1\n      revert\n    tag_15:\n      pop\n      tag_16\n      0x04\n      dup1\n      calldatasize\n      sub\n      dup2\n      add\n      swap1\n      tag_17\n      swap2\n      swap1\n      tag_18\n      jump\t// in\n    tag_17:\n      tag_19\n      jump\t// in\n    tag_16:\n      mload(0x40)\n      tag_20\n      swap2\n      swap1\n      tag_21\n      jump\t// in\n    tag_20:\n      mload(0x40)\n      dup1\n      swap2\n      sub\n      swap1\n      return\n        /* \"contracts/FundMe.sol\":712:1436  function withdraw() public VarifyOwner {... */\n    tag_4:\n      callvalue\n      dup1\n      iszero\n      tag_22\n      jumpi\n      0x00\n      dup1\n      revert\n    tag_22:\n      pop\n      tag_23\n      tag_24\n      jump\t// in\n    tag_23:\n      stop\n        /* \"contracts/FundMe.sol\":369:701  function fund() public payable {... */\n    tag_5:\n      tag_25\n      tag_11\n      jump\t// in\n    tag_25:\n      stop\n        /* \"contracts/FundMe.sol\":274:306  address public immutable i_owner */\n    tag_6:\n      callvalue\n      dup1\n      iszero\n      tag_26\n      jumpi\n      0x00\n      dup1\n      revert\n    tag_26:\n      pop\n      tag_27\n      tag_28\n      jump\t// in\n    tag_27:\n      mload(0x40)\n      tag_29\n      swap2\n      swap1\n      tag_30\n      jump\t// in\n    tag_29:\n      mload(0x40)\n      dup1\n      swap2\n      sub\n      swap1\n      return\n        /* \"contracts/FundMe.sol\":188:212  address[] public funders */\n    tag_7:\n      callvalue\n      dup1\n      iszero\n      tag_31\n      jumpi\n      0x00\n      dup1\n      revert\n    tag_31:\n      pop\n      tag_32\n      0x04\n      dup1\n      calldatasize\n      sub\n      dup2\n      add\n      swap1\n      tag_33\n      swap2\n      swap1\n      tag_34\n      jump\t// in\n    tag_33:\n      tag_35\n      jump\t// in\n    tag_32:\n      mload(0x40)\n      tag_36\n      swap2\n      swap1\n      tag_30\n      jump\t// in\n    tag_36:\n      mload(0x40)\n      dup1\n      swap2\n      sub\n      swap1\n      return\n        /* \"contracts/FundMe.sol\":369:701  function fund() public payable {... */\n    tag_11:\n        /* \"contracts/FundMe.sol\":180:182  50 */\n      0x32\n        /* \"contracts/FundMe.sol\":418:427  msg.value */\n      callvalue\n        /* \"contracts/FundMe.sol\":418:445  msg.value.getConversionRate */\n      linkerSymbol(\"ee5333b9f3bf6448fe7cd0ff78e98acd668e2dee96b5e9a10d2c42e89138df23\")\n      0x6e5b6b28\n      swap1\n      swap2\n        /* \"contracts/FundMe.sol\":418:447  msg.value.getConversionRate() */\n      mload(0x40)\n      dup3\n      0xffffffff\n      and\n      0xe0\n      shl\n      dup2\n      mstore\n      0x04\n      add\n      tag_38\n      swap2\n      swap1\n      tag_39\n      jump\t// in\n    tag_38:\n      0x20\n      mload(0x40)\n      dup1\n      dup4\n      sub\n      dup2\n      dup7\n      dup1\n      extcodesize\n      iszero\n      dup1\n      iszero\n      tag_40\n      jumpi\n      0x00\n      dup1\n      revert\n    tag_40:\n      pop\n      gas\n      delegatecall\n      iszero\n      dup1\n      iszero\n      tag_42\n      jumpi\n      returndatasize\n      0x00\n      dup1\n      returndatacopy\n      revert(0x00, returndatasize)\n    tag_42:\n      pop\n      pop\n      pop\n      pop\n      mload(0x40)\n      returndatasize\n      not(0x1f)\n      0x1f\n      dup3\n      add\n      and\n      dup3\n      add\n      dup1\n      0x40\n      mstore\n      pop\n      dup2\n      add\n      swap1\n      tag_43\n      swap2\n      swap1\n      tag_44\n      jump\t// in\n    tag_43:\n        /* \"contracts/FundMe.sol\":418:462  msg.value.getConversionRate() >= MINIMUM_USD */\n      lt\n      iszero\n        /* \"contracts/FundMe.sol\":410:485  require(msg.value.getConversionRate() >= MINIMUM_USD, \"Didn't enugh money\") */\n      tag_45\n      jumpi\n      mload(0x40)\n      0x08c379a000000000000000000000000000000000000000000000000000000000\n      dup2\n      mstore\n      0x04\n      add\n      tag_46\n      swap1\n      tag_47\n      jump\t// in\n    tag_46:\n      mload(0x40)\n      dup1\n      swap2\n      sub\n      swap1\n      revert\n    tag_45:\n        /* \"contracts/FundMe.sol\":621:628  funders */\n      0x00\n        /* \"contracts/FundMe.sol\":634:644  msg.sender */\n      caller\n        /* \"contracts/FundMe.sol\":621:645  funders.push(msg.sender) */\n      swap1\n      dup1\n      0x01\n      dup2\n      sload\n      add\n      dup1\n      dup3\n      sstore\n      dup1\n      swap2\n      pop\n      pop\n      0x01\n      swap1\n      sub\n      swap1\n      0x00\n      mstore\n      keccak256(0x00, 0x20)\n      add\n      0x00\n      swap1\n      swap2\n      swap1\n      swap2\n      swap1\n      swap2\n      0x0100\n      exp\n      dup2\n      sload\n      dup2\n      0xffffffffffffffffffffffffffffffffffffffff\n      mul\n      not\n      and\n      swap1\n      dup4\n      0xffffffffffffffffffffffffffffffffffffffff\n      and\n      mul\n      or\n      swap1\n      sstore\n      pop\n        /* \"contracts/FundMe.sol\":685:694  msg.value */\n      callvalue\n        /* \"contracts/FundMe.sol\":655:670  addressToAmount */\n      0x01\n        /* \"contracts/FundMe.sol\":655:682  addressToAmount[msg.sender] */\n      0x00\n        /* \"contracts/FundMe.sol\":671:681  msg.sender */\n      caller\n        /* \"contracts/FundMe.sol\":655:682  addressToAmount[msg.sender] */\n      0xffffffffffffffffffffffffffffffffffffffff\n      and\n      0xffffffffffffffffffffffffffffffffffffffff\n      and\n      dup2\n      mstore\n      0x20\n      add\n      swap1\n      dup2\n      mstore\n      0x20\n      add\n      0x00\n      keccak256\n        /* \"contracts/FundMe.sol\":655:694  addressToAmount[msg.sender] = msg.value */\n      dup2\n      swap1\n      sstore\n      pop\n        /* \"contracts/FundMe.sol\":369:701  function fund() public payable {... */\n      jump\t// out\n        /* \"contracts/FundMe.sol\":218:268  mapping(address => uint256) public addressToAmount */\n    tag_19:\n      mstore(0x20, 0x01)\n      dup1\n      0x00\n      mstore\n      keccak256(0x00, 0x40)\n      0x00\n      swap2\n      pop\n      swap1\n      pop\n      sload\n      dup2\n      jump\t// out\n        /* \"contracts/FundMe.sol\":712:1436  function withdraw() public VarifyOwner {... */\n    tag_24:\n        /* \"contracts/FundMe.sol\":1493:1503  msg.sender */\n      caller\n        /* \"contracts/FundMe.sol\":1482:1503  i_owner == msg.sender */\n      0xffffffffffffffffffffffffffffffffffffffff\n      and\n        /* \"contracts/FundMe.sol\":1482:1489  i_owner */\n      immutable(\"0x4569971f3d79dc8da7f8a6820be6cb8dc4a52bb0df6599b2aae7182111b63cd5\")\n        /* \"contracts/FundMe.sol\":1482:1503  i_owner == msg.sender */\n      0xffffffffffffffffffffffffffffffffffffffff\n      and\n      eq\n        /* \"contracts/FundMe.sol\":1474:1535  require(i_owner == msg.sender, \"You don't have permissions.\") */\n      tag_50\n      jumpi\n      mload(0x40)\n      0x08c379a000000000000000000000000000000000000000000000000000000000\n      dup2\n      mstore\n      0x04\n      add\n      tag_51\n      swap1\n      tag_52\n      jump\t// in\n    tag_51:\n      mload(0x40)\n      dup1\n      swap2\n      sub\n      swap1\n      revert\n    tag_50:\n        /* \"contracts/FundMe.sol\":765:778  uint256 index */\n      0x00\n        /* \"contracts/FundMe.sol\":761:875  for(uint256 index = 0; index< funders.length; index++){... */\n    tag_54:\n        /* \"contracts/FundMe.sol\":791:798  funders */\n      0x00\n        /* \"contracts/FundMe.sol\":791:805  funders.length */\n      dup1\n      sload\n      swap1\n      pop\n        /* \"contracts/FundMe.sol\":784:789  index */\n      dup2\n        /* \"contracts/FundMe.sol\":784:805  index< funders.length */\n      lt\n        /* \"contracts/FundMe.sol\":761:875  for(uint256 index = 0; index< funders.length; index++){... */\n      iszero\n      tag_55\n      jumpi\n        /* \"contracts/FundMe.sol\":863:864  0 */\n      0x00\n        /* \"contracts/FundMe.sol\":829:844  addressToAmount */\n      0x01\n        /* \"contracts/FundMe.sol\":829:860  addressToAmount[funders[index]] */\n      0x00\n        /* \"contracts/FundMe.sol\":845:852  funders */\n      dup1\n        /* \"contracts/FundMe.sol\":853:858  index */\n      dup5\n        /* \"contracts/FundMe.sol\":845:859  funders[index] */\n      dup2\n      sload\n      dup2\n      lt\n      tag_57\n      jumpi\n      tag_58\n      tag_59\n      jump\t// in\n    tag_58:\n    tag_57:\n      swap1\n      0x00\n      mstore\n      keccak256(0x00, 0x20)\n      add\n      0x00\n      swap1\n      sload\n      swap1\n      0x0100\n      exp\n      swap1\n      div\n      0xffffffffffffffffffffffffffffffffffffffff\n      and\n        /* \"contracts/FundMe.sol\":829:860  addressToAmount[funders[index]] */\n      0xffffffffffffffffffffffffffffffffffffffff\n      and\n      0xffffffffffffffffffffffffffffffffffffffff\n      and\n      dup2\n      mstore\n      0x20\n      add\n      swap1\n      dup2\n      mstore\n      0x20\n      add\n      0x00\n      keccak256\n        /* \"contracts/FundMe.sol\":829:864  addressToAmount[funders[index]] = 0 */\n      dup2\n      swap1\n      sstore\n      pop\n        /* \"contracts/FundMe.sol\":807:814  index++ */\n      dup1\n      dup1\n      tag_61\n      swap1\n      tag_62\n      jump\t// in\n    tag_61:\n      swap2\n      pop\n      pop\n        /* \"contracts/FundMe.sol\":761:875  for(uint256 index = 0; index< funders.length; index++){... */\n      jump(tag_54)\n    tag_55:\n      pop\n        /* \"contracts/FundMe.sol\":909:910  0 */\n      0x00\n        /* \"contracts/FundMe.sol\":895:911  new address[](0) */\n      0xffffffffffffffff\n      dup2\n      gt\n      iszero\n      tag_63\n      jumpi\n      tag_64\n      tag_65\n      jump\t// in\n    tag_64:\n    tag_63:\n      mload(0x40)\n      swap1\n      dup1\n      dup3\n      mstore\n      dup1\n      0x20\n      mul\n      0x20\n      add\n      dup3\n      add\n      0x40\n      mstore\n      dup1\n      iszero\n      tag_66\n      jumpi\n      dup2\n      0x20\n      add\n      0x20\n      dup3\n      mul\n      dup1\n      calldatasize\n      dup4\n      calldatacopy\n      dup1\n      dup3\n      add\n      swap2\n      pop\n      pop\n      swap1\n      pop\n    tag_66:\n      pop\n        /* \"contracts/FundMe.sol\":885:892  funders */\n      0x00\n        /* \"contracts/FundMe.sol\":885:911  funders = new address[](0) */\n      swap1\n      dup1\n      mload\n      swap1\n      0x20\n      add\n      swap1\n      tag_67\n      swap3\n      swap2\n      swap1\n      tag_68\n      jump\t// in\n    tag_67:\n      pop\n        /* \"contracts/FundMe.sol\":1307:1323  bool callSuccess */\n      0x00\n        /* \"contracts/FundMe.sol\":1335:1345  msg.sender */\n      caller\n        /* \"contracts/FundMe.sol\":1327:1351  payable(msg.sender).call */\n      0xffffffffffffffffffffffffffffffffffffffff\n      and\n        /* \"contracts/FundMe.sol\":1359:1380  address(this).balance */\n      selfbalance\n        /* \"contracts/FundMe.sol\":1327:1385  payable(msg.sender).call{value: address(this).balance}(\"\") */\n      mload(0x40)\n      tag_69\n      swap1\n      tag_70\n      jump\t// in\n    tag_69:\n      0x00\n      mload(0x40)\n      dup1\n      dup4\n      sub\n      dup2\n      dup6\n      dup8\n      gas\n      call\n      swap3\n      pop\n      pop\n      pop\n      returndatasize\n      dup1\n      0x00\n      dup2\n      eq\n      tag_73\n      jumpi\n      mload(0x40)\n      swap2\n      pop\n      and(add(returndatasize, 0x3f), not(0x1f))\n      dup3\n      add\n      0x40\n      mstore\n      returndatasize\n      dup3\n      mstore\n      returndatasize\n      0x00\n      0x20\n      dup5\n      add\n      returndatacopy\n      jump(tag_72)\n    tag_73:\n      0x60\n      swap2\n      pop\n    tag_72:\n      pop\n        /* \"contracts/FundMe.sol\":1306:1385  (bool callSuccess,)= payable(msg.sender).call{value: address(this).balance}(\"\") */\n      pop\n      swap1\n      pop\n        /* \"contracts/FundMe.sol\":1403:1414  callSuccess */\n      dup1\n        /* \"contracts/FundMe.sol\":1395:1429  require(callSuccess, \"Call Faild\") */\n      tag_74\n      jumpi\n      mload(0x40)\n      0x08c379a000000000000000000000000000000000000000000000000000000000\n      dup2\n      mstore\n      0x04\n      add\n      tag_75\n      swap1\n      tag_76\n      jump\t// in\n    tag_75:\n      mload(0x40)\n      dup1\n      swap2\n      sub\n      swap1\n      revert\n    tag_74:\n        /* \"contracts/FundMe.sol\":751:1436  {... */\n      pop\n        /* \"contracts/FundMe.sol\":712:1436  function withdraw() public VarifyOwner {... */\n      jump\t// out\n        /* \"contracts/FundMe.sol\":274:306  address public immutable i_owner */\n    tag_28:\n      immutable(\"0x4569971f3d79dc8da7f8a6820be6cb8dc4a52bb0df6599b2aae7182111b63cd5\")\n      dup2\n      jump\t// out\n        /* \"contracts/FundMe.sol\":188:212  address[] public funders */\n    tag_35:\n      0x00\n      dup2\n      dup2\n      sload\n      dup2\n      lt\n      tag_77\n      jumpi\n      0x00\n      dup1\n      revert\n    tag_77:\n      swap1\n      0x00\n      mstore\n      keccak256(0x00, 0x20)\n      add\n      0x00\n      swap2\n      pop\n      sload\n      swap1\n      0x0100\n      exp\n      swap1\n      div\n      0xffffffffffffffffffffffffffffffffffffffff\n      and\n      dup2\n      jump\t// out\n    tag_68:\n      dup3\n      dup1\n      sload\n      dup3\n      dup3\n      sstore\n      swap1\n      0x00\n      mstore\n      keccak256(0x00, 0x20)\n      swap1\n      dup2\n      add\n      swap3\n      dup3\n      iszero\n      tag_79\n      jumpi\n      swap2\n      0x20\n      mul\n      dup3\n      add\n    tag_80:\n      dup3\n      dup2\n      gt\n      iszero\n      tag_81\n      jumpi\n      dup3\n      mload\n      dup3\n      exp(0x0100, 0x00)\n      dup2\n      sload\n      dup2\n      0xffffffffffffffffffffffffffffffffffffffff\n      mul\n      not\n      and\n      swap1\n      dup4\n      0xffffffffffffffffffffffffffffffffffffffff\n      and\n      mul\n      or\n      swap1\n      sstore\n      pop\n      swap2\n      0x20\n      add\n      swap2\n      swap1\n      0x01\n      add\n      swap1\n      jump(tag_80)\n    tag_81:\n    tag_79:\n      pop\n      swap1\n      pop\n      tag_82\n      swap2\n      swap1\n      tag_83\n      jump\t// in\n    tag_82:\n      pop\n      swap1\n      jump\t// out\n    tag_83:\n    tag_84:\n      dup1\n      dup3\n      gt\n      iszero\n      tag_85\n      jumpi\n      0x00\n      dup2\n      0x00\n      swap1\n      sstore\n      pop\n      0x01\n      add\n      jump(tag_84)\n    tag_85:\n      pop\n      swap1\n      jump\t// out\n        /* \"#utility.yul\":88:205   */\n    tag_87:\n        /* \"#utility.yul\":197:198   */\n      0x00\n        /* \"#utility.yul\":194:195   */\n      dup1\n        /* \"#utility.yul\":187:199   */\n      revert\n        /* \"#utility.yul\":334:460   */\n    tag_89:\n        /* \"#utility.yul\":371:378   */\n      0x00\n        /* \"#utility.yul\":411:453   */\n      0xffffffffffffffffffffffffffffffffffffffff\n        /* \"#utility.yul\":404:409   */\n      dup3\n        /* \"#utility.yul\":400:454   */\n      and\n        /* \"#utility.yul\":389:454   */\n      swap1\n      pop\n        /* \"#utility.yul\":334:460   */\n      swap2\n      swap1\n      pop\n      jump\t// out\n        /* \"#utility.yul\":466:562   */\n    tag_90:\n        /* \"#utility.yul\":503:510   */\n      0x00\n        /* \"#utility.yul\":532:556   */\n      tag_117\n        /* \"#utility.yul\":550:555   */\n      dup3\n        /* \"#utility.yul\":532:556   */\n      tag_89\n      jump\t// in\n    tag_117:\n        /* \"#utility.yul\":521:556   */\n      swap1\n      pop\n        /* \"#utility.yul\":466:562   */\n      swap2\n      swap1\n      pop\n      jump\t// out\n        /* \"#utility.yul\":568:690   */\n    tag_91:\n        /* \"#utility.yul\":641:665   */\n      tag_119\n        /* \"#utility.yul\":659:664   */\n      dup2\n        /* \"#utility.yul\":641:665   */\n      tag_90\n      jump\t// in\n    tag_119:\n        /* \"#utility.yul\":634:639   */\n      dup2\n        /* \"#utility.yul\":631:666   */\n      eq\n        /* \"#utility.yul\":621:684   */\n      tag_120\n      jumpi\n        /* \"#utility.yul\":680:681   */\n      0x00\n        /* \"#utility.yul\":677:678   */\n      dup1\n        /* \"#utility.yul\":670:682   */\n      revert\n        /* \"#utility.yul\":621:684   */\n    tag_120:\n        /* \"#utility.yul\":568:690   */\n      pop\n      jump\t// out\n        /* \"#utility.yul\":696:835   */\n    tag_92:\n        /* \"#utility.yul\":742:747   */\n      0x00\n        /* \"#utility.yul\":780:786   */\n      dup2\n        /* \"#utility.yul\":767:787   */\n      calldataload\n        /* \"#utility.yul\":758:787   */\n      swap1\n      pop\n        /* \"#utility.yul\":796:829   */\n      tag_122\n        /* \"#utility.yul\":823:828   */\n      dup2\n        /* \"#utility.yul\":796:829   */\n      tag_91\n      jump\t// in\n    tag_122:\n        /* \"#utility.yul\":696:835   */\n      swap3\n      swap2\n      pop\n      pop\n      jump\t// out\n        /* \"#utility.yul\":841:1170   */\n    tag_18:\n        /* \"#utility.yul\":900:906   */\n      0x00\n        /* \"#utility.yul\":949:951   */\n      0x20\n        /* \"#utility.yul\":937:946   */\n      dup3\n        /* \"#utility.yul\":928:935   */\n      dup5\n        /* \"#utility.yul\":924:947   */\n      sub\n        /* \"#utility.yul\":920:952   */\n      slt\n        /* \"#utility.yul\":917:1036   */\n      iszero\n      tag_124\n      jumpi\n        /* \"#utility.yul\":955:1034   */\n      tag_125\n      tag_87\n      jump\t// in\n    tag_125:\n        /* \"#utility.yul\":917:1036   */\n    tag_124:\n        /* \"#utility.yul\":1075:1076   */\n      0x00\n        /* \"#utility.yul\":1100:1153   */\n      tag_126\n        /* \"#utility.yul\":1145:1152   */\n      dup5\n        /* \"#utility.yul\":1136:1142   */\n      dup3\n        /* \"#utility.yul\":1125:1134   */\n      dup6\n        /* \"#utility.yul\":1121:1143   */\n      add\n        /* \"#utility.yul\":1100:1153   */\n      tag_92\n      jump\t// in\n    tag_126:\n        /* \"#utility.yul\":1090:1153   */\n      swap2\n      pop\n        /* \"#utility.yul\":1046:1163   */\n      pop\n        /* \"#utility.yul\":841:1170   */\n      swap3\n      swap2\n      pop\n      pop\n      jump\t// out\n        /* \"#utility.yul\":1176:1253   */\n    tag_93:\n        /* \"#utility.yul\":1213:1220   */\n      0x00\n        /* \"#utility.yul\":1242:1247   */\n      dup2\n        /* \"#utility.yul\":1231:1247   */\n      swap1\n      pop\n        /* \"#utility.yul\":1176:1253   */\n      swap2\n      swap1\n      pop\n      jump\t// out\n        /* \"#utility.yul\":1259:1377   */\n    tag_94:\n        /* \"#utility.yul\":1346:1370   */\n      tag_129\n        /* \"#utility.yul\":1364:1369   */\n      dup2\n        /* \"#utility.yul\":1346:1370   */\n      tag_93\n      jump\t// in\n    tag_129:\n        /* \"#utility.yul\":1341:1344   */\n      dup3\n        /* \"#utility.yul\":1334:1371   */\n      mstore\n        /* \"#utility.yul\":1259:1377   */\n      pop\n      pop\n      jump\t// out\n        /* \"#utility.yul\":1383:1605   */\n    tag_21:\n        /* \"#utility.yul\":1476:1480   */\n      0x00\n        /* \"#utility.yul\":1514:1516   */\n      0x20\n        /* \"#utility.yul\":1503:1512   */\n      dup3\n        /* \"#utility.yul\":1499:1517   */\n      add\n        /* \"#utility.yul\":1491:1517   */\n      swap1\n      pop\n        /* \"#utility.yul\":1527:1598   */\n      tag_131\n        /* \"#utility.yul\":1595:1596   */\n      0x00\n        /* \"#utility.yul\":1584:1593   */\n      dup4\n        /* \"#utility.yul\":1580:1597   */\n      add\n        /* \"#utility.yul\":1571:1577   */\n      dup5\n        /* \"#utility.yul\":1527:1598   */\n      tag_94\n      jump\t// in\n    tag_131:\n        /* \"#utility.yul\":1383:1605   */\n      swap3\n      swap2\n      pop\n      pop\n      jump\t// out\n        /* \"#utility.yul\":1611:1729   */\n    tag_95:\n        /* \"#utility.yul\":1698:1722   */\n      tag_133\n        /* \"#utility.yul\":1716:1721   */\n      dup2\n        /* \"#utility.yul\":1698:1722   */\n      tag_90\n      jump\t// in\n    tag_133:\n        /* \"#utility.yul\":1693:1696   */\n      dup3\n        /* \"#utility.yul\":1686:1723   */\n      mstore\n        /* \"#utility.yul\":1611:1729   */\n      pop\n      pop\n      jump\t// out\n        /* \"#utility.yul\":1735:1957   */\n    tag_30:\n        /* \"#utility.yul\":1828:1832   */\n      0x00\n        /* \"#utility.yul\":1866:1868   */\n      0x20\n        /* \"#utility.yul\":1855:1864   */\n      dup3\n        /* \"#utility.yul\":1851:1869   */\n      add\n        /* \"#utility.yul\":1843:1869   */\n      swap1\n      pop\n        /* \"#utility.yul\":1879:1950   */\n      tag_135\n        /* \"#utility.yul\":1947:1948   */\n      0x00\n        /* \"#utility.yul\":1936:1945   */\n      dup4\n        /* \"#utility.yul\":1932:1949   */\n      add\n        /* \"#utility.yul\":1923:1929   */\n      dup5\n        /* \"#utility.yul\":1879:1950   */\n      tag_95\n      jump\t// in\n    tag_135:\n        /* \"#utility.yul\":1735:1957   */\n      swap3\n      swap2\n      pop\n      pop\n      jump\t// out\n        /* \"#utility.yul\":1963:2085   */\n    tag_96:\n        /* \"#utility.yul\":2036:2060   */\n      tag_137\n        /* \"#utility.yul\":2054:2059   */\n      dup2\n        /* \"#utility.yul\":2036:2060   */\n      tag_93\n      jump\t// in\n    tag_137:\n        /* \"#utility.yul\":2029:2034   */\n      dup2\n        /* \"#utility.yul\":2026:2061   */\n      eq\n        /* \"#utility.yul\":2016:2079   */\n      tag_138\n      jumpi\n        /* \"#utility.yul\":2075:2076   */\n      0x00\n        /* \"#utility.yul\":2072:2073   */\n      dup1\n        /* \"#utility.yul\":2065:2077   */\n      revert\n        /* \"#utility.yul\":2016:2079   */\n    tag_138:\n        /* \"#utility.yul\":1963:2085   */\n      pop\n      jump\t// out\n        /* \"#utility.yul\":2091:2230   */\n    tag_97:\n        /* \"#utility.yul\":2137:2142   */\n      0x00\n        /* \"#utility.yul\":2175:2181   */\n      dup2\n        /* \"#utility.yul\":2162:2182   */\n      calldataload\n        /* \"#utility.yul\":2153:2182   */\n      swap1\n      pop\n        /* \"#utility.yul\":2191:2224   */\n      tag_140\n        /* \"#utility.yul\":2218:2223   */\n      dup2\n        /* \"#utility.yul\":2191:2224   */\n      tag_96\n      jump\t// in\n    tag_140:\n        /* \"#utility.yul\":2091:2230   */\n      swap3\n      swap2\n      pop\n      pop\n      jump\t// out\n        /* \"#utility.yul\":2236:2565   */\n    tag_34:\n        /* \"#utility.yul\":2295:2301   */\n      0x00\n        /* \"#utility.yul\":2344:2346   */\n      0x20\n        /* \"#utility.yul\":2332:2341   */\n      dup3\n        /* \"#utility.yul\":2323:2330   */\n      dup5\n        /* \"#utility.yul\":2319:2342   */\n      sub\n        /* \"#utility.yul\":2315:2347   */\n      slt\n        /* \"#utility.yul\":2312:2431   */\n      iszero\n      tag_142\n      jumpi\n        /* \"#utility.yul\":2350:2429   */\n      tag_143\n      tag_87\n      jump\t// in\n    tag_143:\n        /* \"#utility.yul\":2312:2431   */\n    tag_142:\n        /* \"#utility.yul\":2470:2471   */\n      0x00\n        /* \"#utility.yul\":2495:2548   */\n      tag_144\n        /* \"#utility.yul\":2540:2547   */\n      dup5\n        /* \"#utility.yul\":2531:2537   */\n      dup3\n        /* \"#utility.yul\":2520:2529   */\n      dup6\n        /* \"#utility.yul\":2516:2538   */\n      add\n        /* \"#utility.yul\":2495:2548   */\n      tag_97\n      jump\t// in\n    tag_144:\n        /* \"#utility.yul\":2485:2548   */\n      swap2\n      pop\n        /* \"#utility.yul\":2441:2558   */\n      pop\n        /* \"#utility.yul\":2236:2565   */\n      swap3\n      swap2\n      pop\n      pop\n      jump\t// out\n        /* \"#utility.yul\":2571:2697   */\n    tag_98:\n        /* \"#utility.yul\":2666:2690   */\n      tag_146\n        /* \"#utility.yul\":2684:2689   */\n      dup2\n        /* \"#utility.yul\":2666:2690   */\n      tag_93\n      jump\t// in\n    tag_146:\n        /* \"#utility.yul\":2661:2664   */\n      dup3\n        /* \"#utility.yul\":2654:2691   */\n      mstore\n        /* \"#utility.yul\":2571:2697   */\n      pop\n      pop\n      jump\t// out\n        /* \"#utility.yul\":2703:2941   */\n    tag_39:\n        /* \"#utility.yul\":2804:2808   */\n      0x00\n        /* \"#utility.yul\":2842:2844   */\n      0x20\n        /* \"#utility.yul\":2831:2840   */\n      dup3\n        /* \"#utility.yul\":2827:2845   */\n      add\n        /* \"#utility.yul\":2819:2845   */\n      swap1\n      pop\n        /* \"#utility.yul\":2855:2934   */\n      tag_148\n        /* \"#utility.yul\":2931:2932   */\n      0x00\n        /* \"#utility.yul\":2920:2929   */\n      dup4\n        /* \"#utility.yul\":2916:2933   */\n      add\n        /* \"#utility.yul\":2907:2913   */\n      dup5\n        /* \"#utility.yul\":2855:2934   */\n      tag_98\n      jump\t// in\n    tag_148:\n        /* \"#utility.yul\":2703:2941   */\n      swap3\n      swap2\n      pop\n      pop\n      jump\t// out\n        /* \"#utility.yul\":2947:3090   */\n    tag_99:\n        /* \"#utility.yul\":3004:3009   */\n      0x00\n        /* \"#utility.yul\":3035:3041   */\n      dup2\n        /* \"#utility.yul\":3029:3042   */\n      mload\n        /* \"#utility.yul\":3020:3042   */\n      swap1\n      pop\n        /* \"#utility.yul\":3051:3084   */\n      tag_150\n        /* \"#utility.yul\":3078:3083   */\n      dup2\n        /* \"#utility.yul\":3051:3084   */\n      tag_96\n      jump\t// in\n    tag_150:\n        /* \"#utility.yul\":2947:3090   */\n      swap3\n      swap2\n      pop\n      pop\n      jump\t// out\n        /* \"#utility.yul\":3096:3447   */\n    tag_44:\n        /* \"#utility.yul\":3166:3172   */\n      0x00\n        /* \"#utility.yul\":3215:3217   */\n      0x20\n        /* \"#utility.yul\":3203:3212   */\n      dup3\n        /* \"#utility.yul\":3194:3201   */\n      dup5\n        /* \"#utility.yul\":3190:3213   */\n      sub\n        /* \"#utility.yul\":3186:3218   */\n      slt\n        /* \"#utility.yul\":3183:3302   */\n      iszero\n      tag_152\n      jumpi\n        /* \"#utility.yul\":3221:3300   */\n      tag_153\n      tag_87\n      jump\t// in\n    tag_153:\n        /* \"#utility.yul\":3183:3302   */\n    tag_152:\n        /* \"#utility.yul\":3341:3342   */\n      0x00\n        /* \"#utility.yul\":3366:3430   */\n      tag_154\n        /* \"#utility.yul\":3422:3429   */\n      dup5\n        /* \"#utility.yul\":3413:3419   */\n      dup3\n        /* \"#utility.yul\":3402:3411   */\n      dup6\n        /* \"#utility.yul\":3398:3420   */\n      add\n        /* \"#utility.yul\":3366:3430   */\n      tag_99\n      jump\t// in\n    tag_154:\n        /* \"#utility.yul\":3356:3430   */\n      swap2\n      pop\n        /* \"#utility.yul\":3312:3440   */\n      pop\n        /* \"#utility.yul\":3096:3447   */\n      swap3\n      swap2\n      pop\n      pop\n      jump\t// out\n        /* \"#utility.yul\":3453:3622   */\n    tag_100:\n        /* \"#utility.yul\":3537:3548   */\n      0x00\n        /* \"#utility.yul\":3571:3577   */\n      dup3\n        /* \"#utility.yul\":3566:3569   */\n      dup3\n        /* \"#utility.yul\":3559:3578   */\n      mstore\n        /* \"#utility.yul\":3611:3615   */\n      0x20\n        /* \"#utility.yul\":3606:3609   */\n      dup3\n        /* \"#utility.yul\":3602:3616   */\n      add\n        /* \"#utility.yul\":3587:3616   */\n      swap1\n      pop\n        /* \"#utility.yul\":3453:3622   */\n      swap3\n      swap2\n      pop\n      pop\n      jump\t// out\n        /* \"#utility.yul\":3628:3796   */\n    tag_101:\n        /* \"#utility.yul\":3768:3788   */\n      0x4469646e277420656e756768206d6f6e65790000000000000000000000000000\n        /* \"#utility.yul\":3764:3765   */\n      0x00\n        /* \"#utility.yul\":3756:3762   */\n      dup3\n        /* \"#utility.yul\":3752:3766   */\n      add\n        /* \"#utility.yul\":3745:3789   */\n      mstore\n        /* \"#utility.yul\":3628:3796   */\n      pop\n      jump\t// out\n        /* \"#utility.yul\":3802:4168   */\n    tag_102:\n        /* \"#utility.yul\":3944:3947   */\n      0x00\n        /* \"#utility.yul\":3965:4032   */\n      tag_158\n        /* \"#utility.yul\":4029:4031   */\n      0x12\n        /* \"#utility.yul\":4024:4027   */\n      dup4\n        /* \"#utility.yul\":3965:4032   */\n      tag_100\n      jump\t// in\n    tag_158:\n        /* \"#utility.yul\":3958:4032   */\n      swap2\n      pop\n        /* \"#utility.yul\":4041:4134   */\n      tag_159\n        /* \"#utility.yul\":4130:4133   */\n      dup3\n        /* \"#utility.yul\":4041:4134   */\n      tag_101\n      jump\t// in\n    tag_159:\n        /* \"#utility.yul\":4159:4161   */\n      0x20\n        /* \"#utility.yul\":4154:4157   */\n      dup3\n        /* \"#utility.yul\":4150:4162   */\n      add\n        /* \"#utility.yul\":4143:4162   */\n      swap1\n      pop\n        /* \"#utility.yul\":3802:4168   */\n      swap2\n      swap1\n      pop\n      jump\t// out\n        /* \"#utility.yul\":4174:4593   */\n    tag_47:\n        /* \"#utility.yul\":4340:4344   */\n      0x00\n        /* \"#utility.yul\":4378:4380   */\n      0x20\n        /* \"#utility.yul\":4367:4376   */\n      dup3\n        /* \"#utility.yul\":4363:4381   */\n      add\n        /* \"#utility.yul\":4355:4381   */\n      swap1\n      pop\n        /* \"#utility.yul\":4427:4436   */\n      dup2\n        /* \"#utility.yul\":4421:4425   */\n      dup2\n        /* \"#utility.yul\":4417:4437   */\n      sub\n        /* \"#utility.yul\":4413:4414   */\n      0x00\n        /* \"#utility.yul\":4402:4411   */\n      dup4\n        /* \"#utility.yul\":4398:4415   */\n      add\n        /* \"#utility.yul\":4391:4438   */\n      mstore\n        /* \"#utility.yul\":4455:4586   */\n      tag_161\n        /* \"#utility.yul\":4581:4585   */\n      dup2\n        /* \"#utility.yul\":4455:4586   */\n      tag_102\n      jump\t// in\n    tag_161:\n        /* \"#utility.yul\":4447:4586   */\n      swap1\n      pop\n        /* \"#utility.yul\":4174:4593   */\n      swap2\n      swap1\n      pop\n      jump\t// out\n        /* \"#utility.yul\":4599:4776   */\n    tag_103:\n        /* \"#utility.yul\":4739:4768   */\n      0x596f7520646f6e27742068617665207065726d697373696f6e732e0000000000\n        /* \"#utility.yul\":4735:4736   */\n      0x00\n        /* \"#utility.yul\":4727:4733   */\n      dup3\n        /* \"#utility.yul\":4723:4737   */\n      add\n        /* \"#utility.yul\":4716:4769   */\n      mstore\n        /* \"#utility.yul\":4599:4776   */\n      pop\n      jump\t// out\n        /* \"#utility.yul\":4782:5148   */\n    tag_104:\n        /* \"#utility.yul\":4924:4927   */\n      0x00\n        /* \"#utility.yul\":4945:5012   */\n      tag_164\n        /* \"#utility.yul\":5009:5011   */\n      0x1b\n        /* \"#utility.yul\":5004:5007   */\n      dup4\n        /* \"#utility.yul\":4945:5012   */\n      tag_100\n      jump\t// in\n    tag_164:\n        /* \"#utility.yul\":4938:5012   */\n      swap2\n      pop\n        /* \"#utility.yul\":5021:5114   */\n      tag_165\n        /* \"#utility.yul\":5110:5113   */\n      dup3\n        /* \"#utility.yul\":5021:5114   */\n      tag_103\n      jump\t// in\n    tag_165:\n        /* \"#utility.yul\":5139:5141   */\n      0x20\n        /* \"#utility.yul\":5134:5137   */\n      dup3\n        /* \"#utility.yul\":5130:5142   */\n      add\n        /* \"#utility.yul\":5123:5142   */\n      swap1\n      pop\n        /* \"#utility.yul\":4782:5148   */\n      swap2\n      swap1\n      pop\n      jump\t// out\n        /* \"#utility.yul\":5154:5573   */\n    tag_52:\n        /* \"#utility.yul\":5320:5324   */\n      0x00\n        /* \"#utility.yul\":5358:5360   */\n      0x20\n        /* \"#utility.yul\":5347:5356   */\n      dup3\n        /* \"#utility.yul\":5343:5361   */\n      add\n        /* \"#utility.yul\":5335:5361   */\n      swap1\n      pop\n        /* \"#utility.yul\":5407:5416   */\n      dup2\n        /* \"#utility.yul\":5401:5405   */\n      dup2\n        /* \"#utility.yul\":5397:5417   */\n      sub\n        /* \"#utility.yul\":5393:5394   */\n      0x00\n        /* \"#utility.yul\":5382:5391   */\n      dup4\n        /* \"#utility.yul\":5378:5395   */\n      add\n        /* \"#utility.yul\":5371:5418   */\n      mstore\n        /* \"#utility.yul\":5435:5566   */\n      tag_167\n        /* \"#utility.yul\":5561:5565   */\n      dup2\n        /* \"#utility.yul\":5435:5566   */\n      tag_104\n      jump\t// in\n    tag_167:\n        /* \"#utility.yul\":5427:5566   */\n      swap1\n      pop\n        /* \"#utility.yul\":5154:5573   */\n      swap2\n      swap1\n      pop\n      jump\t// out\n        /* \"#utility.yul\":5579:5759   */\n    tag_59:\n        /* \"#utility.yul\":5627:5704   */\n      0x4e487b7100000000000000000000000000000000000000000000000000000000\n        /* \"#utility.yul\":5624:5625   */\n      0x00\n        /* \"#utility.yul\":5617:5705   */\n      mstore\n        /* \"#utility.yul\":5724:5728   */\n      0x32\n        /* \"#utility.yul\":5721:5722   */\n      0x04\n        /* \"#utility.yul\":5714:5729   */\n      mstore\n        /* \"#utility.yul\":5748:5752   */\n      0x24\n        /* \"#utility.yul\":5745:5746   */\n      0x00\n        /* \"#utility.yul\":5738:5753   */\n      revert\n        /* \"#utility.yul\":5765:5945   */\n    tag_105:\n        /* \"#utility.yul\":5813:5890   */\n      0x4e487b7100000000000000000000000000000000000000000000000000000000\n        /* \"#utility.yul\":5810:5811   */\n      0x00\n        /* \"#utility.yul\":5803:5891   */\n      mstore\n        /* \"#utility.yul\":5910:5914   */\n      0x11\n        /* \"#utility.yul\":5907:5908   */\n      0x04\n        /* \"#utility.yul\":5900:5915   */\n      mstore\n        /* \"#utility.yul\":5934:5938   */\n      0x24\n        /* \"#utility.yul\":5931:5932   */\n      0x00\n        /* \"#utility.yul\":5924:5939   */\n      revert\n        /* \"#utility.yul\":5951:6184   */\n    tag_62:\n        /* \"#utility.yul\":5990:5993   */\n      0x00\n        /* \"#utility.yul\":6013:6037   */\n      tag_171\n        /* \"#utility.yul\":6031:6036   */\n      dup3\n        /* \"#utility.yul\":6013:6037   */\n      tag_93\n      jump\t// in\n    tag_171:\n        /* \"#utility.yul\":6004:6037   */\n      swap2\n      pop\n        /* \"#utility.yul\":6059:6125   */\n      0xffffffffffffffffffffffffffffffffffffffffffffffffffffffffffffffff\n        /* \"#utility.yul\":6052:6057   */\n      dup3\n        /* \"#utility.yul\":6049:6126   */\n      eq\n        /* \"#utility.yul\":6046:6149   */\n      iszero\n      tag_172\n      jumpi\n        /* \"#utility.yul\":6129:6147   */\n      tag_173\n      tag_105\n      jump\t// in\n    tag_173:\n        /* \"#utility.yul\":6046:6149   */\n    tag_172:\n        /* \"#utility.yul\":6176:6177   */\n      0x01\n        /* \"#utility.yul\":6169:6174   */\n      dup3\n        /* \"#utility.yul\":6165:6178   */\n      add\n        /* \"#utility.yul\":6158:6178   */\n      swap1\n      pop\n        /* \"#utility.yul\":5951:6184   */\n      swap2\n      swap1\n      pop\n      jump\t// out\n        /* \"#utility.yul\":6190:6370   */\n    tag_65:\n        /* \"#utility.yul\":6238:6315   */\n      0x4e487b7100000000000000000000000000000000000000000000000000000000\n        /* \"#utility.yul\":6235:6236   */\n      0x00\n        /* \"#utility.yul\":6228:6316   */\n      mstore\n        /* \"#utility.yul\":6335:6339   */\n      0x41\n        /* \"#utility.yul\":6332:6333   */\n      0x04\n        /* \"#utility.yul\":6325:6340   */\n      mstore\n        /* \"#utility.yul\":6359:6363   */\n      0x24\n        /* \"#utility.yul\":6356:6357   */\n      0x00\n        /* \"#utility.yul\":6349:6364   */\n      revert\n        /* \"#utility.yul\":6376:6523   */\n    tag_106:\n        /* \"#utility.yul\":6477:6488   */\n      0x00\n        /* \"#utility.yul\":6514:6517   */\n      dup2\n        /* \"#utility.yul\":6499:6517   */\n      swap1\n      pop\n        /* \"#utility.yul\":6376:6523   */\n      swap3\n      swap2\n      pop\n      pop\n      jump\t// out\n        /* \"#utility.yul\":6529:6643   */\n    tag_107:\n      pop\n      jump\t// out\n        /* \"#utility.yul\":6649:7047   */\n    tag_108:\n        /* \"#utility.yul\":6808:6811   */\n      0x00\n        /* \"#utility.yul\":6829:6912   */\n      tag_178\n        /* \"#utility.yul\":6910:6911   */\n      0x00\n        /* \"#utility.yul\":6905:6908   */\n      dup4\n        /* \"#utility.yul\":6829:6912   */\n      tag_106\n      jump\t// in\n    tag_178:\n        /* \"#utility.yul\":6822:6912   */\n      swap2\n      pop\n        /* \"#utility.yul\":6921:7014   */\n      tag_179\n        /* \"#utility.yul\":7010:7013   */\n      dup3\n        /* \"#utility.yul\":6921:7014   */\n      tag_107\n      jump\t// in\n    tag_179:\n        /* \"#utility.yul\":7039:7040   */\n      0x00\n        /* \"#utility.yul\":7034:7037   */\n      dup3\n        /* \"#utility.yul\":7030:7041   */\n      add\n        /* \"#utility.yul\":7023:7041   */\n      swap1\n      pop\n        /* \"#utility.yul\":6649:7047   */\n      swap2\n      swap1\n      pop\n      jump\t// out\n        /* \"#utility.yul\":7053:7432   */\n    tag_70:\n        /* \"#utility.yul\":7237:7240   */\n      0x00\n        /* \"#utility.yul\":7259:7406   */\n      tag_181\n        /* \"#utility.yul\":7402:7405   */\n      dup3\n        /* \"#utility.yul\":7259:7406   */\n      tag_108\n      jump\t// in\n    tag_181:\n        /* \"#utility.yul\":7252:7406   */\n      swap2\n      pop\n        /* \"#utility.yul\":7423:7426   */\n      dup2\n        /* \"#utility.yul\":7416:7426   */\n      swap1\n      pop\n        /* \"#utility.yul\":7053:7432   */\n      swap2\n      swap1\n      pop\n      jump\t// out\n        /* \"#utility.yul\":7438:7598   */\n    tag_109:\n        /* \"#utility.yul\":7578:7590   */\n      0x43616c6c204661696c6400000000000000000000000000000000000000000000\n        /* \"#utility.yul\":7574:7575   */\n      0x00\n        /* \"#utility.yul\":7566:7572   */\n      dup3\n        /* \"#utility.yul\":7562:7576   */\n      add\n        /* \"#utility.yul\":7555:7591   */\n      mstore\n        /* \"#utility.yul\":7438:7598   */\n      pop\n      jump\t// out\n        /* \"#utility.yul\":7604:7970   */\n    tag_110:\n        /* \"#utility.yul\":7746:7749   */\n      0x00\n        /* \"#utility.yul\":7767:7834   */\n      tag_184\n        /* \"#utility.yul\":7831:7833   */\n      0x0a\n        /* \"#utility.yul\":7826:7829   */\n      dup4\n        /* \"#utility.yul\":7767:7834   */\n      tag_100\n      jump\t// in\n    tag_184:\n        /* \"#utility.yul\":7760:7834   */\n      swap2\n      pop\n        /* \"#utility.yul\":7843:7936   */\n      tag_185\n        /* \"#utility.yul\":7932:7935   */\n      dup3\n        /* \"#utility.yul\":7843:7936   */\n      tag_109\n      jump\t// in\n    tag_185:\n        /* \"#utility.yul\":7961:7963   */\n      0x20\n        /* \"#utility.yul\":7956:7959   */\n      dup3\n        /* \"#utility.yul\":7952:7964   */\n      add\n        /* \"#utility.yul\":7945:7964   */\n      swap1\n      pop\n        /* \"#utility.yul\":7604:7970   */\n      swap2\n      swap1\n      pop\n      jump\t// out\n        /* \"#utility.yul\":7976:8395   */\n    tag_76:\n        /* \"#utility.yul\":8142:8146   */\n      0x00\n        /* \"#utility.yul\":8180:8182   */\n      0x20\n        /* \"#utility.yul\":8169:8178   */\n      dup3\n        /* \"#utility.yul\":8165:8183   */\n      add\n        /* \"#utility.yul\":8157:8183   */\n      swap1\n      pop\n        /* \"#utility.yul\":8229:8238   */\n      dup2\n        /* \"#utility.yul\":8223:8227   */\n      dup2\n        /* \"#utility.yul\":8219:8239   */\n      sub\n        /* \"#utility.yul\":8215:8216   */\n      0x00\n        /* \"#utility.yul\":8204:8213   */\n      dup4\n        /* \"#utility.yul\":8200:8217   */\n      add\n        /* \"#utility.yul\":8193:8240   */\n      mstore\n        /* \"#utility.yul\":8257:8388   */\n      tag_187\n        /* \"#utility.yul\":8383:8387   */\n      dup2\n        /* \"#utility.yul\":8257:8388   */\n      tag_110\n      jump\t// in\n    tag_187:\n        /* \"#utility.yul\":8249:8388   */\n      swap1\n      pop\n        /* \"#utility.yul\":7976:8395   */\n      swap2\n      swap1\n      pop\n      jump\t// out\n\n    auxdata: 0xa2646970667358221220c38d2ae625f08506277986ee7e0033d7af8a24870e21ee724a5b787339ff009764736f6c63430008080033\n}\n",
				"bytecode": {
					"linkReferences": {
						"contracts/PriceConvertor.sol": {
							"PriceConvertor": [
								{
									"length": 20,
									"start": 415
								}
							]
						}
					},
					"object": "60a060405234801561001057600080fd5b503373ffffffffffffffffffffffffffffffffffffffff1660808173ffffffffffffffffffffffffffffffffffffffff1660601b8152505060805160601c610a6161006d600039600081816102d301526104ff0152610a616000f3fe60806040526004361061004e5760003560e01c80633c7e7d28146100675780633ccfd60b146100a4578063b60d4288146100bb578063dba6335f146100c5578063dc0d3dff146100f05761005d565b3661005d5761005b61012d565b005b61006561012d565b005b34801561007357600080fd5b5061008e6004803603810190610089919061066a565b6102a2565b60405161009b91906106b0565b60405180910390f35b3480156100b057600080fd5b506100b96102ba565b005b6100c361012d565b005b3480156100d157600080fd5b506100da6104fd565b6040516100e791906106da565b60405180910390f35b3480156100fc57600080fd5b5061011760048036038101906101129190610721565b610521565b60405161012491906106da565b60405180910390f35b60323473__$ee5333b9f3bf6448fe7cd0ff78e98acd66$__636e5b6b2890916040518263ffffffff1660e01b8152600401610168919061075d565b60206040518083038186803b15801561018057600080fd5b505af4158015610194573d6000803e3d6000fd5b505050506040513d601f19601f820116820180604052508101906101b8919061078d565b10156101f9576040517f08c379a00000000000000000000000000000000000000000000000000000000081526004016101f090610817565b60405180910390fd5b6000339080600181540180825580915050600190039060005260206000200160009091909190916101000a81548173ffffffffffffffffffffffffffffffffffffffff021916908373ffffffffffffffffffffffffffffffffffffffff16021790555034600160003373ffffffffffffffffffffffffffffffffffffffff1673ffffffffffffffffffffffffffffffffffffffff16815260200190815260200160002081905550565b60016020528060005260406000206000915090505481565b3373ffffffffffffffffffffffffffffffffffffffff167f000000000000000000000000000000000000000000000000000000000000000073ffffffffffffffffffffffffffffffffffffffff1614610348576040517f08c379a000000000000000000000000000000000000000000000000000000000815260040161033f90610883565b60405180910390fd5b60005b6000805490508110156103ed57600060016000808481548110610371576103706108a3565b5b9060005260206000200160009054906101000a900473ffffffffffffffffffffffffffffffffffffffff1673ffffffffffffffffffffffffffffffffffffffff1673ffffffffffffffffffffffffffffffffffffffff1681526020019081526020016000208190555080806103e590610901565b91505061034b565b50600067ffffffffffffffff8111156104095761040861094a565b5b6040519080825280602002602001820160405280156104375781602001602082028036833780820191505090505b506000908051906020019061044d929190610560565b5060003373ffffffffffffffffffffffffffffffffffffffff1647604051610474906109aa565b60006040518083038185875af1925050503d80600081146104b1576040519150601f19603f3d011682016040523d82523d6000602084013e6104b6565b606091505b50509050806104fa576040517f08c379a00000000000000000000000000000000000000000000000000000000081526004016104f190610a0b565b60405180910390fd5b50565b7f000000000000000000000000000000000000000000000000000000000000000081565b6000818154811061053157600080fd5b906000526020600020016000915054906101000a900473ffffffffffffffffffffffffffffffffffffffff1681565b8280548282559060005260206000209081019282156105d9579160200282015b828111156105d85782518260006101000a81548173ffffffffffffffffffffffffffffffffffffffff021916908373ffffffffffffffffffffffffffffffffffffffff16021790555091602001919060010190610580565b5b5090506105e691906105ea565b5090565b5b808211156106035760008160009055506001016105eb565b5090565b600080fd5b600073ffffffffffffffffffffffffffffffffffffffff82169050919050565b60006106378261060c565b9050919050565b6106478161062c565b811461065257600080fd5b50565b6000813590506106648161063e565b92915050565b6000602082840312156106805761067f610607565b5b600061068e84828501610655565b91505092915050565b6000819050919050565b6106aa81610697565b82525050565b60006020820190506106c560008301846106a1565b92915050565b6106d48161062c565b82525050565b60006020820190506106ef60008301846106cb565b92915050565b6106fe81610697565b811461070957600080fd5b50565b60008135905061071b816106f5565b92915050565b60006020828403121561073757610736610607565b5b60006107458482850161070c565b91505092915050565b61075781610697565b82525050565b6000602082019050610772600083018461074e565b92915050565b600081519050610787816106f5565b92915050565b6000602082840312156107a3576107a2610607565b5b60006107b184828501610778565b91505092915050565b600082825260208201905092915050565b7f4469646e277420656e756768206d6f6e65790000000000000000000000000000600082015250565b60006108016012836107ba565b915061080c826107cb565b602082019050919050565b60006020820190508181036000830152610830816107f4565b9050919050565b7f596f7520646f6e27742068617665207065726d697373696f6e732e0000000000600082015250565b600061086d601b836107ba565b915061087882610837565b602082019050919050565b6000602082019050818103600083015261089c81610860565b9050919050565b7f4e487b7100000000000000000000000000000000000000000000000000000000600052603260045260246000fd5b7f4e487b7100000000000000000000000000000000000000000000000000000000600052601160045260246000fd5b600061090c82610697565b91507fffffffffffffffffffffffffffffffffffffffffffffffffffffffffffffffff82141561093f5761093e6108d2565b5b600182019050919050565b7f4e487b7100000000000000000000000000000000000000000000000000000000600052604160045260246000fd5b600081905092915050565b50565b6000610994600083610979565b915061099f82610984565b600082019050919050565b60006109b582610987565b9150819050919050565b7f43616c6c204661696c6400000000000000000000000000000000000000000000600082015250565b60006109f5600a836107ba565b9150610a00826109bf565b602082019050919050565b60006020820190508181036000830152610a24816109e8565b905091905056fea2646970667358221220c38d2ae625f08506277986ee7e0033d7af8a24870e21ee724a5b787339ff009764736f6c63430008080033",
					"opcodes": "PUSH1 0xA0 PUSH1 0x40 MSTORE CALLVALUE DUP1 ISZERO PUSH2 0x10 JUMPI PUSH1 0x0 DUP1 REVERT JUMPDEST POP CALLER PUSH20 0xFFFFFFFFFFFFFFFFFFFFFFFFFFFFFFFFFFFFFFFF AND PUSH1 0x80 DUP2 PUSH20 0xFFFFFFFFFFFFFFFFFFFFFFFFFFFFFFFFFFFFFFFF AND PUSH1 0x60 SHL DUP2 MSTORE POP POP PUSH1 0x80 MLOAD PUSH1 0x60 SHR PUSH2 0xA61 PUSH2 0x6D PUSH1 0x0 CODECOPY PUSH1 0x0 DUP2 DUP2 PUSH2 0x2D3 ADD MSTORE PUSH2 0x4FF ADD MSTORE PUSH2 0xA61 PUSH1 0x0 RETURN INVALID PUSH1 0x80 PUSH1 0x40 MSTORE PUSH1 0x4 CALLDATASIZE LT PUSH2 0x4E JUMPI PUSH1 0x0 CALLDATALOAD PUSH1 0xE0 SHR DUP1 PUSH4 0x3C7E7D28 EQ PUSH2 0x67 JUMPI DUP1 PUSH4 0x3CCFD60B EQ PUSH2 0xA4 JUMPI DUP1 PUSH4 0xB60D4288 EQ PUSH2 0xBB JUMPI DUP1 PUSH4 0xDBA6335F EQ PUSH2 0xC5 JUMPI DUP1 PUSH4 0xDC0D3DFF EQ PUSH2 0xF0 JUMPI PUSH2 0x5D JUMP JUMPDEST CALLDATASIZE PUSH2 0x5D JUMPI PUSH2 0x5B PUSH2 0x12D JUMP JUMPDEST STOP JUMPDEST PUSH2 0x65 PUSH2 0x12D JUMP JUMPDEST STOP JUMPDEST CALLVALUE DUP1 ISZERO PUSH2 0x73 JUMPI PUSH1 0x0 DUP1 REVERT JUMPDEST POP PUSH2 0x8E PUSH1 0x4 DUP1 CALLDATASIZE SUB DUP2 ADD SWAP1 PUSH2 0x89 SWAP2 SWAP1 PUSH2 0x66A JUMP JUMPDEST PUSH2 0x2A2 JUMP JUMPDEST PUSH1 0x40 MLOAD PUSH2 0x9B SWAP2 SWAP1 PUSH2 0x6B0 JUMP JUMPDEST PUSH1 0x40 MLOAD DUP1 SWAP2 SUB SWAP1 RETURN JUMPDEST CALLVALUE DUP1 ISZERO PUSH2 0xB0 JUMPI PUSH1 0x0 DUP1 REVERT JUMPDEST POP PUSH2 0xB9 PUSH2 0x2BA JUMP JUMPDEST STOP JUMPDEST PUSH2 0xC3 PUSH2 0x12D JUMP JUMPDEST STOP JUMPDEST CALLVALUE DUP1 ISZERO PUSH2 0xD1 JUMPI PUSH1 0x0 DUP1 REVERT JUMPDEST POP PUSH2 0xDA PUSH2 0x4FD JUMP JUMPDEST PUSH1 0x40 MLOAD PUSH2 0xE7 SWAP2 SWAP1 PUSH2 0x6DA JUMP JUMPDEST PUSH1 0x40 MLOAD DUP1 SWAP2 SUB SWAP1 RETURN JUMPDEST CALLVALUE DUP1 ISZERO PUSH2 0xFC JUMPI PUSH1 0x0 DUP1 REVERT JUMPDEST POP PUSH2 0x117 PUSH1 0x4 DUP1 CALLDATASIZE SUB DUP2 ADD SWAP1 PUSH2 0x112 SWAP2 SWAP1 PUSH2 0x721 JUMP JUMPDEST PUSH2 0x521 JUMP JUMPDEST PUSH1 0x40 MLOAD PUSH2 0x124 SWAP2 SWAP1 PUSH2 0x6DA JUMP JUMPDEST PUSH1 0x40 MLOAD DUP1 SWAP2 SUB SWAP1 RETURN JUMPDEST PUSH1 0x32 CALLVALUE PUSH20 0x0 PUSH4 0x6E5B6B28 SWAP1 SWAP2 PUSH1 0x40 MLOAD DUP3 PUSH4 0xFFFFFFFF AND PUSH1 0xE0 SHL DUP2 MSTORE PUSH1 0x4 ADD PUSH2 0x168 SWAP2 SWAP1 PUSH2 0x75D JUMP JUMPDEST PUSH1 0x20 PUSH1 0x40 MLOAD DUP1 DUP4 SUB DUP2 DUP7 DUP1 EXTCODESIZE ISZERO DUP1 ISZERO PUSH2 0x180 JUMPI PUSH1 0x0 DUP1 REVERT JUMPDEST POP GAS DELEGATECALL ISZERO DUP1 ISZERO PUSH2 0x194 JUMPI RETURNDATASIZE PUSH1 0x0 DUP1 RETURNDATACOPY RETURNDATASIZE PUSH1 0x0 REVERT JUMPDEST POP POP POP POP PUSH1 0x40 MLOAD RETURNDATASIZE PUSH1 0x1F NOT PUSH1 0x1F DUP3 ADD AND DUP3 ADD DUP1 PUSH1 0x40 MSTORE POP DUP2 ADD SWAP1 PUSH2 0x1B8 SWAP2 SWAP1 PUSH2 0x78D JUMP JUMPDEST LT ISZERO PUSH2 0x1F9 JUMPI PUSH1 0x40 MLOAD PUSH32 0x8C379A000000000000000000000000000000000000000000000000000000000 DUP2 MSTORE PUSH1 0x4 ADD PUSH2 0x1F0 SWAP1 PUSH2 0x817 JUMP JUMPDEST PUSH1 0x40 MLOAD DUP1 SWAP2 SUB SWAP1 REVERT JUMPDEST PUSH1 0x0 CALLER SWAP1 DUP1 PUSH1 0x1 DUP2 SLOAD ADD DUP1 DUP3 SSTORE DUP1 SWAP2 POP POP PUSH1 0x1 SWAP1 SUB SWAP1 PUSH1 0x0 MSTORE PUSH1 0x20 PUSH1 0x0 KECCAK256 ADD PUSH1 0x0 SWAP1 SWAP2 SWAP1 SWAP2 SWAP1 SWAP2 PUSH2 0x100 EXP DUP2 SLOAD DUP2 PUSH20 0xFFFFFFFFFFFFFFFFFFFFFFFFFFFFFFFFFFFFFFFF MUL NOT AND SWAP1 DUP4 PUSH20 0xFFFFFFFFFFFFFFFFFFFFFFFFFFFFFFFFFFFFFFFF AND MUL OR SWAP1 SSTORE POP CALLVALUE PUSH1 0x1 PUSH1 0x0 CALLER PUSH20 0xFFFFFFFFFFFFFFFFFFFFFFFFFFFFFFFFFFFFFFFF AND PUSH20 0xFFFFFFFFFFFFFFFFFFFFFFFFFFFFFFFFFFFFFFFF AND DUP2 MSTORE PUSH1 0x20 ADD SWAP1 DUP2 MSTORE PUSH1 0x20 ADD PUSH1 0x0 KECCAK256 DUP2 SWAP1 SSTORE POP JUMP JUMPDEST PUSH1 0x1 PUSH1 0x20 MSTORE DUP1 PUSH1 0x0 MSTORE PUSH1 0x40 PUSH1 0x0 KECCAK256 PUSH1 0x0 SWAP2 POP SWAP1 POP SLOAD DUP2 JUMP JUMPDEST CALLER PUSH20 0xFFFFFFFFFFFFFFFFFFFFFFFFFFFFFFFFFFFFFFFF AND PUSH32 0x0 PUSH20 0xFFFFFFFFFFFFFFFFFFFFFFFFFFFFFFFFFFFFFFFF AND EQ PUSH2 0x348 JUMPI PUSH1 0x40 MLOAD PUSH32 0x8C379A000000000000000000000000000000000000000000000000000000000 DUP2 MSTORE PUSH1 0x4 ADD PUSH2 0x33F SWAP1 PUSH2 0x883 JUMP JUMPDEST PUSH1 0x40 MLOAD DUP1 SWAP2 SUB SWAP1 REVERT JUMPDEST PUSH1 0x0 JUMPDEST PUSH1 0x0 DUP1 SLOAD SWAP1 POP DUP2 LT ISZERO PUSH2 0x3ED JUMPI PUSH1 0x0 PUSH1 0x1 PUSH1 0x0 DUP1 DUP5 DUP2 SLOAD DUP2 LT PUSH2 0x371 JUMPI PUSH2 0x370 PUSH2 0x8A3 JUMP JUMPDEST JUMPDEST SWAP1 PUSH1 0x0 MSTORE PUSH1 0x20 PUSH1 0x0 KECCAK256 ADD PUSH1 0x0 SWAP1 SLOAD SWAP1 PUSH2 0x100 EXP SWAP1 DIV PUSH20 0xFFFFFFFFFFFFFFFFFFFFFFFFFFFFFFFFFFFFFFFF AND PUSH20 0xFFFFFFFFFFFFFFFFFFFFFFFFFFFFFFFFFFFFFFFF AND PUSH20 0xFFFFFFFFFFFFFFFFFFFFFFFFFFFFFFFFFFFFFFFF AND DUP2 MSTORE PUSH1 0x20 ADD SWAP1 DUP2 MSTORE PUSH1 0x20 ADD PUSH1 0x0 KECCAK256 DUP2 SWAP1 SSTORE POP DUP1 DUP1 PUSH2 0x3E5 SWAP1 PUSH2 0x901 JUMP JUMPDEST SWAP2 POP POP PUSH2 0x34B JUMP JUMPDEST POP PUSH1 0x0 PUSH8 0xFFFFFFFFFFFFFFFF DUP2 GT ISZERO PUSH2 0x409 JUMPI PUSH2 0x408 PUSH2 0x94A JUMP JUMPDEST JUMPDEST PUSH1 0x40 MLOAD SWAP1 DUP1 DUP3 MSTORE DUP1 PUSH1 0x20 MUL PUSH1 0x20 ADD DUP3 ADD PUSH1 0x40 MSTORE DUP1 ISZERO PUSH2 0x437 JUMPI DUP2 PUSH1 0x20 ADD PUSH1 0x20 DUP3 MUL DUP1 CALLDATASIZE DUP4 CALLDATACOPY DUP1 DUP3 ADD SWAP2 POP POP SWAP1 POP JUMPDEST POP PUSH1 0x0 SWAP1 DUP1 MLOAD SWAP1 PUSH1 0x20 ADD SWAP1 PUSH2 0x44D SWAP3 SWAP2 SWAP1 PUSH2 0x560 JUMP JUMPDEST POP PUSH1 0x0 CALLER PUSH20 0xFFFFFFFFFFFFFFFFFFFFFFFFFFFFFFFFFFFFFFFF AND SELFBALANCE PUSH1 0x40 MLOAD PUSH2 0x474 SWAP1 PUSH2 0x9AA JUMP JUMPDEST PUSH1 0x0 PUSH1 0x40 MLOAD DUP1 DUP4 SUB DUP2 DUP6 DUP8 GAS CALL SWAP3 POP POP POP RETURNDATASIZE DUP1 PUSH1 0x0 DUP2 EQ PUSH2 0x4B1 JUMPI PUSH1 0x40 MLOAD SWAP2 POP PUSH1 0x1F NOT PUSH1 0x3F RETURNDATASIZE ADD AND DUP3 ADD PUSH1 0x40 MSTORE RETURNDATASIZE DUP3 MSTORE RETURNDATASIZE PUSH1 0x0 PUSH1 0x20 DUP5 ADD RETURNDATACOPY PUSH2 0x4B6 JUMP JUMPDEST PUSH1 0x60 SWAP2 POP JUMPDEST POP POP SWAP1 POP DUP1 PUSH2 0x4FA JUMPI PUSH1 0x40 MLOAD PUSH32 0x8C379A000000000000000000000000000000000000000000000000000000000 DUP2 MSTORE PUSH1 0x4 ADD PUSH2 0x4F1 SWAP1 PUSH2 0xA0B JUMP JUMPDEST PUSH1 0x40 MLOAD DUP1 SWAP2 SUB SWAP1 REVERT JUMPDEST POP JUMP JUMPDEST PUSH32 0x0 DUP2 JUMP JUMPDEST PUSH1 0x0 DUP2 DUP2 SLOAD DUP2 LT PUSH2 0x531 JUMPI PUSH1 0x0 DUP1 REVERT JUMPDEST SWAP1 PUSH1 0x0 MSTORE PUSH1 0x20 PUSH1 0x0 KECCAK256 ADD PUSH1 0x0 SWAP2 POP SLOAD SWAP1 PUSH2 0x100 EXP SWAP1 DIV PUSH20 0xFFFFFFFFFFFFFFFFFFFFFFFFFFFFFFFFFFFFFFFF AND DUP2 JUMP JUMPDEST DUP3 DUP1 SLOAD DUP3 DUP3 SSTORE SWAP1 PUSH1 0x0 MSTORE PUSH1 0x20 PUSH1 0x0 KECCAK256 SWAP1 DUP2 ADD SWAP3 DUP3 ISZERO PUSH2 0x5D9 JUMPI SWAP2 PUSH1 0x20 MUL DUP3 ADD JUMPDEST DUP3 DUP2 GT ISZERO PUSH2 0x5D8 JUMPI DUP3 MLOAD DUP3 PUSH1 0x0 PUSH2 0x100 EXP DUP2 SLOAD DUP2 PUSH20 0xFFFFFFFFFFFFFFFFFFFFFFFFFFFFFFFFFFFFFFFF MUL NOT AND SWAP1 DUP4 PUSH20 0xFFFFFFFFFFFFFFFFFFFFFFFFFFFFFFFFFFFFFFFF AND MUL OR SWAP1 SSTORE POP SWAP2 PUSH1 0x20 ADD SWAP2 SWAP1 PUSH1 0x1 ADD SWAP1 PUSH2 0x580 JUMP JUMPDEST JUMPDEST POP SWAP1 POP PUSH2 0x5E6 SWAP2 SWAP1 PUSH2 0x5EA JUMP JUMPDEST POP SWAP1 JUMP JUMPDEST JUMPDEST DUP1 DUP3 GT ISZERO PUSH2 0x603 JUMPI PUSH1 0x0 DUP2 PUSH1 0x0 SWAP1 SSTORE POP PUSH1 0x1 ADD PUSH2 0x5EB JUMP JUMPDEST POP SWAP1 JUMP JUMPDEST PUSH1 0x0 DUP1 REVERT JUMPDEST PUSH1 0x0 PUSH20 0xFFFFFFFFFFFFFFFFFFFFFFFFFFFFFFFFFFFFFFFF DUP3 AND SWAP1 POP SWAP2 SWAP1 POP JUMP JUMPDEST PUSH1 0x0 PUSH2 0x637 DUP3 PUSH2 0x60C JUMP JUMPDEST SWAP1 POP SWAP2 SWAP1 POP JUMP JUMPDEST PUSH2 0x647 DUP2 PUSH2 0x62C JUMP JUMPDEST DUP2 EQ PUSH2 0x652 JUMPI PUSH1 0x0 DUP1 REVERT JUMPDEST POP JUMP JUMPDEST PUSH1 0x0 DUP2 CALLDATALOAD SWAP1 POP PUSH2 0x664 DUP2 PUSH2 0x63E JUMP JUMPDEST SWAP3 SWAP2 POP POP JUMP JUMPDEST PUSH1 0x0 PUSH1 0x20 DUP3 DUP5 SUB SLT ISZERO PUSH2 0x680 JUMPI PUSH2 0x67F PUSH2 0x607 JUMP JUMPDEST JUMPDEST PUSH1 0x0 PUSH2 0x68E DUP5 DUP3 DUP6 ADD PUSH2 0x655 JUMP JUMPDEST SWAP2 POP POP SWAP3 SWAP2 POP POP JUMP JUMPDEST PUSH1 0x0 DUP2 SWAP1 POP SWAP2 SWAP1 POP JUMP JUMPDEST PUSH2 0x6AA DUP2 PUSH2 0x697 JUMP JUMPDEST DUP3 MSTORE POP POP JUMP JUMPDEST PUSH1 0x0 PUSH1 0x20 DUP3 ADD SWAP1 POP PUSH2 0x6C5 PUSH1 0x0 DUP4 ADD DUP5 PUSH2 0x6A1 JUMP JUMPDEST SWAP3 SWAP2 POP POP JUMP JUMPDEST PUSH2 0x6D4 DUP2 PUSH2 0x62C JUMP JUMPDEST DUP3 MSTORE POP POP JUMP JUMPDEST PUSH1 0x0 PUSH1 0x20 DUP3 ADD SWAP1 POP PUSH2 0x6EF PUSH1 0x0 DUP4 ADD DUP5 PUSH2 0x6CB JUMP JUMPDEST SWAP3 SWAP2 POP POP JUMP JUMPDEST PUSH2 0x6FE DUP2 PUSH2 0x697 JUMP JUMPDEST DUP2 EQ PUSH2 0x709 JUMPI PUSH1 0x0 DUP1 REVERT JUMPDEST POP JUMP JUMPDEST PUSH1 0x0 DUP2 CALLDATALOAD SWAP1 POP PUSH2 0x71B DUP2 PUSH2 0x6F5 JUMP JUMPDEST SWAP3 SWAP2 POP POP JUMP JUMPDEST PUSH1 0x0 PUSH1 0x20 DUP3 DUP5 SUB SLT ISZERO PUSH2 0x737 JUMPI PUSH2 0x736 PUSH2 0x607 JUMP JUMPDEST JUMPDEST PUSH1 0x0 PUSH2 0x745 DUP5 DUP3 DUP6 ADD PUSH2 0x70C JUMP JUMPDEST SWAP2 POP POP SWAP3 SWAP2 POP POP JUMP JUMPDEST PUSH2 0x757 DUP2 PUSH2 0x697 JUMP JUMPDEST DUP3 MSTORE POP POP JUMP JUMPDEST PUSH1 0x0 PUSH1 0x20 DUP3 ADD SWAP1 POP PUSH2 0x772 PUSH1 0x0 DUP4 ADD DUP5 PUSH2 0x74E JUMP JUMPDEST SWAP3 SWAP2 POP POP JUMP JUMPDEST PUSH1 0x0 DUP2 MLOAD SWAP1 POP PUSH2 0x787 DUP2 PUSH2 0x6F5 JUMP JUMPDEST SWAP3 SWAP2 POP POP JUMP JUMPDEST PUSH1 0x0 PUSH1 0x20 DUP3 DUP5 SUB SLT ISZERO PUSH2 0x7A3 JUMPI PUSH2 0x7A2 PUSH2 0x607 JUMP JUMPDEST JUMPDEST PUSH1 0x0 PUSH2 0x7B1 DUP5 DUP3 DUP6 ADD PUSH2 0x778 JUMP JUMPDEST SWAP2 POP POP SWAP3 SWAP2 POP POP JUMP JUMPDEST PUSH1 0x0 DUP3 DUP3 MSTORE PUSH1 0x20 DUP3 ADD SWAP1 POP SWAP3 SWAP2 POP POP JUMP JUMPDEST PUSH32 0x4469646E277420656E756768206D6F6E65790000000000000000000000000000 PUSH1 0x0 DUP3 ADD MSTORE POP JUMP JUMPDEST PUSH1 0x0 PUSH2 0x801 PUSH1 0x12 DUP4 PUSH2 0x7BA JUMP JUMPDEST SWAP2 POP PUSH2 0x80C DUP3 PUSH2 0x7CB JUMP JUMPDEST PUSH1 0x20 DUP3 ADD SWAP1 POP SWAP2 SWAP1 POP JUMP JUMPDEST PUSH1 0x0 PUSH1 0x20 DUP3 ADD SWAP1 POP DUP2 DUP2 SUB PUSH1 0x0 DUP4 ADD MSTORE PUSH2 0x830 DUP2 PUSH2 0x7F4 JUMP JUMPDEST SWAP1 POP SWAP2 SWAP1 POP JUMP JUMPDEST PUSH32 0x596F7520646F6E27742068617665207065726D697373696F6E732E0000000000 PUSH1 0x0 DUP3 ADD MSTORE POP JUMP JUMPDEST PUSH1 0x0 PUSH2 0x86D PUSH1 0x1B DUP4 PUSH2 0x7BA JUMP JUMPDEST SWAP2 POP PUSH2 0x878 DUP3 PUSH2 0x837 JUMP JUMPDEST PUSH1 0x20 DUP3 ADD SWAP1 POP SWAP2 SWAP1 POP JUMP JUMPDEST PUSH1 0x0 PUSH1 0x20 DUP3 ADD SWAP1 POP DUP2 DUP2 SUB PUSH1 0x0 DUP4 ADD MSTORE PUSH2 0x89C DUP2 PUSH2 0x860 JUMP JUMPDEST SWAP1 POP SWAP2 SWAP1 POP JUMP JUMPDEST PUSH32 0x4E487B7100000000000000000000000000000000000000000000000000000000 PUSH1 0x0 MSTORE PUSH1 0x32 PUSH1 0x4 MSTORE PUSH1 0x24 PUSH1 0x0 REVERT JUMPDEST PUSH32 0x4E487B7100000000000000000000000000000000000000000000000000000000 PUSH1 0x0 MSTORE PUSH1 0x11 PUSH1 0x4 MSTORE PUSH1 0x24 PUSH1 0x0 REVERT JUMPDEST PUSH1 0x0 PUSH2 0x90C DUP3 PUSH2 0x697 JUMP JUMPDEST SWAP2 POP PUSH32 0xFFFFFFFFFFFFFFFFFFFFFFFFFFFFFFFFFFFFFFFFFFFFFFFFFFFFFFFFFFFFFFFF DUP3 EQ ISZERO PUSH2 0x93F JUMPI PUSH2 0x93E PUSH2 0x8D2 JUMP JUMPDEST JUMPDEST PUSH1 0x1 DUP3 ADD SWAP1 POP SWAP2 SWAP1 POP JUMP JUMPDEST PUSH32 0x4E487B7100000000000000000000000000000000000000000000000000000000 PUSH1 0x0 MSTORE PUSH1 0x41 PUSH1 0x4 MSTORE PUSH1 0x24 PUSH1 0x0 REVERT JUMPDEST PUSH1 0x0 DUP2 SWAP1 POP SWAP3 SWAP2 POP POP JUMP JUMPDEST POP JUMP JUMPDEST PUSH1 0x0 PUSH2 0x994 PUSH1 0x0 DUP4 PUSH2 0x979 JUMP JUMPDEST SWAP2 POP PUSH2 0x99F DUP3 PUSH2 0x984 JUMP JUMPDEST PUSH1 0x0 DUP3 ADD SWAP1 POP SWAP2 SWAP1 POP JUMP JUMPDEST PUSH1 0x0 PUSH2 0x9B5 DUP3 PUSH2 0x987 JUMP JUMPDEST SWAP2 POP DUP2 SWAP1 POP SWAP2 SWAP1 POP JUMP JUMPDEST PUSH32 0x43616C6C204661696C6400000000000000000000000000000000000000000000 PUSH1 0x0 DUP3 ADD MSTORE POP JUMP JUMPDEST PUSH1 0x0 PUSH2 0x9F5 PUSH1 0xA DUP4 PUSH2 0x7BA JUMP JUMPDEST SWAP2 POP PUSH2 0xA00 DUP3 PUSH2 0x9BF JUMP JUMPDEST PUSH1 0x20 DUP3 ADD SWAP1 POP SWAP2 SWAP1 POP JUMP JUMPDEST PUSH1 0x0 PUSH1 0x20 DUP3 ADD SWAP1 POP DUP2 DUP2 SUB PUSH1 0x0 DUP4 ADD MSTORE PUSH2 0xA24 DUP2 PUSH2 0x9E8 JUMP JUMPDEST SWAP1 POP SWAP2 SWAP1 POP JUMP INVALID LOG2 PUSH5 0x6970667358 0x22 SLT KECCAK256 0xC3 DUP14 0x2A 0xE6 0x25 CREATE DUP6 MOD 0x27 PUSH26 0x86EE7E0033D7AF8A24870E21EE724A5B787339FF009764736F6C PUSH4 0x43000808 STOP CALLER "
				},
				"gasEstimates": {
					"creation": {
						"codeDepositCost": "531400",
						"executionCost": "infinite",
						"totalCost": "infinite"
					},
					"external": {
						"": "infinite",
						"addressToAmount(address)": "2792",
						"fund()": "infinite",
						"funders(uint256)": "5022",
						"i_owner()": "infinite",
						"withdraw()": "infinite"
					}
				},
				"methodIdentifiers": {
					"addressToAmount(address)": "3c7e7d28",
					"fund()": "b60d4288",
					"funders(uint256)": "dc0d3dff",
					"i_owner()": "dba6335f",
					"withdraw()": "3ccfd60b"
				}
			},
			"storageLayout": {
				"storage": [
					{
						"astId": 57,
						"contract": "contracts/FundMe.sol:FundMe",
						"label": "funders",
						"offset": 0,
						"slot": "0",
						"type": "t_array(t_address)dyn_storage"
					},
					{
						"astId": 61,
						"contract": "contracts/FundMe.sol:FundMe",
						"label": "addressToAmount",
						"offset": 0,
						"slot": "1",
						"type": "t_mapping(t_address,t_uint256)"
					}
				],
				"types": {
					"t_address": {
						"encoding": "inplace",
						"label": "address",
						"numberOfBytes": "20"
					},
					"t_array(t_address)dyn_storage": {
						"base": "t_address",
						"encoding": "dynamic_array",
						"label": "address[]",
						"numberOfBytes": "32"
					},
					"t_mapping(t_address,t_uint256)": {
						"encoding": "mapping",
						"key": "t_address",
						"label": "mapping(address => uint256)",
						"numberOfBytes": "32",
						"value": "t_uint256"
					},
					"t_uint256": {
						"encoding": "inplace",
						"label": "uint256",
						"numberOfBytes": "32"
					}
				}
			},
			"userdoc": {
				"kind": "user",
				"methods": {},
				"version": 1
			}
		}
	}
}