{
	"contracts/FundMe.sol": {
		"FundMe": {
			"abi": [
				{
					"inputs": [],
					"name": "fund",
					"outputs": [],
					"stateMutability": "payable",
					"type": "function"
				},
				{
					"inputs": [
						{
							"internalType": "uint256",
							"name": "ethAmount",
							"type": "uint256"
						}
					],
					"name": "getConversionRate",
					"outputs": [
						{
							"internalType": "uint256",
							"name": "",
							"type": "uint256"
						}
					],
					"stateMutability": "view",
					"type": "function"
				},
				{
					"inputs": [],
					"name": "getPrice",
					"outputs": [
						{
							"internalType": "uint256",
							"name": "",
							"type": "uint256"
						}
					],
					"stateMutability": "view",
					"type": "function"
				},
				{
					"inputs": [],
					"name": "getVersion",
					"outputs": [
						{
							"internalType": "uint256",
							"name": "",
							"type": "uint256"
						}
					],
					"stateMutability": "view",
					"type": "function"
				}
			],
			"devdoc": {
				"kind": "dev",
				"methods": {},
				"version": 1
			},
			"evm": {
				"assembly": "    /* \"contracts/FundMe.sol\":140:1197  contract FundMe {... */\n  mstore(0x40, 0x80)\n    /* \"contracts/FundMe.sol\":182:184  50 */\n  0x32\n    /* \"contracts/FundMe.sol\":165:184  uint256 minUsd = 50 */\n  0x00\n  sstore\n    /* \"contracts/FundMe.sol\":140:1197  contract FundMe {... */\n  callvalue\n  dup1\n  iszero\n  tag_1\n  jumpi\n  0x00\n  dup1\n  revert\ntag_1:\n  pop\n  dataSize(sub_0)\n  dup1\n  dataOffset(sub_0)\n  0x00\n  codecopy\n  0x00\n  return\nstop\n\nsub_0: assembly {\n        /* \"contracts/FundMe.sol\":140:1197  contract FundMe {... */\n      mstore(0x40, 0x80)\n      jumpi(tag_1, lt(calldatasize, 0x04))\n      shr(0xe0, calldataload(0x00))\n      dup1\n      0x0d8e6e2c\n      eq\n      tag_2\n      jumpi\n      dup1\n      0x6e5b6b28\n      eq\n      tag_3\n      jumpi\n      dup1\n      0x98d5fdca\n      eq\n      tag_4\n      jumpi\n      dup1\n      0xb60d4288\n      eq\n      tag_5\n      jumpi\n    tag_1:\n      0x00\n      dup1\n      revert\n        /* \"contracts/FundMe.sol\":724:922  function getVersion() public view returns (uint256){... */\n    tag_2:\n      callvalue\n      dup1\n      iszero\n      tag_6\n      jumpi\n      0x00\n      dup1\n      revert\n    tag_6:\n      pop\n      tag_7\n      tag_8\n      jump\t// in\n    tag_7:\n      mload(0x40)\n      tag_9\n      swap2\n      swap1\n      tag_10\n      jump\t// in\n    tag_9:\n      mload(0x40)\n      dup1\n      swap2\n      sub\n      swap1\n      return\n        /* \"contracts/FundMe.sol\":930:1151  function getConversionRate(uint256 ethAmount) public view returns(uint256){... */\n    tag_3:\n      callvalue\n      dup1\n      iszero\n      tag_11\n      jumpi\n      0x00\n      dup1\n      revert\n    tag_11:\n      pop\n      tag_12\n      0x04\n      dup1\n      calldatasize\n      sub\n      dup2\n      add\n      swap1\n      tag_13\n      swap2\n      swap1\n      tag_14\n      jump\t// in\n    tag_13:\n      tag_15\n      jump\t// in\n    tag_12:\n      mload(0x40)\n      tag_16\n      swap2\n      swap1\n      tag_10\n      jump\t// in\n    tag_16:\n      mload(0x40)\n      dup1\n      swap2\n      sub\n      swap1\n      return\n        /* \"contracts/FundMe.sol\":449:716  function getPrice() public view returns(uint256){... */\n    tag_4:\n      callvalue\n      dup1\n      iszero\n      tag_17\n      jumpi\n      0x00\n      dup1\n      revert\n    tag_17:\n      pop\n      tag_18\n      tag_19\n      jump\t// in\n    tag_18:\n      mload(0x40)\n      tag_20\n      swap2\n      swap1\n      tag_10\n      jump\t// in\n    tag_20:\n      mload(0x40)\n      dup1\n      swap2\n      sub\n      swap1\n      return\n        /* \"contracts/FundMe.sol\":193:441  function fund() public payable{... */\n    tag_5:\n      tag_21\n      tag_22\n      jump\t// in\n    tag_21:\n      stop\n        /* \"contracts/FundMe.sol\":724:922  function getVersion() public view returns (uint256){... */\n    tag_8:\n        /* \"contracts/FundMe.sol\":767:774  uint256 */\n      0x00\n        /* \"contracts/FundMe.sol\":786:813  AggregatorV3Interface price */\n      dup1\n        /* \"contracts/FundMe.sol\":838:880  0xD4a33860578De61DBAbDc8BFdb98FD742fA7028e */\n      0xd4a33860578de61dbabdc8bfdb98fd742fa7028e\n        /* \"contracts/FundMe.sol\":786:881  AggregatorV3Interface price = AggregatorV3Interface(0xD4a33860578De61DBAbDc8BFdb98FD742fA7028e) */\n      swap1\n      pop\n        /* \"contracts/FundMe.sol\":899:904  price */\n      dup1\n        /* \"contracts/FundMe.sol\":899:912  price.version */\n      0xffffffffffffffffffffffffffffffffffffffff\n      and\n      0x54fd4d50\n        /* \"contracts/FundMe.sol\":899:914  price.version() */\n      mload(0x40)\n      dup2\n      0xffffffff\n      and\n      0xe0\n      shl\n      dup2\n      mstore\n      0x04\n      add\n      0x20\n      mload(0x40)\n      dup1\n      dup4\n      sub\n      dup2\n      dup7\n      dup1\n      extcodesize\n      iszero\n      dup1\n      iszero\n      tag_24\n      jumpi\n      0x00\n      dup1\n      revert\n    tag_24:\n      pop\n      gas\n      staticcall\n      iszero\n      dup1\n      iszero\n      tag_26\n      jumpi\n      returndatasize\n      0x00\n      dup1\n      returndatacopy\n      revert(0x00, returndatasize)\n    tag_26:\n      pop\n      pop\n      pop\n      pop\n      mload(0x40)\n      returndatasize\n      not(0x1f)\n      0x1f\n      dup3\n      add\n      and\n      dup3\n      add\n      dup1\n      0x40\n      mstore\n      pop\n      dup2\n      add\n      swap1\n      tag_27\n      swap2\n      swap1\n      tag_28\n      jump\t// in\n    tag_27:\n        /* \"contracts/FundMe.sol\":892:914  return price.version() */\n      swap2\n      pop\n      pop\n        /* \"contracts/FundMe.sol\":724:922  function getVersion() public view returns (uint256){... */\n      swap1\n      jump\t// out\n        /* \"contracts/FundMe.sol\":930:1151  function getConversionRate(uint256 ethAmount) public view returns(uint256){... */\n    tag_15:\n        /* \"contracts/FundMe.sol\":996:1003  uint256 */\n      0x00\n        /* \"contracts/FundMe.sol\":1015:1032  uint256 priceRate */\n      dup1\n        /* \"contracts/FundMe.sol\":1035:1045  getPrice() */\n      tag_30\n        /* \"contracts/FundMe.sol\":1035:1043  getPrice */\n      tag_19\n        /* \"contracts/FundMe.sol\":1035:1045  getPrice() */\n      jump\t// in\n    tag_30:\n        /* \"contracts/FundMe.sol\":1015:1045  uint256 priceRate = getPrice() */\n      swap1\n      pop\n        /* \"contracts/FundMe.sol\":1056:1078  uint256 ethAmountInUsd */\n      0x00\n        /* \"contracts/FundMe.sol\":1107:1111  1e18 */\n      0x0de0b6b3a7640000\n        /* \"contracts/FundMe.sol\":1094:1103  ethAmount */\n      dup5\n        /* \"contracts/FundMe.sol\":1082:1091  priceRate */\n      dup4\n        /* \"contracts/FundMe.sol\":1082:1103  priceRate * ethAmount */\n      tag_31\n      swap2\n      swap1\n      tag_32\n      jump\t// in\n    tag_31:\n        /* \"contracts/FundMe.sol\":1081:1111  (priceRate * ethAmount) / 1e18 */\n      tag_33\n      swap2\n      swap1\n      tag_34\n      jump\t// in\n    tag_33:\n        /* \"contracts/FundMe.sol\":1056:1111  uint256 ethAmountInUsd = (priceRate * ethAmount) / 1e18 */\n      swap1\n      pop\n        /* \"contracts/FundMe.sol\":1129:1143  ethAmountInUsd */\n      dup1\n        /* \"contracts/FundMe.sol\":1122:1143  return ethAmountInUsd */\n      swap3\n      pop\n      pop\n      pop\n        /* \"contracts/FundMe.sol\":930:1151  function getConversionRate(uint256 ethAmount) public view returns(uint256){... */\n      swap2\n      swap1\n      pop\n      jump\t// out\n        /* \"contracts/FundMe.sol\":449:716  function getPrice() public view returns(uint256){... */\n    tag_19:\n        /* \"contracts/FundMe.sol\":489:496  uint256 */\n      0x00\n        /* \"contracts/FundMe.sol\":508:539  AggregatorV3Interface priceFeed */\n      dup1\n        /* \"contracts/FundMe.sol\":564:606  0xD4a33860578De61DBAbDc8BFdb98FD742fA7028e */\n      0xd4a33860578de61dbabdc8bfdb98fd742fa7028e\n        /* \"contracts/FundMe.sol\":508:607  AggregatorV3Interface priceFeed = AggregatorV3Interface(0xD4a33860578De61DBAbDc8BFdb98FD742fA7028e) */\n      swap1\n      pop\n        /* \"contracts/FundMe.sol\":620:632  int256 price */\n      0x00\n        /* \"contracts/FundMe.sol\":639:648  priceFeed */\n      dup2\n        /* \"contracts/FundMe.sol\":639:664  priceFeed.latestRoundData */\n      0xffffffffffffffffffffffffffffffffffffffff\n      and\n      0xfeaf968c\n        /* \"contracts/FundMe.sol\":639:666  priceFeed.latestRoundData() */\n      mload(0x40)\n      dup2\n      0xffffffff\n      and\n      0xe0\n      shl\n      dup2\n      mstore\n      0x04\n      add\n      0xa0\n      mload(0x40)\n      dup1\n      dup4\n      sub\n      dup2\n      dup7\n      dup1\n      extcodesize\n      iszero\n      dup1\n      iszero\n      tag_36\n      jumpi\n      0x00\n      dup1\n      revert\n    tag_36:\n      pop\n      gas\n      staticcall\n      iszero\n      dup1\n      iszero\n      tag_38\n      jumpi\n      returndatasize\n      0x00\n      dup1\n      returndatacopy\n      revert(0x00, returndatasize)\n    tag_38:\n      pop\n      pop\n      pop\n      pop\n      mload(0x40)\n      returndatasize\n      not(0x1f)\n      0x1f\n      dup3\n      add\n      and\n      dup3\n      add\n      dup1\n      0x40\n      mstore\n      pop\n      dup2\n      add\n      swap1\n      tag_39\n      swap2\n      swap1\n      tag_40\n      jump\t// in\n    tag_39:\n        /* \"contracts/FundMe.sol\":618:666  (,int256 price,,,) = priceFeed.latestRoundData() */\n      pop\n      pop\n      pop\n      swap2\n      pop\n      pop\n        /* \"contracts/FundMe.sol\":703:707  1e10 */\n      0x02540be400\n        /* \"contracts/FundMe.sol\":695:700  price */\n      dup2\n        /* \"contracts/FundMe.sol\":695:707  price * 1e10 */\n      tag_41\n      swap2\n      swap1\n      tag_42\n      jump\t// in\n    tag_41:\n        /* \"contracts/FundMe.sol\":680:708  return uint256(price * 1e10) */\n      swap3\n      pop\n      pop\n      pop\n        /* \"contracts/FundMe.sol\":449:716  function getPrice() public view returns(uint256){... */\n      swap1\n      jump\t// out\n        /* \"contracts/FundMe.sol\":193:441  function fund() public payable{... */\n    tag_22:\n        /* \"contracts/FundMe.sol\":274:280  minUsd */\n      sload(0x00)\n        /* \"contracts/FundMe.sol\":242:270  getConversionRate(msg.value) */\n      tag_44\n        /* \"contracts/FundMe.sol\":260:269  msg.value */\n      callvalue\n        /* \"contracts/FundMe.sol\":242:259  getConversionRate */\n      tag_15\n        /* \"contracts/FundMe.sol\":242:270  getConversionRate(msg.value) */\n      jump\t// in\n    tag_44:\n        /* \"contracts/FundMe.sol\":242:280  getConversionRate(msg.value) >= minUsd */\n      lt\n      iszero\n        /* \"contracts/FundMe.sol\":234:303  require(getConversionRate(msg.value) >= minUsd, \"Didn't enugh money\") */\n      tag_45\n      jumpi\n      mload(0x40)\n      0x08c379a000000000000000000000000000000000000000000000000000000000\n      dup2\n      mstore\n      0x04\n      add\n      tag_46\n      swap1\n      tag_47\n      jump\t// in\n    tag_46:\n      mload(0x40)\n      dup1\n      swap2\n      sub\n      swap1\n      revert\n    tag_45:\n        /* \"contracts/FundMe.sol\":193:441  function fund() public payable{... */\n      jump\t// out\n        /* \"#utility.yul\":7:84   */\n    tag_48:\n        /* \"#utility.yul\":44:51   */\n      0x00\n        /* \"#utility.yul\":73:78   */\n      dup2\n        /* \"#utility.yul\":62:78   */\n      swap1\n      pop\n        /* \"#utility.yul\":7:84   */\n      swap2\n      swap1\n      pop\n      jump\t// out\n        /* \"#utility.yul\":90:208   */\n    tag_49:\n        /* \"#utility.yul\":177:201   */\n      tag_70\n        /* \"#utility.yul\":195:200   */\n      dup2\n        /* \"#utility.yul\":177:201   */\n      tag_48\n      jump\t// in\n    tag_70:\n        /* \"#utility.yul\":172:175   */\n      dup3\n        /* \"#utility.yul\":165:202   */\n      mstore\n        /* \"#utility.yul\":90:208   */\n      pop\n      pop\n      jump\t// out\n        /* \"#utility.yul\":214:436   */\n    tag_10:\n        /* \"#utility.yul\":307:311   */\n      0x00\n        /* \"#utility.yul\":345:347   */\n      0x20\n        /* \"#utility.yul\":334:343   */\n      dup3\n        /* \"#utility.yul\":330:348   */\n      add\n        /* \"#utility.yul\":322:348   */\n      swap1\n      pop\n        /* \"#utility.yul\":358:429   */\n      tag_72\n        /* \"#utility.yul\":426:427   */\n      0x00\n        /* \"#utility.yul\":415:424   */\n      dup4\n        /* \"#utility.yul\":411:428   */\n      add\n        /* \"#utility.yul\":402:408   */\n      dup5\n        /* \"#utility.yul\":358:429   */\n      tag_49\n      jump\t// in\n    tag_72:\n        /* \"#utility.yul\":214:436   */\n      swap3\n      swap2\n      pop\n      pop\n      jump\t// out\n        /* \"#utility.yul\":523:640   */\n    tag_51:\n        /* \"#utility.yul\":632:633   */\n      0x00\n        /* \"#utility.yul\":629:630   */\n      dup1\n        /* \"#utility.yul\":622:634   */\n      revert\n        /* \"#utility.yul\":769:891   */\n    tag_53:\n        /* \"#utility.yul\":842:866   */\n      tag_77\n        /* \"#utility.yul\":860:865   */\n      dup2\n        /* \"#utility.yul\":842:866   */\n      tag_48\n      jump\t// in\n    tag_77:\n        /* \"#utility.yul\":835:840   */\n      dup2\n        /* \"#utility.yul\":832:867   */\n      eq\n        /* \"#utility.yul\":822:885   */\n      tag_78\n      jumpi\n        /* \"#utility.yul\":881:882   */\n      0x00\n        /* \"#utility.yul\":878:879   */\n      dup1\n        /* \"#utility.yul\":871:883   */\n      revert\n        /* \"#utility.yul\":822:885   */\n    tag_78:\n        /* \"#utility.yul\":769:891   */\n      pop\n      jump\t// out\n        /* \"#utility.yul\":897:1036   */\n    tag_54:\n        /* \"#utility.yul\":943:948   */\n      0x00\n        /* \"#utility.yul\":981:987   */\n      dup2\n        /* \"#utility.yul\":968:988   */\n      calldataload\n        /* \"#utility.yul\":959:988   */\n      swap1\n      pop\n        /* \"#utility.yul\":997:1030   */\n      tag_80\n        /* \"#utility.yul\":1024:1029   */\n      dup2\n        /* \"#utility.yul\":997:1030   */\n      tag_53\n      jump\t// in\n    tag_80:\n        /* \"#utility.yul\":897:1036   */\n      swap3\n      swap2\n      pop\n      pop\n      jump\t// out\n        /* \"#utility.yul\":1042:1371   */\n    tag_14:\n        /* \"#utility.yul\":1101:1107   */\n      0x00\n        /* \"#utility.yul\":1150:1152   */\n      0x20\n        /* \"#utility.yul\":1138:1147   */\n      dup3\n        /* \"#utility.yul\":1129:1136   */\n      dup5\n        /* \"#utility.yul\":1125:1148   */\n      sub\n        /* \"#utility.yul\":1121:1153   */\n      slt\n        /* \"#utility.yul\":1118:1237   */\n      iszero\n      tag_82\n      jumpi\n        /* \"#utility.yul\":1156:1235   */\n      tag_83\n      tag_51\n      jump\t// in\n    tag_83:\n        /* \"#utility.yul\":1118:1237   */\n    tag_82:\n        /* \"#utility.yul\":1276:1277   */\n      0x00\n        /* \"#utility.yul\":1301:1354   */\n      tag_84\n        /* \"#utility.yul\":1346:1353   */\n      dup5\n        /* \"#utility.yul\":1337:1343   */\n      dup3\n        /* \"#utility.yul\":1326:1335   */\n      dup6\n        /* \"#utility.yul\":1322:1344   */\n      add\n        /* \"#utility.yul\":1301:1354   */\n      tag_54\n      jump\t// in\n    tag_84:\n        /* \"#utility.yul\":1291:1354   */\n      swap2\n      pop\n        /* \"#utility.yul\":1247:1364   */\n      pop\n        /* \"#utility.yul\":1042:1371   */\n      swap3\n      swap2\n      pop\n      pop\n      jump\t// out\n        /* \"#utility.yul\":1377:1520   */\n    tag_55:\n        /* \"#utility.yul\":1434:1439   */\n      0x00\n        /* \"#utility.yul\":1465:1471   */\n      dup2\n        /* \"#utility.yul\":1459:1472   */\n      mload\n        /* \"#utility.yul\":1450:1472   */\n      swap1\n      pop\n        /* \"#utility.yul\":1481:1514   */\n      tag_86\n        /* \"#utility.yul\":1508:1513   */\n      dup2\n        /* \"#utility.yul\":1481:1514   */\n      tag_53\n      jump\t// in\n    tag_86:\n        /* \"#utility.yul\":1377:1520   */\n      swap3\n      swap2\n      pop\n      pop\n      jump\t// out\n        /* \"#utility.yul\":1526:1877   */\n    tag_28:\n        /* \"#utility.yul\":1596:1602   */\n      0x00\n        /* \"#utility.yul\":1645:1647   */\n      0x20\n        /* \"#utility.yul\":1633:1642   */\n      dup3\n        /* \"#utility.yul\":1624:1631   */\n      dup5\n        /* \"#utility.yul\":1620:1643   */\n      sub\n        /* \"#utility.yul\":1616:1648   */\n      slt\n        /* \"#utility.yul\":1613:1732   */\n      iszero\n      tag_88\n      jumpi\n        /* \"#utility.yul\":1651:1730   */\n      tag_89\n      tag_51\n      jump\t// in\n    tag_89:\n        /* \"#utility.yul\":1613:1732   */\n    tag_88:\n        /* \"#utility.yul\":1771:1772   */\n      0x00\n        /* \"#utility.yul\":1796:1860   */\n      tag_90\n        /* \"#utility.yul\":1852:1859   */\n      dup5\n        /* \"#utility.yul\":1843:1849   */\n      dup3\n        /* \"#utility.yul\":1832:1841   */\n      dup6\n        /* \"#utility.yul\":1828:1850   */\n      add\n        /* \"#utility.yul\":1796:1860   */\n      tag_55\n      jump\t// in\n    tag_90:\n        /* \"#utility.yul\":1786:1860   */\n      swap2\n      pop\n        /* \"#utility.yul\":1742:1870   */\n      pop\n        /* \"#utility.yul\":1526:1877   */\n      swap3\n      swap2\n      pop\n      pop\n      jump\t// out\n        /* \"#utility.yul\":1883:2063   */\n    tag_56:\n        /* \"#utility.yul\":1931:2008   */\n      0x4e487b7100000000000000000000000000000000000000000000000000000000\n        /* \"#utility.yul\":1928:1929   */\n      0x00\n        /* \"#utility.yul\":1921:2009   */\n      mstore\n        /* \"#utility.yul\":2028:2032   */\n      0x11\n        /* \"#utility.yul\":2025:2026   */\n      0x04\n        /* \"#utility.yul\":2018:2033   */\n      mstore\n        /* \"#utility.yul\":2052:2056   */\n      0x24\n        /* \"#utility.yul\":2049:2050   */\n      0x00\n        /* \"#utility.yul\":2042:2057   */\n      revert\n        /* \"#utility.yul\":2069:2417   */\n    tag_32:\n        /* \"#utility.yul\":2109:2116   */\n      0x00\n        /* \"#utility.yul\":2132:2152   */\n      tag_93\n        /* \"#utility.yul\":2150:2151   */\n      dup3\n        /* \"#utility.yul\":2132:2152   */\n      tag_48\n      jump\t// in\n    tag_93:\n        /* \"#utility.yul\":2127:2152   */\n      swap2\n      pop\n        /* \"#utility.yul\":2166:2186   */\n      tag_94\n        /* \"#utility.yul\":2184:2185   */\n      dup4\n        /* \"#utility.yul\":2166:2186   */\n      tag_48\n      jump\t// in\n    tag_94:\n        /* \"#utility.yul\":2161:2186   */\n      swap3\n      pop\n        /* \"#utility.yul\":2354:2355   */\n      dup2\n        /* \"#utility.yul\":2286:2352   */\n      0xffffffffffffffffffffffffffffffffffffffffffffffffffffffffffffffff\n        /* \"#utility.yul\":2282:2356   */\n      div\n        /* \"#utility.yul\":2279:2280   */\n      dup4\n        /* \"#utility.yul\":2276:2357   */\n      gt\n        /* \"#utility.yul\":2271:2272   */\n      dup3\n        /* \"#utility.yul\":2264:2273   */\n      iszero\n        /* \"#utility.yul\":2257:2274   */\n      iszero\n        /* \"#utility.yul\":2253:2358   */\n      and\n        /* \"#utility.yul\":2250:2381   */\n      iszero\n      tag_95\n      jumpi\n        /* \"#utility.yul\":2361:2379   */\n      tag_96\n      tag_56\n      jump\t// in\n    tag_96:\n        /* \"#utility.yul\":2250:2381   */\n    tag_95:\n        /* \"#utility.yul\":2409:2410   */\n      dup3\n        /* \"#utility.yul\":2406:2407   */\n      dup3\n        /* \"#utility.yul\":2402:2411   */\n      mul\n        /* \"#utility.yul\":2391:2411   */\n      swap1\n      pop\n        /* \"#utility.yul\":2069:2417   */\n      swap3\n      swap2\n      pop\n      pop\n      jump\t// out\n        /* \"#utility.yul\":2423:2603   */\n    tag_57:\n        /* \"#utility.yul\":2471:2548   */\n      0x4e487b7100000000000000000000000000000000000000000000000000000000\n        /* \"#utility.yul\":2468:2469   */\n      0x00\n        /* \"#utility.yul\":2461:2549   */\n      mstore\n        /* \"#utility.yul\":2568:2572   */\n      0x12\n        /* \"#utility.yul\":2565:2566   */\n      0x04\n        /* \"#utility.yul\":2558:2573   */\n      mstore\n        /* \"#utility.yul\":2592:2596   */\n      0x24\n        /* \"#utility.yul\":2589:2590   */\n      0x00\n        /* \"#utility.yul\":2582:2597   */\n      revert\n        /* \"#utility.yul\":2609:2794   */\n    tag_34:\n        /* \"#utility.yul\":2649:2650   */\n      0x00\n        /* \"#utility.yul\":2666:2686   */\n      tag_99\n        /* \"#utility.yul\":2684:2685   */\n      dup3\n        /* \"#utility.yul\":2666:2686   */\n      tag_48\n      jump\t// in\n    tag_99:\n        /* \"#utility.yul\":2661:2686   */\n      swap2\n      pop\n        /* \"#utility.yul\":2700:2720   */\n      tag_100\n        /* \"#utility.yul\":2718:2719   */\n      dup4\n        /* \"#utility.yul\":2700:2720   */\n      tag_48\n      jump\t// in\n    tag_100:\n        /* \"#utility.yul\":2695:2720   */\n      swap3\n      pop\n        /* \"#utility.yul\":2739:2740   */\n      dup3\n        /* \"#utility.yul\":2729:2764   */\n      tag_101\n      jumpi\n        /* \"#utility.yul\":2744:2762   */\n      tag_102\n      tag_57\n      jump\t// in\n    tag_102:\n        /* \"#utility.yul\":2729:2764   */\n    tag_101:\n        /* \"#utility.yul\":2786:2787   */\n      dup3\n        /* \"#utility.yul\":2783:2784   */\n      dup3\n        /* \"#utility.yul\":2779:2788   */\n      div\n        /* \"#utility.yul\":2774:2788   */\n      swap1\n      pop\n        /* \"#utility.yul\":2609:2794   */\n      swap3\n      swap2\n      pop\n      pop\n      jump\t// out\n        /* \"#utility.yul\":2800:2905   */\n    tag_58:\n        /* \"#utility.yul\":2836:2843   */\n      0x00\n        /* \"#utility.yul\":2876:2898   */\n      0xffffffffffffffffffff\n        /* \"#utility.yul\":2869:2874   */\n      dup3\n        /* \"#utility.yul\":2865:2899   */\n      and\n        /* \"#utility.yul\":2854:2899   */\n      swap1\n      pop\n        /* \"#utility.yul\":2800:2905   */\n      swap2\n      swap1\n      pop\n      jump\t// out\n        /* \"#utility.yul\":2911:3031   */\n    tag_59:\n        /* \"#utility.yul\":2983:3006   */\n      tag_105\n        /* \"#utility.yul\":3000:3005   */\n      dup2\n        /* \"#utility.yul\":2983:3006   */\n      tag_58\n      jump\t// in\n    tag_105:\n        /* \"#utility.yul\":2976:2981   */\n      dup2\n        /* \"#utility.yul\":2973:3007   */\n      eq\n        /* \"#utility.yul\":2963:3025   */\n      tag_106\n      jumpi\n        /* \"#utility.yul\":3021:3022   */\n      0x00\n        /* \"#utility.yul\":3018:3019   */\n      dup1\n        /* \"#utility.yul\":3011:3023   */\n      revert\n        /* \"#utility.yul\":2963:3025   */\n    tag_106:\n        /* \"#utility.yul\":2911:3031   */\n      pop\n      jump\t// out\n        /* \"#utility.yul\":3037:3178   */\n    tag_60:\n        /* \"#utility.yul\":3093:3098   */\n      0x00\n        /* \"#utility.yul\":3124:3130   */\n      dup2\n        /* \"#utility.yul\":3118:3131   */\n      mload\n        /* \"#utility.yul\":3109:3131   */\n      swap1\n      pop\n        /* \"#utility.yul\":3140:3172   */\n      tag_108\n        /* \"#utility.yul\":3166:3171   */\n      dup2\n        /* \"#utility.yul\":3140:3172   */\n      tag_59\n      jump\t// in\n    tag_108:\n        /* \"#utility.yul\":3037:3178   */\n      swap3\n      swap2\n      pop\n      pop\n      jump\t// out\n        /* \"#utility.yul\":3184:3260   */\n    tag_61:\n        /* \"#utility.yul\":3220:3227   */\n      0x00\n        /* \"#utility.yul\":3249:3254   */\n      dup2\n        /* \"#utility.yul\":3238:3254   */\n      swap1\n      pop\n        /* \"#utility.yul\":3184:3260   */\n      swap2\n      swap1\n      pop\n      jump\t// out\n        /* \"#utility.yul\":3266:3386   */\n    tag_62:\n        /* \"#utility.yul\":3338:3361   */\n      tag_111\n        /* \"#utility.yul\":3355:3360   */\n      dup2\n        /* \"#utility.yul\":3338:3361   */\n      tag_61\n      jump\t// in\n    tag_111:\n        /* \"#utility.yul\":3331:3336   */\n      dup2\n        /* \"#utility.yul\":3328:3362   */\n      eq\n        /* \"#utility.yul\":3318:3380   */\n      tag_112\n      jumpi\n        /* \"#utility.yul\":3376:3377   */\n      0x00\n        /* \"#utility.yul\":3373:3374   */\n      dup1\n        /* \"#utility.yul\":3366:3378   */\n      revert\n        /* \"#utility.yul\":3318:3380   */\n    tag_112:\n        /* \"#utility.yul\":3266:3386   */\n      pop\n      jump\t// out\n        /* \"#utility.yul\":3392:3533   */\n    tag_63:\n        /* \"#utility.yul\":3448:3453   */\n      0x00\n        /* \"#utility.yul\":3479:3485   */\n      dup2\n        /* \"#utility.yul\":3473:3486   */\n      mload\n        /* \"#utility.yul\":3464:3486   */\n      swap1\n      pop\n        /* \"#utility.yul\":3495:3527   */\n      tag_114\n        /* \"#utility.yul\":3521:3526   */\n      dup2\n        /* \"#utility.yul\":3495:3527   */\n      tag_62\n      jump\t// in\n    tag_114:\n        /* \"#utility.yul\":3392:3533   */\n      swap3\n      swap2\n      pop\n      pop\n      jump\t// out\n        /* \"#utility.yul\":3539:4510   */\n    tag_40:\n        /* \"#utility.yul\":3642:3648   */\n      0x00\n        /* \"#utility.yul\":3650:3656   */\n      dup1\n        /* \"#utility.yul\":3658:3664   */\n      0x00\n        /* \"#utility.yul\":3666:3672   */\n      dup1\n        /* \"#utility.yul\":3674:3680   */\n      0x00\n        /* \"#utility.yul\":3723:3726   */\n      0xa0\n        /* \"#utility.yul\":3711:3720   */\n      dup7\n        /* \"#utility.yul\":3702:3709   */\n      dup9\n        /* \"#utility.yul\":3698:3721   */\n      sub\n        /* \"#utility.yul\":3694:3727   */\n      slt\n        /* \"#utility.yul\":3691:3811   */\n      iszero\n      tag_116\n      jumpi\n        /* \"#utility.yul\":3730:3809   */\n      tag_117\n      tag_51\n      jump\t// in\n    tag_117:\n        /* \"#utility.yul\":3691:3811   */\n    tag_116:\n        /* \"#utility.yul\":3850:3851   */\n      0x00\n        /* \"#utility.yul\":3875:3938   */\n      tag_118\n        /* \"#utility.yul\":3930:3937   */\n      dup9\n        /* \"#utility.yul\":3921:3927   */\n      dup3\n        /* \"#utility.yul\":3910:3919   */\n      dup10\n        /* \"#utility.yul\":3906:3928   */\n      add\n        /* \"#utility.yul\":3875:3938   */\n      tag_60\n      jump\t// in\n    tag_118:\n        /* \"#utility.yul\":3865:3938   */\n      swap6\n      pop\n        /* \"#utility.yul\":3821:3948   */\n      pop\n        /* \"#utility.yul\":3987:3989   */\n      0x20\n        /* \"#utility.yul\":4013:4076   */\n      tag_119\n        /* \"#utility.yul\":4068:4075   */\n      dup9\n        /* \"#utility.yul\":4059:4065   */\n      dup3\n        /* \"#utility.yul\":4048:4057   */\n      dup10\n        /* \"#utility.yul\":4044:4066   */\n      add\n        /* \"#utility.yul\":4013:4076   */\n      tag_63\n      jump\t// in\n    tag_119:\n        /* \"#utility.yul\":4003:4076   */\n      swap5\n      pop\n        /* \"#utility.yul\":3958:4086   */\n      pop\n        /* \"#utility.yul\":4125:4127   */\n      0x40\n        /* \"#utility.yul\":4151:4215   */\n      tag_120\n        /* \"#utility.yul\":4207:4214   */\n      dup9\n        /* \"#utility.yul\":4198:4204   */\n      dup3\n        /* \"#utility.yul\":4187:4196   */\n      dup10\n        /* \"#utility.yul\":4183:4205   */\n      add\n        /* \"#utility.yul\":4151:4215   */\n      tag_55\n      jump\t// in\n    tag_120:\n        /* \"#utility.yul\":4141:4215   */\n      swap4\n      pop\n        /* \"#utility.yul\":4096:4225   */\n      pop\n        /* \"#utility.yul\":4264:4266   */\n      0x60\n        /* \"#utility.yul\":4290:4354   */\n      tag_121\n        /* \"#utility.yul\":4346:4353   */\n      dup9\n        /* \"#utility.yul\":4337:4343   */\n      dup3\n        /* \"#utility.yul\":4326:4335   */\n      dup10\n        /* \"#utility.yul\":4322:4344   */\n      add\n        /* \"#utility.yul\":4290:4354   */\n      tag_55\n      jump\t// in\n    tag_121:\n        /* \"#utility.yul\":4280:4354   */\n      swap3\n      pop\n        /* \"#utility.yul\":4235:4364   */\n      pop\n        /* \"#utility.yul\":4403:4406   */\n      0x80\n        /* \"#utility.yul\":4430:4493   */\n      tag_122\n        /* \"#utility.yul\":4485:4492   */\n      dup9\n        /* \"#utility.yul\":4476:4482   */\n      dup3\n        /* \"#utility.yul\":4465:4474   */\n      dup10\n        /* \"#utility.yul\":4461:4483   */\n      add\n        /* \"#utility.yul\":4430:4493   */\n      tag_60\n      jump\t// in\n    tag_122:\n        /* \"#utility.yul\":4420:4493   */\n      swap2\n      pop\n        /* \"#utility.yul\":4374:4503   */\n      pop\n        /* \"#utility.yul\":3539:4510   */\n      swap3\n      swap6\n      pop\n      swap3\n      swap6\n      swap1\n      swap4\n      pop\n      jump\t// out\n        /* \"#utility.yul\":4516:5507   */\n    tag_42:\n        /* \"#utility.yul\":4555:4562   */\n      0x00\n        /* \"#utility.yul\":4578:4597   */\n      tag_124\n        /* \"#utility.yul\":4595:4596   */\n      dup3\n        /* \"#utility.yul\":4578:4597   */\n      tag_61\n      jump\t// in\n    tag_124:\n        /* \"#utility.yul\":4573:4597   */\n      swap2\n      pop\n        /* \"#utility.yul\":4611:4630   */\n      tag_125\n        /* \"#utility.yul\":4628:4629   */\n      dup4\n        /* \"#utility.yul\":4611:4630   */\n      tag_61\n      jump\t// in\n    tag_125:\n        /* \"#utility.yul\":4606:4630   */\n      swap3\n      pop\n        /* \"#utility.yul\":4812:4813   */\n      dup3\n        /* \"#utility.yul\":4744:4810   */\n      0x7fffffffffffffffffffffffffffffffffffffffffffffffffffffffffffffff\n        /* \"#utility.yul\":4740:4814   */\n      div\n        /* \"#utility.yul\":4737:4738   */\n      dup3\n        /* \"#utility.yul\":4734:4815   */\n      gt\n        /* \"#utility.yul\":4729:4730   */\n      0x00\n        /* \"#utility.yul\":4726:4727   */\n      dup5\n        /* \"#utility.yul\":4722:4731   */\n      sgt\n        /* \"#utility.yul\":4718:4719   */\n      0x00\n        /* \"#utility.yul\":4715:4716   */\n      dup5\n        /* \"#utility.yul\":4711:4720   */\n      sgt\n        /* \"#utility.yul\":4707:4732   */\n      and\n        /* \"#utility.yul\":4703:4816   */\n      and\n        /* \"#utility.yul\":4700:4839   */\n      iszero\n      tag_126\n      jumpi\n        /* \"#utility.yul\":4819:4837   */\n      tag_127\n      tag_56\n      jump\t// in\n    tag_127:\n        /* \"#utility.yul\":4700:4839   */\n    tag_126:\n        /* \"#utility.yul\":5023:5024   */\n      dup2\n        /* \"#utility.yul\":4955:5021   */\n      0x8000000000000000000000000000000000000000000000000000000000000000\n        /* \"#utility.yul\":4950:5025   */\n      sdiv\n        /* \"#utility.yul\":4947:4948   */\n      dup4\n        /* \"#utility.yul\":4943:5026   */\n      slt\n        /* \"#utility.yul\":4938:4939   */\n      0x00\n        /* \"#utility.yul\":4935:4936   */\n      dup5\n        /* \"#utility.yul\":4931:4940   */\n      slt\n        /* \"#utility.yul\":4927:4928   */\n      0x00\n        /* \"#utility.yul\":4924:4925   */\n      dup5\n        /* \"#utility.yul\":4920:4929   */\n      sgt\n        /* \"#utility.yul\":4916:4941   */\n      and\n        /* \"#utility.yul\":4912:5027   */\n      and\n        /* \"#utility.yul\":4909:5050   */\n      iszero\n      tag_128\n      jumpi\n        /* \"#utility.yul\":5030:5048   */\n      tag_129\n      tag_56\n      jump\t// in\n    tag_129:\n        /* \"#utility.yul\":4909:5050   */\n    tag_128:\n        /* \"#utility.yul\":5234:5235   */\n      dup3\n        /* \"#utility.yul\":5166:5232   */\n      0x8000000000000000000000000000000000000000000000000000000000000000\n        /* \"#utility.yul\":5161:5236   */\n      sdiv\n        /* \"#utility.yul\":5158:5159   */\n      dup3\n        /* \"#utility.yul\":5154:5237   */\n      slt\n        /* \"#utility.yul\":5149:5150   */\n      0x00\n        /* \"#utility.yul\":5146:5147   */\n      dup5\n        /* \"#utility.yul\":5142:5151   */\n      sgt\n        /* \"#utility.yul\":5138:5139   */\n      0x00\n        /* \"#utility.yul\":5135:5136   */\n      dup5\n        /* \"#utility.yul\":5131:5140   */\n      slt\n        /* \"#utility.yul\":5127:5152   */\n      and\n        /* \"#utility.yul\":5123:5238   */\n      and\n        /* \"#utility.yul\":5120:5261   */\n      iszero\n      tag_130\n      jumpi\n        /* \"#utility.yul\":5241:5259   */\n      tag_131\n      tag_56\n      jump\t// in\n    tag_131:\n        /* \"#utility.yul\":5120:5261   */\n    tag_130:\n        /* \"#utility.yul\":5444:5445   */\n      dup3\n        /* \"#utility.yul\":5376:5442   */\n      0x7fffffffffffffffffffffffffffffffffffffffffffffffffffffffffffffff\n        /* \"#utility.yul\":5371:5446   */\n      sdiv\n        /* \"#utility.yul\":5368:5369   */\n      dup3\n        /* \"#utility.yul\":5364:5447   */\n      slt\n        /* \"#utility.yul\":5359:5360   */\n      0x00\n        /* \"#utility.yul\":5356:5357   */\n      dup5\n        /* \"#utility.yul\":5352:5361   */\n      slt\n        /* \"#utility.yul\":5348:5349   */\n      0x00\n        /* \"#utility.yul\":5345:5346   */\n      dup5\n        /* \"#utility.yul\":5341:5350   */\n      slt\n        /* \"#utility.yul\":5337:5362   */\n      and\n        /* \"#utility.yul\":5333:5448   */\n      and\n        /* \"#utility.yul\":5330:5471   */\n      iszero\n      tag_132\n      jumpi\n        /* \"#utility.yul\":5451:5469   */\n      tag_133\n      tag_56\n      jump\t// in\n    tag_133:\n        /* \"#utility.yul\":5330:5471   */\n    tag_132:\n        /* \"#utility.yul\":5499:5500   */\n      dup3\n        /* \"#utility.yul\":5496:5497   */\n      dup3\n        /* \"#utility.yul\":5492:5501   */\n      mul\n        /* \"#utility.yul\":5481:5501   */\n      swap1\n      pop\n        /* \"#utility.yul\":4516:5507   */\n      swap3\n      swap2\n      pop\n      pop\n      jump\t// out\n        /* \"#utility.yul\":5513:5682   */\n    tag_64:\n        /* \"#utility.yul\":5597:5608   */\n      0x00\n        /* \"#utility.yul\":5631:5637   */\n      dup3\n        /* \"#utility.yul\":5626:5629   */\n      dup3\n        /* \"#utility.yul\":5619:5638   */\n      mstore\n        /* \"#utility.yul\":5671:5675   */\n      0x20\n        /* \"#utility.yul\":5666:5669   */\n      dup3\n        /* \"#utility.yul\":5662:5676   */\n      add\n        /* \"#utility.yul\":5647:5676   */\n      swap1\n      pop\n        /* \"#utility.yul\":5513:5682   */\n      swap3\n      swap2\n      pop\n      pop\n      jump\t// out\n        /* \"#utility.yul\":5688:5856   */\n    tag_65:\n        /* \"#utility.yul\":5828:5848   */\n      0x4469646e277420656e756768206d6f6e65790000000000000000000000000000\n        /* \"#utility.yul\":5824:5825   */\n      0x00\n        /* \"#utility.yul\":5816:5822   */\n      dup3\n        /* \"#utility.yul\":5812:5826   */\n      add\n        /* \"#utility.yul\":5805:5849   */\n      mstore\n        /* \"#utility.yul\":5688:5856   */\n      pop\n      jump\t// out\n        /* \"#utility.yul\":5862:6228   */\n    tag_66:\n        /* \"#utility.yul\":6004:6007   */\n      0x00\n        /* \"#utility.yul\":6025:6092   */\n      tag_137\n        /* \"#utility.yul\":6089:6091   */\n      0x12\n        /* \"#utility.yul\":6084:6087   */\n      dup4\n        /* \"#utility.yul\":6025:6092   */\n      tag_64\n      jump\t// in\n    tag_137:\n        /* \"#utility.yul\":6018:6092   */\n      swap2\n      pop\n        /* \"#utility.yul\":6101:6194   */\n      tag_138\n        /* \"#utility.yul\":6190:6193   */\n      dup3\n        /* \"#utility.yul\":6101:6194   */\n      tag_65\n      jump\t// in\n    tag_138:\n        /* \"#utility.yul\":6219:6221   */\n      0x20\n        /* \"#utility.yul\":6214:6217   */\n      dup3\n        /* \"#utility.yul\":6210:6222   */\n      add\n        /* \"#utility.yul\":6203:6222   */\n      swap1\n      pop\n        /* \"#utility.yul\":5862:6228   */\n      swap2\n      swap1\n      pop\n      jump\t// out\n        /* \"#utility.yul\":6234:6653   */\n    tag_47:\n        /* \"#utility.yul\":6400:6404   */\n      0x00\n        /* \"#utility.yul\":6438:6440   */\n      0x20\n        /* \"#utility.yul\":6427:6436   */\n      dup3\n        /* \"#utility.yul\":6423:6441   */\n      add\n        /* \"#utility.yul\":6415:6441   */\n      swap1\n      pop\n        /* \"#utility.yul\":6487:6496   */\n      dup2\n        /* \"#utility.yul\":6481:6485   */\n      dup2\n        /* \"#utility.yul\":6477:6497   */\n      sub\n        /* \"#utility.yul\":6473:6474   */\n      0x00\n        /* \"#utility.yul\":6462:6471   */\n      dup4\n        /* \"#utility.yul\":6458:6475   */\n      add\n        /* \"#utility.yul\":6451:6498   */\n      mstore\n        /* \"#utility.yul\":6515:6646   */\n      tag_140\n        /* \"#utility.yul\":6641:6645   */\n      dup2\n        /* \"#utility.yul\":6515:6646   */\n      tag_66\n      jump\t// in\n    tag_140:\n        /* \"#utility.yul\":6507:6646   */\n      swap1\n      pop\n        /* \"#utility.yul\":6234:6653   */\n      swap2\n      swap1\n      pop\n      jump\t// out\n\n    auxdata: 0xa264697066735822122009dd68ed9d7d3e87a47abda6be13638ba15d91829a02fdce225650af4c32eeb764736f6c63430008080033\n}\n",
				"bytecode": {
					"linkReferences": {},
					"object": "6080604052603260005534801561001557600080fd5b5061073a806100256000396000f3fe60806040526004361061003f5760003560e01c80630d8e6e2c146100445780636e5b6b281461006f57806398d5fdca146100ac578063b60d4288146100d7575b600080fd5b34801561005057600080fd5b506100596100e1565b60405161006691906102d9565b60405180910390f35b34801561007b57600080fd5b5061009660048036038101906100919190610325565b61017f565b6040516100a391906102d9565b60405180910390f35b3480156100b857600080fd5b506100c16101b9565b6040516100ce91906102d9565b60405180910390f35b6100df610271565b005b60008073d4a33860578de61dbabdc8bfdb98fd742fa7028e90508073ffffffffffffffffffffffffffffffffffffffff166354fd4d506040518163ffffffff1660e01b815260040160206040518083038186803b15801561014157600080fd5b505afa158015610155573d6000803e3d6000fd5b505050506040513d601f19601f820116820180604052508101906101799190610367565b91505090565b60008061018a6101b9565b90506000670de0b6b3a764000084836101a391906103c3565b6101ad919061044c565b90508092505050919050565b60008073d4a33860578de61dbabdc8bfdb98fd742fa7028e905060008173ffffffffffffffffffffffffffffffffffffffff1663feaf968c6040518163ffffffff1660e01b815260040160a06040518083038186803b15801561021b57600080fd5b505afa15801561022f573d6000803e3d6000fd5b505050506040513d601f19601f8201168201806040525081019061025391906104f5565b5050509150506402540be4008161026a9190610570565b9250505090565b60005461027d3461017f565b10156102be576040517f08c379a00000000000000000000000000000000000000000000000000000000081526004016102b5906106e4565b60405180910390fd5b565b6000819050919050565b6102d3816102c0565b82525050565b60006020820190506102ee60008301846102ca565b92915050565b600080fd5b610302816102c0565b811461030d57600080fd5b50565b60008135905061031f816102f9565b92915050565b60006020828403121561033b5761033a6102f4565b5b600061034984828501610310565b91505092915050565b600081519050610361816102f9565b92915050565b60006020828403121561037d5761037c6102f4565b5b600061038b84828501610352565b91505092915050565b7f4e487b7100000000000000000000000000000000000000000000000000000000600052601160045260246000fd5b60006103ce826102c0565b91506103d9836102c0565b9250817fffffffffffffffffffffffffffffffffffffffffffffffffffffffffffffffff048311821515161561041257610411610394565b5b828202905092915050565b7f4e487b7100000000000000000000000000000000000000000000000000000000600052601260045260246000fd5b6000610457826102c0565b9150610462836102c0565b9250826104725761047161041d565b5b828204905092915050565b600069ffffffffffffffffffff82169050919050565b61049c8161047d565b81146104a757600080fd5b50565b6000815190506104b981610493565b92915050565b6000819050919050565b6104d2816104bf565b81146104dd57600080fd5b50565b6000815190506104ef816104c9565b92915050565b600080600080600060a08688031215610511576105106102f4565b5b600061051f888289016104aa565b9550506020610530888289016104e0565b945050604061054188828901610352565b935050606061055288828901610352565b9250506080610563888289016104aa565b9150509295509295909350565b600061057b826104bf565b9150610586836104bf565b9250827f7fffffffffffffffffffffffffffffffffffffffffffffffffffffffffffffff04821160008413600084131616156105c5576105c4610394565b5b817f8000000000000000000000000000000000000000000000000000000000000000058312600084126000841316161561060257610601610394565b5b827f8000000000000000000000000000000000000000000000000000000000000000058212600084136000841216161561063f5761063e610394565b5b827f7fffffffffffffffffffffffffffffffffffffffffffffffffffffffffffffff058212600084126000841216161561067c5761067b610394565b5b828202905092915050565b600082825260208201905092915050565b7f4469646e277420656e756768206d6f6e65790000000000000000000000000000600082015250565b60006106ce601283610687565b91506106d982610698565b602082019050919050565b600060208201905081810360008301526106fd816106c1565b905091905056fea264697066735822122009dd68ed9d7d3e87a47abda6be13638ba15d91829a02fdce225650af4c32eeb764736f6c63430008080033",
					"opcodes": "PUSH1 0x80 PUSH1 0x40 MSTORE PUSH1 0x32 PUSH1 0x0 SSTORE CALLVALUE DUP1 ISZERO PUSH2 0x15 JUMPI PUSH1 0x0 DUP1 REVERT JUMPDEST POP PUSH2 0x73A DUP1 PUSH2 0x25 PUSH1 0x0 CODECOPY PUSH1 0x0 RETURN INVALID PUSH1 0x80 PUSH1 0x40 MSTORE PUSH1 0x4 CALLDATASIZE LT PUSH2 0x3F JUMPI PUSH1 0x0 CALLDATALOAD PUSH1 0xE0 SHR DUP1 PUSH4 0xD8E6E2C EQ PUSH2 0x44 JUMPI DUP1 PUSH4 0x6E5B6B28 EQ PUSH2 0x6F JUMPI DUP1 PUSH4 0x98D5FDCA EQ PUSH2 0xAC JUMPI DUP1 PUSH4 0xB60D4288 EQ PUSH2 0xD7 JUMPI JUMPDEST PUSH1 0x0 DUP1 REVERT JUMPDEST CALLVALUE DUP1 ISZERO PUSH2 0x50 JUMPI PUSH1 0x0 DUP1 REVERT JUMPDEST POP PUSH2 0x59 PUSH2 0xE1 JUMP JUMPDEST PUSH1 0x40 MLOAD PUSH2 0x66 SWAP2 SWAP1 PUSH2 0x2D9 JUMP JUMPDEST PUSH1 0x40 MLOAD DUP1 SWAP2 SUB SWAP1 RETURN JUMPDEST CALLVALUE DUP1 ISZERO PUSH2 0x7B JUMPI PUSH1 0x0 DUP1 REVERT JUMPDEST POP PUSH2 0x96 PUSH1 0x4 DUP1 CALLDATASIZE SUB DUP2 ADD SWAP1 PUSH2 0x91 SWAP2 SWAP1 PUSH2 0x325 JUMP JUMPDEST PUSH2 0x17F JUMP JUMPDEST PUSH1 0x40 MLOAD PUSH2 0xA3 SWAP2 SWAP1 PUSH2 0x2D9 JUMP JUMPDEST PUSH1 0x40 MLOAD DUP1 SWAP2 SUB SWAP1 RETURN JUMPDEST CALLVALUE DUP1 ISZERO PUSH2 0xB8 JUMPI PUSH1 0x0 DUP1 REVERT JUMPDEST POP PUSH2 0xC1 PUSH2 0x1B9 JUMP JUMPDEST PUSH1 0x40 MLOAD PUSH2 0xCE SWAP2 SWAP1 PUSH2 0x2D9 JUMP JUMPDEST PUSH1 0x40 MLOAD DUP1 SWAP2 SUB SWAP1 RETURN JUMPDEST PUSH2 0xDF PUSH2 0x271 JUMP JUMPDEST STOP JUMPDEST PUSH1 0x0 DUP1 PUSH20 0xD4A33860578DE61DBABDC8BFDB98FD742FA7028E SWAP1 POP DUP1 PUSH20 0xFFFFFFFFFFFFFFFFFFFFFFFFFFFFFFFFFFFFFFFF AND PUSH4 0x54FD4D50 PUSH1 0x40 MLOAD DUP2 PUSH4 0xFFFFFFFF AND PUSH1 0xE0 SHL DUP2 MSTORE PUSH1 0x4 ADD PUSH1 0x20 PUSH1 0x40 MLOAD DUP1 DUP4 SUB DUP2 DUP7 DUP1 EXTCODESIZE ISZERO DUP1 ISZERO PUSH2 0x141 JUMPI PUSH1 0x0 DUP1 REVERT JUMPDEST POP GAS STATICCALL ISZERO DUP1 ISZERO PUSH2 0x155 JUMPI RETURNDATASIZE PUSH1 0x0 DUP1 RETURNDATACOPY RETURNDATASIZE PUSH1 0x0 REVERT JUMPDEST POP POP POP POP PUSH1 0x40 MLOAD RETURNDATASIZE PUSH1 0x1F NOT PUSH1 0x1F DUP3 ADD AND DUP3 ADD DUP1 PUSH1 0x40 MSTORE POP DUP2 ADD SWAP1 PUSH2 0x179 SWAP2 SWAP1 PUSH2 0x367 JUMP JUMPDEST SWAP2 POP POP SWAP1 JUMP JUMPDEST PUSH1 0x0 DUP1 PUSH2 0x18A PUSH2 0x1B9 JUMP JUMPDEST SWAP1 POP PUSH1 0x0 PUSH8 0xDE0B6B3A7640000 DUP5 DUP4 PUSH2 0x1A3 SWAP2 SWAP1 PUSH2 0x3C3 JUMP JUMPDEST PUSH2 0x1AD SWAP2 SWAP1 PUSH2 0x44C JUMP JUMPDEST SWAP1 POP DUP1 SWAP3 POP POP POP SWAP2 SWAP1 POP JUMP JUMPDEST PUSH1 0x0 DUP1 PUSH20 0xD4A33860578DE61DBABDC8BFDB98FD742FA7028E SWAP1 POP PUSH1 0x0 DUP2 PUSH20 0xFFFFFFFFFFFFFFFFFFFFFFFFFFFFFFFFFFFFFFFF AND PUSH4 0xFEAF968C PUSH1 0x40 MLOAD DUP2 PUSH4 0xFFFFFFFF AND PUSH1 0xE0 SHL DUP2 MSTORE PUSH1 0x4 ADD PUSH1 0xA0 PUSH1 0x40 MLOAD DUP1 DUP4 SUB DUP2 DUP7 DUP1 EXTCODESIZE ISZERO DUP1 ISZERO PUSH2 0x21B JUMPI PUSH1 0x0 DUP1 REVERT JUMPDEST POP GAS STATICCALL ISZERO DUP1 ISZERO PUSH2 0x22F JUMPI RETURNDATASIZE PUSH1 0x0 DUP1 RETURNDATACOPY RETURNDATASIZE PUSH1 0x0 REVERT JUMPDEST POP POP POP POP PUSH1 0x40 MLOAD RETURNDATASIZE PUSH1 0x1F NOT PUSH1 0x1F DUP3 ADD AND DUP3 ADD DUP1 PUSH1 0x40 MSTORE POP DUP2 ADD SWAP1 PUSH2 0x253 SWAP2 SWAP1 PUSH2 0x4F5 JUMP JUMPDEST POP POP POP SWAP2 POP POP PUSH5 0x2540BE400 DUP2 PUSH2 0x26A SWAP2 SWAP1 PUSH2 0x570 JUMP JUMPDEST SWAP3 POP POP POP SWAP1 JUMP JUMPDEST PUSH1 0x0 SLOAD PUSH2 0x27D CALLVALUE PUSH2 0x17F JUMP JUMPDEST LT ISZERO PUSH2 0x2BE JUMPI PUSH1 0x40 MLOAD PUSH32 0x8C379A000000000000000000000000000000000000000000000000000000000 DUP2 MSTORE PUSH1 0x4 ADD PUSH2 0x2B5 SWAP1 PUSH2 0x6E4 JUMP JUMPDEST PUSH1 0x40 MLOAD DUP1 SWAP2 SUB SWAP1 REVERT JUMPDEST JUMP JUMPDEST PUSH1 0x0 DUP2 SWAP1 POP SWAP2 SWAP1 POP JUMP JUMPDEST PUSH2 0x2D3 DUP2 PUSH2 0x2C0 JUMP JUMPDEST DUP3 MSTORE POP POP JUMP JUMPDEST PUSH1 0x0 PUSH1 0x20 DUP3 ADD SWAP1 POP PUSH2 0x2EE PUSH1 0x0 DUP4 ADD DUP5 PUSH2 0x2CA JUMP JUMPDEST SWAP3 SWAP2 POP POP JUMP JUMPDEST PUSH1 0x0 DUP1 REVERT JUMPDEST PUSH2 0x302 DUP2 PUSH2 0x2C0 JUMP JUMPDEST DUP2 EQ PUSH2 0x30D JUMPI PUSH1 0x0 DUP1 REVERT JUMPDEST POP JUMP JUMPDEST PUSH1 0x0 DUP2 CALLDATALOAD SWAP1 POP PUSH2 0x31F DUP2 PUSH2 0x2F9 JUMP JUMPDEST SWAP3 SWAP2 POP POP JUMP JUMPDEST PUSH1 0x0 PUSH1 0x20 DUP3 DUP5 SUB SLT ISZERO PUSH2 0x33B JUMPI PUSH2 0x33A PUSH2 0x2F4 JUMP JUMPDEST JUMPDEST PUSH1 0x0 PUSH2 0x349 DUP5 DUP3 DUP6 ADD PUSH2 0x310 JUMP JUMPDEST SWAP2 POP POP SWAP3 SWAP2 POP POP JUMP JUMPDEST PUSH1 0x0 DUP2 MLOAD SWAP1 POP PUSH2 0x361 DUP2 PUSH2 0x2F9 JUMP JUMPDEST SWAP3 SWAP2 POP POP JUMP JUMPDEST PUSH1 0x0 PUSH1 0x20 DUP3 DUP5 SUB SLT ISZERO PUSH2 0x37D JUMPI PUSH2 0x37C PUSH2 0x2F4 JUMP JUMPDEST JUMPDEST PUSH1 0x0 PUSH2 0x38B DUP5 DUP3 DUP6 ADD PUSH2 0x352 JUMP JUMPDEST SWAP2 POP POP SWAP3 SWAP2 POP POP JUMP JUMPDEST PUSH32 0x4E487B7100000000000000000000000000000000000000000000000000000000 PUSH1 0x0 MSTORE PUSH1 0x11 PUSH1 0x4 MSTORE PUSH1 0x24 PUSH1 0x0 REVERT JUMPDEST PUSH1 0x0 PUSH2 0x3CE DUP3 PUSH2 0x2C0 JUMP JUMPDEST SWAP2 POP PUSH2 0x3D9 DUP4 PUSH2 0x2C0 JUMP JUMPDEST SWAP3 POP DUP2 PUSH32 0xFFFFFFFFFFFFFFFFFFFFFFFFFFFFFFFFFFFFFFFFFFFFFFFFFFFFFFFFFFFFFFFF DIV DUP4 GT DUP3 ISZERO ISZERO AND ISZERO PUSH2 0x412 JUMPI PUSH2 0x411 PUSH2 0x394 JUMP JUMPDEST JUMPDEST DUP3 DUP3 MUL SWAP1 POP SWAP3 SWAP2 POP POP JUMP JUMPDEST PUSH32 0x4E487B7100000000000000000000000000000000000000000000000000000000 PUSH1 0x0 MSTORE PUSH1 0x12 PUSH1 0x4 MSTORE PUSH1 0x24 PUSH1 0x0 REVERT JUMPDEST PUSH1 0x0 PUSH2 0x457 DUP3 PUSH2 0x2C0 JUMP JUMPDEST SWAP2 POP PUSH2 0x462 DUP4 PUSH2 0x2C0 JUMP JUMPDEST SWAP3 POP DUP3 PUSH2 0x472 JUMPI PUSH2 0x471 PUSH2 0x41D JUMP JUMPDEST JUMPDEST DUP3 DUP3 DIV SWAP1 POP SWAP3 SWAP2 POP POP JUMP JUMPDEST PUSH1 0x0 PUSH10 0xFFFFFFFFFFFFFFFFFFFF DUP3 AND SWAP1 POP SWAP2 SWAP1 POP JUMP JUMPDEST PUSH2 0x49C DUP2 PUSH2 0x47D JUMP JUMPDEST DUP2 EQ PUSH2 0x4A7 JUMPI PUSH1 0x0 DUP1 REVERT JUMPDEST POP JUMP JUMPDEST PUSH1 0x0 DUP2 MLOAD SWAP1 POP PUSH2 0x4B9 DUP2 PUSH2 0x493 JUMP JUMPDEST SWAP3 SWAP2 POP POP JUMP JUMPDEST PUSH1 0x0 DUP2 SWAP1 POP SWAP2 SWAP1 POP JUMP JUMPDEST PUSH2 0x4D2 DUP2 PUSH2 0x4BF JUMP JUMPDEST DUP2 EQ PUSH2 0x4DD JUMPI PUSH1 0x0 DUP1 REVERT JUMPDEST POP JUMP JUMPDEST PUSH1 0x0 DUP2 MLOAD SWAP1 POP PUSH2 0x4EF DUP2 PUSH2 0x4C9 JUMP JUMPDEST SWAP3 SWAP2 POP POP JUMP JUMPDEST PUSH1 0x0 DUP1 PUSH1 0x0 DUP1 PUSH1 0x0 PUSH1 0xA0 DUP7 DUP9 SUB SLT ISZERO PUSH2 0x511 JUMPI PUSH2 0x510 PUSH2 0x2F4 JUMP JUMPDEST JUMPDEST PUSH1 0x0 PUSH2 0x51F DUP9 DUP3 DUP10 ADD PUSH2 0x4AA JUMP JUMPDEST SWAP6 POP POP PUSH1 0x20 PUSH2 0x530 DUP9 DUP3 DUP10 ADD PUSH2 0x4E0 JUMP JUMPDEST SWAP5 POP POP PUSH1 0x40 PUSH2 0x541 DUP9 DUP3 DUP10 ADD PUSH2 0x352 JUMP JUMPDEST SWAP4 POP POP PUSH1 0x60 PUSH2 0x552 DUP9 DUP3 DUP10 ADD PUSH2 0x352 JUMP JUMPDEST SWAP3 POP POP PUSH1 0x80 PUSH2 0x563 DUP9 DUP3 DUP10 ADD PUSH2 0x4AA JUMP JUMPDEST SWAP2 POP POP SWAP3 SWAP6 POP SWAP3 SWAP6 SWAP1 SWAP4 POP JUMP JUMPDEST PUSH1 0x0 PUSH2 0x57B DUP3 PUSH2 0x4BF JUMP JUMPDEST SWAP2 POP PUSH2 0x586 DUP4 PUSH2 0x4BF JUMP JUMPDEST SWAP3 POP DUP3 PUSH32 0x7FFFFFFFFFFFFFFFFFFFFFFFFFFFFFFFFFFFFFFFFFFFFFFFFFFFFFFFFFFFFFFF DIV DUP3 GT PUSH1 0x0 DUP5 SGT PUSH1 0x0 DUP5 SGT AND AND ISZERO PUSH2 0x5C5 JUMPI PUSH2 0x5C4 PUSH2 0x394 JUMP JUMPDEST JUMPDEST DUP2 PUSH32 0x8000000000000000000000000000000000000000000000000000000000000000 SDIV DUP4 SLT PUSH1 0x0 DUP5 SLT PUSH1 0x0 DUP5 SGT AND AND ISZERO PUSH2 0x602 JUMPI PUSH2 0x601 PUSH2 0x394 JUMP JUMPDEST JUMPDEST DUP3 PUSH32 0x8000000000000000000000000000000000000000000000000000000000000000 SDIV DUP3 SLT PUSH1 0x0 DUP5 SGT PUSH1 0x0 DUP5 SLT AND AND ISZERO PUSH2 0x63F JUMPI PUSH2 0x63E PUSH2 0x394 JUMP JUMPDEST JUMPDEST DUP3 PUSH32 0x7FFFFFFFFFFFFFFFFFFFFFFFFFFFFFFFFFFFFFFFFFFFFFFFFFFFFFFFFFFFFFFF SDIV DUP3 SLT PUSH1 0x0 DUP5 SLT PUSH1 0x0 DUP5 SLT AND AND ISZERO PUSH2 0x67C JUMPI PUSH2 0x67B PUSH2 0x394 JUMP JUMPDEST JUMPDEST DUP3 DUP3 MUL SWAP1 POP SWAP3 SWAP2 POP POP JUMP JUMPDEST PUSH1 0x0 DUP3 DUP3 MSTORE PUSH1 0x20 DUP3 ADD SWAP1 POP SWAP3 SWAP2 POP POP JUMP JUMPDEST PUSH32 0x4469646E277420656E756768206D6F6E65790000000000000000000000000000 PUSH1 0x0 DUP3 ADD MSTORE POP JUMP JUMPDEST PUSH1 0x0 PUSH2 0x6CE PUSH1 0x12 DUP4 PUSH2 0x687 JUMP JUMPDEST SWAP2 POP PUSH2 0x6D9 DUP3 PUSH2 0x698 JUMP JUMPDEST PUSH1 0x20 DUP3 ADD SWAP1 POP SWAP2 SWAP1 POP JUMP JUMPDEST PUSH1 0x0 PUSH1 0x20 DUP3 ADD SWAP1 POP DUP2 DUP2 SUB PUSH1 0x0 DUP4 ADD MSTORE PUSH2 0x6FD DUP2 PUSH2 0x6C1 JUMP JUMPDEST SWAP1 POP SWAP2 SWAP1 POP JUMP INVALID LOG2 PUSH5 0x6970667358 0x22 SLT KECCAK256 MULMOD 0xDD PUSH9 0xED9D7D3E87A47ABDA6 0xBE SGT PUSH4 0x8BA15D91 DUP3 SWAP11 MUL REVERT 0xCE 0x22 JUMP POP 0xAF 0x4C ORIGIN 0xEE 0xB7 PUSH5 0x736F6C6343 STOP ADDMOD ADDMOD STOP CALLER "
				},
				"gasEstimates": {
					"creation": {
						"codeDepositCost": "370000",
						"executionCost": "22511",
						"totalCost": "392511"
					},
					"external": {
						"fund()": "infinite",
						"getConversionRate(uint256)": "infinite",
						"getPrice()": "infinite",
						"getVersion()": "infinite"
					}
				},
				"methodIdentifiers": {
					"fund()": "b60d4288",
					"getConversionRate(uint256)": "6e5b6b28",
					"getPrice()": "98d5fdca",
					"getVersion()": "0d8e6e2c"
				}
			},
			"storageLayout": {
				"storage": [
					{
						"astId": 51,
						"contract": "contracts/FundMe.sol:FundMe",
						"label": "minUsd",
						"offset": 0,
						"slot": "0",
						"type": "t_uint256"
					}
				],
				"types": {
					"t_uint256": {
						"encoding": "inplace",
						"label": "uint256",
						"numberOfBytes": "32"
					}
				}
			},
			"userdoc": {
				"kind": "user",
				"methods": {},
				"version": 1
			}
		}
	}
}