{
	"contracts/SimpleStorage.sol": {
		"SimpleStorage": {
			"abi": [
				{
					"inputs": [
						{
							"internalType": "string",
							"name": "_name",
							"type": "string"
						},
						{
							"internalType": "uint256",
							"name": "_number",
							"type": "uint256"
						}
					],
					"name": "addPeople",
					"outputs": [],
					"stateMutability": "nonpayable",
					"type": "function"
				},
				{
					"inputs": [
						{
							"internalType": "uint256",
							"name": "",
							"type": "uint256"
						}
					],
					"name": "people",
					"outputs": [
						{
							"internalType": "uint256",
							"name": "number",
							"type": "uint256"
						},
						{
							"internalType": "string",
							"name": "name",
							"type": "string"
						}
					],
					"stateMutability": "view",
					"type": "function"
				},
				{
					"inputs": [
						{
							"internalType": "string",
							"name": "",
							"type": "string"
						}
					],
					"name": "personMapping",
					"outputs": [
						{
							"internalType": "uint256",
							"name": "",
							"type": "uint256"
						}
					],
					"stateMutability": "view",
					"type": "function"
				},
				{
					"inputs": [],
					"name": "retrive",
					"outputs": [
						{
							"internalType": "uint256",
							"name": "",
							"type": "uint256"
						}
					],
					"stateMutability": "view",
					"type": "function"
				},
				{
					"inputs": [
						{
							"internalType": "uint256",
							"name": "_favNumber",
							"type": "uint256"
						}
					],
					"name": "store",
					"outputs": [],
					"stateMutability": "nonpayable",
					"type": "function"
				}
			],
			"devdoc": {
				"kind": "dev",
				"methods": {},
				"version": 1
			},
			"evm": {
				"assembly": "    /* \"contracts/SimpleStorage.sol\":59:1019  contract SimpleStorage{... */\n  mstore(0x40, 0x80)\n  callvalue\n  dup1\n  iszero\n  tag_1\n  jumpi\n  0x00\n  dup1\n  revert\ntag_1:\n  pop\n  dataSize(sub_0)\n  dup1\n  dataOffset(sub_0)\n  0x00\n  codecopy\n  0x00\n  return\nstop\n\nsub_0: assembly {\n        /* \"contracts/SimpleStorage.sol\":59:1019  contract SimpleStorage{... */\n      mstore(0x40, 0x80)\n      callvalue\n      dup1\n      iszero\n      tag_1\n      jumpi\n      0x00\n      dup1\n      revert\n    tag_1:\n      pop\n      jumpi(tag_2, lt(calldatasize, 0x04))\n      shr(0xe0, calldataload(0x00))\n      dup1\n      0x6057361d\n      eq\n      tag_3\n      jumpi\n      dup1\n      0x6def8172\n      eq\n      tag_4\n      jumpi\n      dup1\n      0x795fff1d\n      eq\n      tag_5\n      jumpi\n      dup1\n      0x9e7a13ad\n      eq\n      tag_6\n      jumpi\n      dup1\n      0xa6b7fc5b\n      eq\n      tag_7\n      jumpi\n    tag_2:\n      0x00\n      dup1\n      revert\n        /* \"contracts/SimpleStorage.sol\":841:924  function store(uint256 _favNumber) public {... */\n    tag_3:\n      tag_8\n      0x04\n      dup1\n      calldatasize\n      sub\n      dup2\n      add\n      swap1\n      tag_9\n      swap2\n      swap1\n      tag_10\n      jump\t// in\n    tag_9:\n      tag_11\n      jump\t// in\n    tag_8:\n      stop\n        /* \"contracts/SimpleStorage.sol\":224:271  mapping(string => uint256) public personMapping */\n    tag_4:\n      tag_12\n      0x04\n      dup1\n      calldatasize\n      sub\n      dup2\n      add\n      swap1\n      tag_13\n      swap2\n      swap1\n      tag_14\n      jump\t// in\n    tag_13:\n      tag_15\n      jump\t// in\n    tag_12:\n      mload(0x40)\n      tag_16\n      swap2\n      swap1\n      tag_17\n      jump\t// in\n    tag_16:\n      mload(0x40)\n      dup1\n      swap2\n      sub\n      swap1\n      return\n        /* \"contracts/SimpleStorage.sol\":674:833  function addPeople(string memory _name, uint256 _number) public {... */\n    tag_5:\n      tag_18\n      0x04\n      dup1\n      calldatasize\n      sub\n      dup2\n      add\n      swap1\n      tag_19\n      swap2\n      swap1\n      tag_20\n      jump\t// in\n    tag_19:\n      tag_21\n      jump\t// in\n    tag_18:\n      stop\n        /* \"contracts/SimpleStorage.sol\":193:215  People[] public people */\n    tag_6:\n      tag_22\n      0x04\n      dup1\n      calldatasize\n      sub\n      dup2\n      add\n      swap1\n      tag_23\n      swap2\n      swap1\n      tag_10\n      jump\t// in\n    tag_23:\n      tag_24\n      jump\t// in\n    tag_22:\n      mload(0x40)\n      tag_25\n      swap3\n      swap2\n      swap1\n      tag_26\n      jump\t// in\n    tag_25:\n      mload(0x40)\n      dup1\n      swap2\n      sub\n      swap1\n      return\n        /* \"contracts/SimpleStorage.sol\":932:1014  function retrive() public view returns(uint256){... */\n    tag_7:\n      tag_27\n      tag_28\n      jump\t// in\n    tag_27:\n      mload(0x40)\n      tag_29\n      swap2\n      swap1\n      tag_17\n      jump\t// in\n    tag_29:\n      mload(0x40)\n      dup1\n      swap2\n      sub\n      swap1\n      return\n        /* \"contracts/SimpleStorage.sol\":841:924  function store(uint256 _favNumber) public {... */\n    tag_11:\n        /* \"contracts/SimpleStorage.sol\":906:916  _favNumber */\n      dup1\n        /* \"contracts/SimpleStorage.sol\":894:903  favNumber */\n      0x00\n        /* \"contracts/SimpleStorage.sol\":894:916  favNumber = _favNumber */\n      dup2\n      swap1\n      sstore\n      pop\n        /* \"contracts/SimpleStorage.sol\":841:924  function store(uint256 _favNumber) public {... */\n      pop\n      jump\t// out\n        /* \"contracts/SimpleStorage.sol\":224:271  mapping(string => uint256) public personMapping */\n    tag_15:\n      0x02\n      dup2\n      dup1\n      mload\n      0x20\n      dup2\n      add\n      dup3\n      add\n      dup1\n      mload\n      dup5\n      dup3\n      mstore\n      0x20\n      dup4\n      add\n      0x20\n      dup6\n      add\n      keccak256\n      dup2\n      dup4\n      mstore\n      dup1\n      swap6\n      pop\n      pop\n      pop\n      pop\n      pop\n      pop\n      0x00\n      swap2\n      pop\n      swap1\n      pop\n      sload\n      dup2\n      jump\t// out\n        /* \"contracts/SimpleStorage.sol\":674:833  function addPeople(string memory _name, uint256 _number) public {... */\n    tag_21:\n        /* \"contracts/SimpleStorage.sol\":749:755  people */\n      0x01\n        /* \"contracts/SimpleStorage.sol\":761:783  People(_number, _name) */\n      mload(0x40)\n      dup1\n      0x40\n      add\n      0x40\n      mstore\n      dup1\n        /* \"contracts/SimpleStorage.sol\":768:775  _number */\n      dup4\n        /* \"contracts/SimpleStorage.sol\":761:783  People(_number, _name) */\n      dup2\n      mstore\n      0x20\n      add\n        /* \"contracts/SimpleStorage.sol\":777:782  _name */\n      dup5\n        /* \"contracts/SimpleStorage.sol\":761:783  People(_number, _name) */\n      dup2\n      mstore\n      pop\n        /* \"contracts/SimpleStorage.sol\":749:784  people.push(People(_number, _name)) */\n      swap1\n      dup1\n      0x01\n      dup2\n      sload\n      add\n      dup1\n      dup3\n      sstore\n      dup1\n      swap2\n      pop\n      pop\n      0x01\n      swap1\n      sub\n      swap1\n      0x00\n      mstore\n      keccak256(0x00, 0x20)\n      swap1\n      0x02\n      mul\n      add\n      0x00\n      swap1\n      swap2\n      swap1\n      swap2\n      swap1\n      swap2\n      pop\n      0x00\n      dup3\n      add\n      mload\n      dup2\n      0x00\n      add\n      sstore\n      0x20\n      dup3\n      add\n      mload\n      dup2\n      0x01\n      add\n      swap1\n      dup1\n      mload\n      swap1\n      0x20\n      add\n      swap1\n      tag_33\n      swap3\n      swap2\n      swap1\n      tag_34\n      jump\t// in\n    tag_33:\n      pop\n      pop\n      pop\n        /* \"contracts/SimpleStorage.sol\":818:825  _number */\n      dup1\n        /* \"contracts/SimpleStorage.sol\":795:808  personMapping */\n      0x02\n        /* \"contracts/SimpleStorage.sol\":809:814  _name */\n      dup4\n        /* \"contracts/SimpleStorage.sol\":795:815  personMapping[_name] */\n      mload(0x40)\n      tag_35\n      swap2\n      swap1\n      tag_36\n      jump\t// in\n    tag_35:\n      swap1\n      dup2\n      mstore\n      0x20\n      add\n      mload(0x40)\n      dup1\n      swap2\n      sub\n      swap1\n      keccak256\n        /* \"contracts/SimpleStorage.sol\":795:825  personMapping[_name] = _number */\n      dup2\n      swap1\n      sstore\n      pop\n        /* \"contracts/SimpleStorage.sol\":674:833  function addPeople(string memory _name, uint256 _number) public {... */\n      pop\n      pop\n      jump\t// out\n        /* \"contracts/SimpleStorage.sol\":193:215  People[] public people */\n    tag_24:\n      0x01\n      dup2\n      dup2\n      sload\n      dup2\n      lt\n      tag_37\n      jumpi\n      0x00\n      dup1\n      revert\n    tag_37:\n      swap1\n      0x00\n      mstore\n      keccak256(0x00, 0x20)\n      swap1\n      0x02\n      mul\n      add\n      0x00\n      swap2\n      pop\n      swap1\n      pop\n      dup1\n      0x00\n      add\n      sload\n      swap1\n      dup1\n      0x01\n      add\n      dup1\n      sload\n      tag_39\n      swap1\n      tag_40\n      jump\t// in\n    tag_39:\n      dup1\n      0x1f\n      add\n      0x20\n      dup1\n      swap2\n      div\n      mul\n      0x20\n      add\n      mload(0x40)\n      swap1\n      dup2\n      add\n      0x40\n      mstore\n      dup1\n      swap3\n      swap2\n      swap1\n      dup2\n      dup2\n      mstore\n      0x20\n      add\n      dup3\n      dup1\n      sload\n      tag_41\n      swap1\n      tag_40\n      jump\t// in\n    tag_41:\n      dup1\n      iszero\n      tag_42\n      jumpi\n      dup1\n      0x1f\n      lt\n      tag_43\n      jumpi\n      0x0100\n      dup1\n      dup4\n      sload\n      div\n      mul\n      dup4\n      mstore\n      swap2\n      0x20\n      add\n      swap2\n      jump(tag_42)\n    tag_43:\n      dup3\n      add\n      swap2\n      swap1\n      0x00\n      mstore\n      keccak256(0x00, 0x20)\n      swap1\n    tag_44:\n      dup2\n      sload\n      dup2\n      mstore\n      swap1\n      0x01\n      add\n      swap1\n      0x20\n      add\n      dup1\n      dup4\n      gt\n      tag_44\n      jumpi\n      dup3\n      swap1\n      sub\n      0x1f\n      and\n      dup3\n      add\n      swap2\n    tag_42:\n      pop\n      pop\n      pop\n      pop\n      pop\n      swap1\n      pop\n      dup3\n      jump\t// out\n        /* \"contracts/SimpleStorage.sol\":932:1014  function retrive() public view returns(uint256){... */\n    tag_28:\n        /* \"contracts/SimpleStorage.sol\":971:978  uint256 */\n      0x00\n        /* \"contracts/SimpleStorage.sol\":997:1006  favNumber */\n      dup1\n      sload\n        /* \"contracts/SimpleStorage.sol\":990:1006  return favNumber */\n      swap1\n      pop\n        /* \"contracts/SimpleStorage.sol\":932:1014  function retrive() public view returns(uint256){... */\n      swap1\n      jump\t// out\n    tag_34:\n      dup3\n      dup1\n      sload\n      tag_46\n      swap1\n      tag_40\n      jump\t// in\n    tag_46:\n      swap1\n      0x00\n      mstore\n      keccak256(0x00, 0x20)\n      swap1\n      0x1f\n      add\n      0x20\n      swap1\n      div\n      dup2\n      add\n      swap3\n      dup3\n      tag_48\n      jumpi\n      0x00\n      dup6\n      sstore\n      jump(tag_47)\n    tag_48:\n      dup3\n      0x1f\n      lt\n      tag_49\n      jumpi\n      dup1\n      mload\n      not(0xff)\n      and\n      dup4\n      dup1\n      add\n      or\n      dup6\n      sstore\n      jump(tag_47)\n    tag_49:\n      dup3\n      dup1\n      add\n      0x01\n      add\n      dup6\n      sstore\n      dup3\n      iszero\n      tag_47\n      jumpi\n      swap2\n      dup3\n      add\n    tag_50:\n      dup3\n      dup2\n      gt\n      iszero\n      tag_51\n      jumpi\n      dup3\n      mload\n      dup3\n      sstore\n      swap2\n      0x20\n      add\n      swap2\n      swap1\n      0x01\n      add\n      swap1\n      jump(tag_50)\n    tag_51:\n    tag_47:\n      pop\n      swap1\n      pop\n      tag_52\n      swap2\n      swap1\n      tag_53\n      jump\t// in\n    tag_52:\n      pop\n      swap1\n      jump\t// out\n    tag_53:\n    tag_54:\n      dup1\n      dup3\n      gt\n      iszero\n      tag_55\n      jumpi\n      0x00\n      dup2\n      0x00\n      swap1\n      sstore\n      pop\n      0x01\n      add\n      jump(tag_54)\n    tag_55:\n      pop\n      swap1\n      jump\t// out\n        /* \"#utility.yul\":7:82   */\n    tag_56:\n        /* \"#utility.yul\":40:46   */\n      0x00\n        /* \"#utility.yul\":73:75   */\n      0x40\n        /* \"#utility.yul\":67:76   */\n      mload\n        /* \"#utility.yul\":57:76   */\n      swap1\n      pop\n        /* \"#utility.yul\":7:82   */\n      swap1\n      jump\t// out\n        /* \"#utility.yul\":88:205   */\n    tag_57:\n        /* \"#utility.yul\":197:198   */\n      0x00\n        /* \"#utility.yul\":194:195   */\n      dup1\n        /* \"#utility.yul\":187:199   */\n      revert\n        /* \"#utility.yul\":211:328   */\n    tag_58:\n        /* \"#utility.yul\":320:321   */\n      0x00\n        /* \"#utility.yul\":317:318   */\n      dup1\n        /* \"#utility.yul\":310:322   */\n      revert\n        /* \"#utility.yul\":334:411   */\n    tag_59:\n        /* \"#utility.yul\":371:378   */\n      0x00\n        /* \"#utility.yul\":400:405   */\n      dup2\n        /* \"#utility.yul\":389:405   */\n      swap1\n      pop\n        /* \"#utility.yul\":334:411   */\n      swap2\n      swap1\n      pop\n      jump\t// out\n        /* \"#utility.yul\":417:539   */\n    tag_60:\n        /* \"#utility.yul\":490:514   */\n      tag_86\n        /* \"#utility.yul\":508:513   */\n      dup2\n        /* \"#utility.yul\":490:514   */\n      tag_59\n      jump\t// in\n    tag_86:\n        /* \"#utility.yul\":483:488   */\n      dup2\n        /* \"#utility.yul\":480:515   */\n      eq\n        /* \"#utility.yul\":470:533   */\n      tag_87\n      jumpi\n        /* \"#utility.yul\":529:530   */\n      0x00\n        /* \"#utility.yul\":526:527   */\n      dup1\n        /* \"#utility.yul\":519:531   */\n      revert\n        /* \"#utility.yul\":470:533   */\n    tag_87:\n        /* \"#utility.yul\":417:539   */\n      pop\n      jump\t// out\n        /* \"#utility.yul\":545:684   */\n    tag_61:\n        /* \"#utility.yul\":591:596   */\n      0x00\n        /* \"#utility.yul\":629:635   */\n      dup2\n        /* \"#utility.yul\":616:636   */\n      calldataload\n        /* \"#utility.yul\":607:636   */\n      swap1\n      pop\n        /* \"#utility.yul\":645:678   */\n      tag_89\n        /* \"#utility.yul\":672:677   */\n      dup2\n        /* \"#utility.yul\":645:678   */\n      tag_60\n      jump\t// in\n    tag_89:\n        /* \"#utility.yul\":545:684   */\n      swap3\n      swap2\n      pop\n      pop\n      jump\t// out\n        /* \"#utility.yul\":690:1019   */\n    tag_10:\n        /* \"#utility.yul\":749:755   */\n      0x00\n        /* \"#utility.yul\":798:800   */\n      0x20\n        /* \"#utility.yul\":786:795   */\n      dup3\n        /* \"#utility.yul\":777:784   */\n      dup5\n        /* \"#utility.yul\":773:796   */\n      sub\n        /* \"#utility.yul\":769:801   */\n      slt\n        /* \"#utility.yul\":766:885   */\n      iszero\n      tag_91\n      jumpi\n        /* \"#utility.yul\":804:883   */\n      tag_92\n      tag_57\n      jump\t// in\n    tag_92:\n        /* \"#utility.yul\":766:885   */\n    tag_91:\n        /* \"#utility.yul\":924:925   */\n      0x00\n        /* \"#utility.yul\":949:1002   */\n      tag_93\n        /* \"#utility.yul\":994:1001   */\n      dup5\n        /* \"#utility.yul\":985:991   */\n      dup3\n        /* \"#utility.yul\":974:983   */\n      dup6\n        /* \"#utility.yul\":970:992   */\n      add\n        /* \"#utility.yul\":949:1002   */\n      tag_61\n      jump\t// in\n    tag_93:\n        /* \"#utility.yul\":939:1002   */\n      swap2\n      pop\n        /* \"#utility.yul\":895:1012   */\n      pop\n        /* \"#utility.yul\":690:1019   */\n      swap3\n      swap2\n      pop\n      pop\n      jump\t// out\n        /* \"#utility.yul\":1025:1142   */\n    tag_62:\n        /* \"#utility.yul\":1134:1135   */\n      0x00\n        /* \"#utility.yul\":1131:1132   */\n      dup1\n        /* \"#utility.yul\":1124:1136   */\n      revert\n        /* \"#utility.yul\":1148:1265   */\n    tag_63:\n        /* \"#utility.yul\":1257:1258   */\n      0x00\n        /* \"#utility.yul\":1254:1255   */\n      dup1\n        /* \"#utility.yul\":1247:1259   */\n      revert\n        /* \"#utility.yul\":1271:1373   */\n    tag_64:\n        /* \"#utility.yul\":1312:1318   */\n      0x00\n        /* \"#utility.yul\":1363:1365   */\n      0x1f\n        /* \"#utility.yul\":1359:1366   */\n      not\n        /* \"#utility.yul\":1354:1356   */\n      0x1f\n        /* \"#utility.yul\":1347:1352   */\n      dup4\n        /* \"#utility.yul\":1343:1357   */\n      add\n        /* \"#utility.yul\":1339:1367   */\n      and\n        /* \"#utility.yul\":1329:1367   */\n      swap1\n      pop\n        /* \"#utility.yul\":1271:1373   */\n      swap2\n      swap1\n      pop\n      jump\t// out\n        /* \"#utility.yul\":1379:1559   */\n    tag_65:\n        /* \"#utility.yul\":1427:1504   */\n      0x4e487b7100000000000000000000000000000000000000000000000000000000\n        /* \"#utility.yul\":1424:1425   */\n      0x00\n        /* \"#utility.yul\":1417:1505   */\n      mstore\n        /* \"#utility.yul\":1524:1528   */\n      0x41\n        /* \"#utility.yul\":1521:1522   */\n      0x04\n        /* \"#utility.yul\":1514:1529   */\n      mstore\n        /* \"#utility.yul\":1548:1552   */\n      0x24\n        /* \"#utility.yul\":1545:1546   */\n      0x00\n        /* \"#utility.yul\":1538:1553   */\n      revert\n        /* \"#utility.yul\":1565:1846   */\n    tag_66:\n        /* \"#utility.yul\":1648:1675   */\n      tag_99\n        /* \"#utility.yul\":1670:1674   */\n      dup3\n        /* \"#utility.yul\":1648:1675   */\n      tag_64\n      jump\t// in\n    tag_99:\n        /* \"#utility.yul\":1640:1646   */\n      dup2\n        /* \"#utility.yul\":1636:1676   */\n      add\n        /* \"#utility.yul\":1778:1784   */\n      dup2\n        /* \"#utility.yul\":1766:1776   */\n      dup2\n        /* \"#utility.yul\":1763:1785   */\n      lt\n        /* \"#utility.yul\":1742:1760   */\n      0xffffffffffffffff\n        /* \"#utility.yul\":1730:1740   */\n      dup3\n        /* \"#utility.yul\":1727:1761   */\n      gt\n        /* \"#utility.yul\":1724:1786   */\n      or\n        /* \"#utility.yul\":1721:1809   */\n      iszero\n      tag_100\n      jumpi\n        /* \"#utility.yul\":1789:1807   */\n      tag_101\n      tag_65\n      jump\t// in\n    tag_101:\n        /* \"#utility.yul\":1721:1809   */\n    tag_100:\n        /* \"#utility.yul\":1829:1839   */\n      dup1\n        /* \"#utility.yul\":1825:1827   */\n      0x40\n        /* \"#utility.yul\":1818:1840   */\n      mstore\n        /* \"#utility.yul\":1608:1846   */\n      pop\n        /* \"#utility.yul\":1565:1846   */\n      pop\n      pop\n      jump\t// out\n        /* \"#utility.yul\":1852:1981   */\n    tag_67:\n        /* \"#utility.yul\":1886:1892   */\n      0x00\n        /* \"#utility.yul\":1913:1933   */\n      tag_103\n      tag_56\n      jump\t// in\n    tag_103:\n        /* \"#utility.yul\":1903:1933   */\n      swap1\n      pop\n        /* \"#utility.yul\":1942:1975   */\n      tag_104\n        /* \"#utility.yul\":1970:1974   */\n      dup3\n        /* \"#utility.yul\":1962:1968   */\n      dup3\n        /* \"#utility.yul\":1942:1975   */\n      tag_66\n      jump\t// in\n    tag_104:\n        /* \"#utility.yul\":1852:1981   */\n      swap2\n      swap1\n      pop\n      jump\t// out\n        /* \"#utility.yul\":1987:2295   */\n    tag_68:\n        /* \"#utility.yul\":2049:2053   */\n      0x00\n        /* \"#utility.yul\":2139:2157   */\n      0xffffffffffffffff\n        /* \"#utility.yul\":2131:2137   */\n      dup3\n        /* \"#utility.yul\":2128:2158   */\n      gt\n        /* \"#utility.yul\":2125:2181   */\n      iszero\n      tag_106\n      jumpi\n        /* \"#utility.yul\":2161:2179   */\n      tag_107\n      tag_65\n      jump\t// in\n    tag_107:\n        /* \"#utility.yul\":2125:2181   */\n    tag_106:\n        /* \"#utility.yul\":2199:2228   */\n      tag_108\n        /* \"#utility.yul\":2221:2227   */\n      dup3\n        /* \"#utility.yul\":2199:2228   */\n      tag_64\n      jump\t// in\n    tag_108:\n        /* \"#utility.yul\":2191:2228   */\n      swap1\n      pop\n        /* \"#utility.yul\":2283:2287   */\n      0x20\n        /* \"#utility.yul\":2277:2281   */\n      dup2\n        /* \"#utility.yul\":2273:2288   */\n      add\n        /* \"#utility.yul\":2265:2288   */\n      swap1\n      pop\n        /* \"#utility.yul\":1987:2295   */\n      swap2\n      swap1\n      pop\n      jump\t// out\n        /* \"#utility.yul\":2301:2455   */\n    tag_69:\n        /* \"#utility.yul\":2385:2391   */\n      dup3\n        /* \"#utility.yul\":2380:2383   */\n      dup2\n        /* \"#utility.yul\":2375:2378   */\n      dup4\n        /* \"#utility.yul\":2362:2392   */\n      calldatacopy\n        /* \"#utility.yul\":2447:2448   */\n      0x00\n        /* \"#utility.yul\":2438:2444   */\n      dup4\n        /* \"#utility.yul\":2433:2436   */\n      dup4\n        /* \"#utility.yul\":2429:2445   */\n      add\n        /* \"#utility.yul\":2422:2449   */\n      mstore\n        /* \"#utility.yul\":2301:2455   */\n      pop\n      pop\n      pop\n      jump\t// out\n        /* \"#utility.yul\":2461:2873   */\n    tag_70:\n        /* \"#utility.yul\":2539:2544   */\n      0x00\n        /* \"#utility.yul\":2564:2630   */\n      tag_111\n        /* \"#utility.yul\":2580:2629   */\n      tag_112\n        /* \"#utility.yul\":2622:2628   */\n      dup5\n        /* \"#utility.yul\":2580:2629   */\n      tag_68\n      jump\t// in\n    tag_112:\n        /* \"#utility.yul\":2564:2630   */\n      tag_67\n      jump\t// in\n    tag_111:\n        /* \"#utility.yul\":2555:2630   */\n      swap1\n      pop\n        /* \"#utility.yul\":2653:2659   */\n      dup3\n        /* \"#utility.yul\":2646:2651   */\n      dup2\n        /* \"#utility.yul\":2639:2660   */\n      mstore\n        /* \"#utility.yul\":2691:2695   */\n      0x20\n        /* \"#utility.yul\":2684:2689   */\n      dup2\n        /* \"#utility.yul\":2680:2696   */\n      add\n        /* \"#utility.yul\":2729:2732   */\n      dup5\n        /* \"#utility.yul\":2720:2726   */\n      dup5\n        /* \"#utility.yul\":2715:2718   */\n      dup5\n        /* \"#utility.yul\":2711:2727   */\n      add\n        /* \"#utility.yul\":2708:2733   */\n      gt\n        /* \"#utility.yul\":2705:2817   */\n      iszero\n      tag_113\n      jumpi\n        /* \"#utility.yul\":2736:2815   */\n      tag_114\n      tag_63\n      jump\t// in\n    tag_114:\n        /* \"#utility.yul\":2705:2817   */\n    tag_113:\n        /* \"#utility.yul\":2826:2867   */\n      tag_115\n        /* \"#utility.yul\":2860:2866   */\n      dup5\n        /* \"#utility.yul\":2855:2858   */\n      dup3\n        /* \"#utility.yul\":2850:2853   */\n      dup6\n        /* \"#utility.yul\":2826:2867   */\n      tag_69\n      jump\t// in\n    tag_115:\n        /* \"#utility.yul\":2545:2873   */\n      pop\n        /* \"#utility.yul\":2461:2873   */\n      swap4\n      swap3\n      pop\n      pop\n      pop\n      jump\t// out\n        /* \"#utility.yul\":2893:3233   */\n    tag_71:\n        /* \"#utility.yul\":2949:2954   */\n      0x00\n        /* \"#utility.yul\":2998:3001   */\n      dup3\n        /* \"#utility.yul\":2991:2995   */\n      0x1f\n        /* \"#utility.yul\":2983:2989   */\n      dup4\n        /* \"#utility.yul\":2979:2996   */\n      add\n        /* \"#utility.yul\":2975:3002   */\n      slt\n        /* \"#utility.yul\":2965:3087   */\n      tag_117\n      jumpi\n        /* \"#utility.yul\":3006:3085   */\n      tag_118\n      tag_62\n      jump\t// in\n    tag_118:\n        /* \"#utility.yul\":2965:3087   */\n    tag_117:\n        /* \"#utility.yul\":3123:3129   */\n      dup2\n        /* \"#utility.yul\":3110:3130   */\n      calldataload\n        /* \"#utility.yul\":3148:3227   */\n      tag_119\n        /* \"#utility.yul\":3223:3226   */\n      dup5\n        /* \"#utility.yul\":3215:3221   */\n      dup3\n        /* \"#utility.yul\":3208:3212   */\n      0x20\n        /* \"#utility.yul\":3200:3206   */\n      dup7\n        /* \"#utility.yul\":3196:3213   */\n      add\n        /* \"#utility.yul\":3148:3227   */\n      tag_70\n      jump\t// in\n    tag_119:\n        /* \"#utility.yul\":3139:3227   */\n      swap2\n      pop\n        /* \"#utility.yul\":2955:3233   */\n      pop\n        /* \"#utility.yul\":2893:3233   */\n      swap3\n      swap2\n      pop\n      pop\n      jump\t// out\n        /* \"#utility.yul\":3239:3748   */\n    tag_14:\n        /* \"#utility.yul\":3308:3314   */\n      0x00\n        /* \"#utility.yul\":3357:3359   */\n      0x20\n        /* \"#utility.yul\":3345:3354   */\n      dup3\n        /* \"#utility.yul\":3336:3343   */\n      dup5\n        /* \"#utility.yul\":3332:3355   */\n      sub\n        /* \"#utility.yul\":3328:3360   */\n      slt\n        /* \"#utility.yul\":3325:3444   */\n      iszero\n      tag_121\n      jumpi\n        /* \"#utility.yul\":3363:3442   */\n      tag_122\n      tag_57\n      jump\t// in\n    tag_122:\n        /* \"#utility.yul\":3325:3444   */\n    tag_121:\n        /* \"#utility.yul\":3511:3512   */\n      0x00\n        /* \"#utility.yul\":3500:3509   */\n      dup3\n        /* \"#utility.yul\":3496:3513   */\n      add\n        /* \"#utility.yul\":3483:3514   */\n      calldataload\n        /* \"#utility.yul\":3541:3559   */\n      0xffffffffffffffff\n        /* \"#utility.yul\":3533:3539   */\n      dup2\n        /* \"#utility.yul\":3530:3560   */\n      gt\n        /* \"#utility.yul\":3527:3644   */\n      iszero\n      tag_123\n      jumpi\n        /* \"#utility.yul\":3563:3642   */\n      tag_124\n      tag_58\n      jump\t// in\n    tag_124:\n        /* \"#utility.yul\":3527:3644   */\n    tag_123:\n        /* \"#utility.yul\":3668:3731   */\n      tag_125\n        /* \"#utility.yul\":3723:3730   */\n      dup5\n        /* \"#utility.yul\":3714:3720   */\n      dup3\n        /* \"#utility.yul\":3703:3712   */\n      dup6\n        /* \"#utility.yul\":3699:3721   */\n      add\n        /* \"#utility.yul\":3668:3731   */\n      tag_71\n      jump\t// in\n    tag_125:\n        /* \"#utility.yul\":3658:3731   */\n      swap2\n      pop\n        /* \"#utility.yul\":3454:3741   */\n      pop\n        /* \"#utility.yul\":3239:3748   */\n      swap3\n      swap2\n      pop\n      pop\n      jump\t// out\n        /* \"#utility.yul\":3754:3872   */\n    tag_72:\n        /* \"#utility.yul\":3841:3865   */\n      tag_127\n        /* \"#utility.yul\":3859:3864   */\n      dup2\n        /* \"#utility.yul\":3841:3865   */\n      tag_59\n      jump\t// in\n    tag_127:\n        /* \"#utility.yul\":3836:3839   */\n      dup3\n        /* \"#utility.yul\":3829:3866   */\n      mstore\n        /* \"#utility.yul\":3754:3872   */\n      pop\n      pop\n      jump\t// out\n        /* \"#utility.yul\":3878:4100   */\n    tag_17:\n        /* \"#utility.yul\":3971:3975   */\n      0x00\n        /* \"#utility.yul\":4009:4011   */\n      0x20\n        /* \"#utility.yul\":3998:4007   */\n      dup3\n        /* \"#utility.yul\":3994:4012   */\n      add\n        /* \"#utility.yul\":3986:4012   */\n      swap1\n      pop\n        /* \"#utility.yul\":4022:4093   */\n      tag_129\n        /* \"#utility.yul\":4090:4091   */\n      0x00\n        /* \"#utility.yul\":4079:4088   */\n      dup4\n        /* \"#utility.yul\":4075:4092   */\n      add\n        /* \"#utility.yul\":4066:4072   */\n      dup5\n        /* \"#utility.yul\":4022:4093   */\n      tag_72\n      jump\t// in\n    tag_129:\n        /* \"#utility.yul\":3878:4100   */\n      swap3\n      swap2\n      pop\n      pop\n      jump\t// out\n        /* \"#utility.yul\":4106:4760   */\n    tag_20:\n        /* \"#utility.yul\":4184:4190   */\n      0x00\n        /* \"#utility.yul\":4192:4198   */\n      dup1\n        /* \"#utility.yul\":4241:4243   */\n      0x40\n        /* \"#utility.yul\":4229:4238   */\n      dup4\n        /* \"#utility.yul\":4220:4227   */\n      dup6\n        /* \"#utility.yul\":4216:4239   */\n      sub\n        /* \"#utility.yul\":4212:4244   */\n      slt\n        /* \"#utility.yul\":4209:4328   */\n      iszero\n      tag_131\n      jumpi\n        /* \"#utility.yul\":4247:4326   */\n      tag_132\n      tag_57\n      jump\t// in\n    tag_132:\n        /* \"#utility.yul\":4209:4328   */\n    tag_131:\n        /* \"#utility.yul\":4395:4396   */\n      0x00\n        /* \"#utility.yul\":4384:4393   */\n      dup4\n        /* \"#utility.yul\":4380:4397   */\n      add\n        /* \"#utility.yul\":4367:4398   */\n      calldataload\n        /* \"#utility.yul\":4425:4443   */\n      0xffffffffffffffff\n        /* \"#utility.yul\":4417:4423   */\n      dup2\n        /* \"#utility.yul\":4414:4444   */\n      gt\n        /* \"#utility.yul\":4411:4528   */\n      iszero\n      tag_133\n      jumpi\n        /* \"#utility.yul\":4447:4526   */\n      tag_134\n      tag_58\n      jump\t// in\n    tag_134:\n        /* \"#utility.yul\":4411:4528   */\n    tag_133:\n        /* \"#utility.yul\":4552:4615   */\n      tag_135\n        /* \"#utility.yul\":4607:4614   */\n      dup6\n        /* \"#utility.yul\":4598:4604   */\n      dup3\n        /* \"#utility.yul\":4587:4596   */\n      dup7\n        /* \"#utility.yul\":4583:4605   */\n      add\n        /* \"#utility.yul\":4552:4615   */\n      tag_71\n      jump\t// in\n    tag_135:\n        /* \"#utility.yul\":4542:4615   */\n      swap3\n      pop\n        /* \"#utility.yul\":4338:4625   */\n      pop\n        /* \"#utility.yul\":4664:4666   */\n      0x20\n        /* \"#utility.yul\":4690:4743   */\n      tag_136\n        /* \"#utility.yul\":4735:4742   */\n      dup6\n        /* \"#utility.yul\":4726:4732   */\n      dup3\n        /* \"#utility.yul\":4715:4724   */\n      dup7\n        /* \"#utility.yul\":4711:4733   */\n      add\n        /* \"#utility.yul\":4690:4743   */\n      tag_61\n      jump\t// in\n    tag_136:\n        /* \"#utility.yul\":4680:4743   */\n      swap2\n      pop\n        /* \"#utility.yul\":4635:4753   */\n      pop\n        /* \"#utility.yul\":4106:4760   */\n      swap3\n      pop\n      swap3\n      swap1\n      pop\n      jump\t// out\n        /* \"#utility.yul\":4766:4865   */\n    tag_73:\n        /* \"#utility.yul\":4818:4824   */\n      0x00\n        /* \"#utility.yul\":4852:4857   */\n      dup2\n        /* \"#utility.yul\":4846:4858   */\n      mload\n        /* \"#utility.yul\":4836:4858   */\n      swap1\n      pop\n        /* \"#utility.yul\":4766:4865   */\n      swap2\n      swap1\n      pop\n      jump\t// out\n        /* \"#utility.yul\":4871:5040   */\n    tag_74:\n        /* \"#utility.yul\":4955:4966   */\n      0x00\n        /* \"#utility.yul\":4989:4995   */\n      dup3\n        /* \"#utility.yul\":4984:4987   */\n      dup3\n        /* \"#utility.yul\":4977:4996   */\n      mstore\n        /* \"#utility.yul\":5029:5033   */\n      0x20\n        /* \"#utility.yul\":5024:5027   */\n      dup3\n        /* \"#utility.yul\":5020:5034   */\n      add\n        /* \"#utility.yul\":5005:5034   */\n      swap1\n      pop\n        /* \"#utility.yul\":4871:5040   */\n      swap3\n      swap2\n      pop\n      pop\n      jump\t// out\n        /* \"#utility.yul\":5046:5353   */\n    tag_75:\n        /* \"#utility.yul\":5114:5115   */\n      0x00\n        /* \"#utility.yul\":5124:5237   */\n    tag_140:\n        /* \"#utility.yul\":5138:5144   */\n      dup4\n        /* \"#utility.yul\":5135:5136   */\n      dup2\n        /* \"#utility.yul\":5132:5145   */\n      lt\n        /* \"#utility.yul\":5124:5237   */\n      iszero\n      tag_142\n      jumpi\n        /* \"#utility.yul\":5223:5224   */\n      dup1\n        /* \"#utility.yul\":5218:5221   */\n      dup3\n        /* \"#utility.yul\":5214:5225   */\n      add\n        /* \"#utility.yul\":5208:5226   */\n      mload\n        /* \"#utility.yul\":5204:5205   */\n      dup2\n        /* \"#utility.yul\":5199:5202   */\n      dup5\n        /* \"#utility.yul\":5195:5206   */\n      add\n        /* \"#utility.yul\":5188:5227   */\n      mstore\n        /* \"#utility.yul\":5160:5162   */\n      0x20\n        /* \"#utility.yul\":5157:5158   */\n      dup2\n        /* \"#utility.yul\":5153:5163   */\n      add\n        /* \"#utility.yul\":5148:5163   */\n      swap1\n      pop\n        /* \"#utility.yul\":5124:5237   */\n      jump(tag_140)\n    tag_142:\n        /* \"#utility.yul\":5255:5261   */\n      dup4\n        /* \"#utility.yul\":5252:5253   */\n      dup2\n        /* \"#utility.yul\":5249:5262   */\n      gt\n        /* \"#utility.yul\":5246:5347   */\n      iszero\n      tag_143\n      jumpi\n        /* \"#utility.yul\":5335:5336   */\n      0x00\n        /* \"#utility.yul\":5326:5332   */\n      dup5\n        /* \"#utility.yul\":5321:5324   */\n      dup5\n        /* \"#utility.yul\":5317:5333   */\n      add\n        /* \"#utility.yul\":5310:5337   */\n      mstore\n        /* \"#utility.yul\":5246:5347   */\n    tag_143:\n        /* \"#utility.yul\":5095:5353   */\n      pop\n        /* \"#utility.yul\":5046:5353   */\n      pop\n      pop\n      pop\n      jump\t// out\n        /* \"#utility.yul\":5359:5723   */\n    tag_76:\n        /* \"#utility.yul\":5447:5450   */\n      0x00\n        /* \"#utility.yul\":5475:5514   */\n      tag_145\n        /* \"#utility.yul\":5508:5513   */\n      dup3\n        /* \"#utility.yul\":5475:5514   */\n      tag_73\n      jump\t// in\n    tag_145:\n        /* \"#utility.yul\":5530:5601   */\n      tag_146\n        /* \"#utility.yul\":5594:5600   */\n      dup2\n        /* \"#utility.yul\":5589:5592   */\n      dup6\n        /* \"#utility.yul\":5530:5601   */\n      tag_74\n      jump\t// in\n    tag_146:\n        /* \"#utility.yul\":5523:5601   */\n      swap4\n      pop\n        /* \"#utility.yul\":5610:5662   */\n      tag_147\n        /* \"#utility.yul\":5655:5661   */\n      dup2\n        /* \"#utility.yul\":5650:5653   */\n      dup6\n        /* \"#utility.yul\":5643:5647   */\n      0x20\n        /* \"#utility.yul\":5636:5641   */\n      dup7\n        /* \"#utility.yul\":5632:5648   */\n      add\n        /* \"#utility.yul\":5610:5662   */\n      tag_75\n      jump\t// in\n    tag_147:\n        /* \"#utility.yul\":5687:5716   */\n      tag_148\n        /* \"#utility.yul\":5709:5715   */\n      dup2\n        /* \"#utility.yul\":5687:5716   */\n      tag_64\n      jump\t// in\n    tag_148:\n        /* \"#utility.yul\":5682:5685   */\n      dup5\n        /* \"#utility.yul\":5678:5717   */\n      add\n        /* \"#utility.yul\":5671:5717   */\n      swap2\n      pop\n        /* \"#utility.yul\":5451:5723   */\n      pop\n        /* \"#utility.yul\":5359:5723   */\n      swap3\n      swap2\n      pop\n      pop\n      jump\t// out\n        /* \"#utility.yul\":5729:6152   */\n    tag_26:\n        /* \"#utility.yul\":5870:5874   */\n      0x00\n        /* \"#utility.yul\":5908:5910   */\n      0x40\n        /* \"#utility.yul\":5897:5906   */\n      dup3\n        /* \"#utility.yul\":5893:5911   */\n      add\n        /* \"#utility.yul\":5885:5911   */\n      swap1\n      pop\n        /* \"#utility.yul\":5921:5992   */\n      tag_150\n        /* \"#utility.yul\":5989:5990   */\n      0x00\n        /* \"#utility.yul\":5978:5987   */\n      dup4\n        /* \"#utility.yul\":5974:5991   */\n      add\n        /* \"#utility.yul\":5965:5971   */\n      dup6\n        /* \"#utility.yul\":5921:5992   */\n      tag_72\n      jump\t// in\n    tag_150:\n        /* \"#utility.yul\":6039:6048   */\n      dup2\n        /* \"#utility.yul\":6033:6037   */\n      dup2\n        /* \"#utility.yul\":6029:6049   */\n      sub\n        /* \"#utility.yul\":6024:6026   */\n      0x20\n        /* \"#utility.yul\":6013:6022   */\n      dup4\n        /* \"#utility.yul\":6009:6027   */\n      add\n        /* \"#utility.yul\":6002:6050   */\n      mstore\n        /* \"#utility.yul\":6067:6145   */\n      tag_151\n        /* \"#utility.yul\":6140:6144   */\n      dup2\n        /* \"#utility.yul\":6131:6137   */\n      dup5\n        /* \"#utility.yul\":6067:6145   */\n      tag_76\n      jump\t// in\n    tag_151:\n        /* \"#utility.yul\":6059:6145   */\n      swap1\n      pop\n        /* \"#utility.yul\":5729:6152   */\n      swap4\n      swap3\n      pop\n      pop\n      pop\n      jump\t// out\n        /* \"#utility.yul\":6158:6306   */\n    tag_77:\n        /* \"#utility.yul\":6260:6271   */\n      0x00\n        /* \"#utility.yul\":6297:6300   */\n      dup2\n        /* \"#utility.yul\":6282:6300   */\n      swap1\n      pop\n        /* \"#utility.yul\":6158:6306   */\n      swap3\n      swap2\n      pop\n      pop\n      jump\t// out\n        /* \"#utility.yul\":6312:6689   */\n    tag_78:\n        /* \"#utility.yul\":6418:6421   */\n      0x00\n        /* \"#utility.yul\":6446:6485   */\n      tag_154\n        /* \"#utility.yul\":6479:6484   */\n      dup3\n        /* \"#utility.yul\":6446:6485   */\n      tag_73\n      jump\t// in\n    tag_154:\n        /* \"#utility.yul\":6501:6590   */\n      tag_155\n        /* \"#utility.yul\":6583:6589   */\n      dup2\n        /* \"#utility.yul\":6578:6581   */\n      dup6\n        /* \"#utility.yul\":6501:6590   */\n      tag_77\n      jump\t// in\n    tag_155:\n        /* \"#utility.yul\":6494:6590   */\n      swap4\n      pop\n        /* \"#utility.yul\":6599:6651   */\n      tag_156\n        /* \"#utility.yul\":6644:6650   */\n      dup2\n        /* \"#utility.yul\":6639:6642   */\n      dup6\n        /* \"#utility.yul\":6632:6636   */\n      0x20\n        /* \"#utility.yul\":6625:6630   */\n      dup7\n        /* \"#utility.yul\":6621:6637   */\n      add\n        /* \"#utility.yul\":6599:6651   */\n      tag_75\n      jump\t// in\n    tag_156:\n        /* \"#utility.yul\":6676:6682   */\n      dup1\n        /* \"#utility.yul\":6671:6674   */\n      dup5\n        /* \"#utility.yul\":6667:6683   */\n      add\n        /* \"#utility.yul\":6660:6683   */\n      swap2\n      pop\n        /* \"#utility.yul\":6422:6689   */\n      pop\n        /* \"#utility.yul\":6312:6689   */\n      swap3\n      swap2\n      pop\n      pop\n      jump\t// out\n        /* \"#utility.yul\":6695:6970   */\n    tag_36:\n        /* \"#utility.yul\":6827:6830   */\n      0x00\n        /* \"#utility.yul\":6849:6944   */\n      tag_158\n        /* \"#utility.yul\":6940:6943   */\n      dup3\n        /* \"#utility.yul\":6931:6937   */\n      dup5\n        /* \"#utility.yul\":6849:6944   */\n      tag_78\n      jump\t// in\n    tag_158:\n        /* \"#utility.yul\":6842:6944   */\n      swap2\n      pop\n        /* \"#utility.yul\":6961:6964   */\n      dup2\n        /* \"#utility.yul\":6954:6964   */\n      swap1\n      pop\n        /* \"#utility.yul\":6695:6970   */\n      swap3\n      swap2\n      pop\n      pop\n      jump\t// out\n        /* \"#utility.yul\":6976:7156   */\n    tag_79:\n        /* \"#utility.yul\":7024:7101   */\n      0x4e487b7100000000000000000000000000000000000000000000000000000000\n        /* \"#utility.yul\":7021:7022   */\n      0x00\n        /* \"#utility.yul\":7014:7102   */\n      mstore\n        /* \"#utility.yul\":7121:7125   */\n      0x22\n        /* \"#utility.yul\":7118:7119   */\n      0x04\n        /* \"#utility.yul\":7111:7126   */\n      mstore\n        /* \"#utility.yul\":7145:7149   */\n      0x24\n        /* \"#utility.yul\":7142:7143   */\n      0x00\n        /* \"#utility.yul\":7135:7150   */\n      revert\n        /* \"#utility.yul\":7162:7482   */\n    tag_40:\n        /* \"#utility.yul\":7206:7212   */\n      0x00\n        /* \"#utility.yul\":7243:7244   */\n      0x02\n        /* \"#utility.yul\":7237:7241   */\n      dup3\n        /* \"#utility.yul\":7233:7245   */\n      div\n        /* \"#utility.yul\":7223:7245   */\n      swap1\n      pop\n        /* \"#utility.yul\":7290:7291   */\n      0x01\n        /* \"#utility.yul\":7284:7288   */\n      dup3\n        /* \"#utility.yul\":7280:7292   */\n      and\n        /* \"#utility.yul\":7311:7329   */\n      dup1\n        /* \"#utility.yul\":7301:7382   */\n      tag_161\n      jumpi\n        /* \"#utility.yul\":7367:7371   */\n      0x7f\n        /* \"#utility.yul\":7359:7365   */\n      dup3\n        /* \"#utility.yul\":7355:7372   */\n      and\n        /* \"#utility.yul\":7345:7372   */\n      swap2\n      pop\n        /* \"#utility.yul\":7301:7382   */\n    tag_161:\n        /* \"#utility.yul\":7429:7431   */\n      0x20\n        /* \"#utility.yul\":7421:7427   */\n      dup3\n        /* \"#utility.yul\":7418:7432   */\n      lt\n        /* \"#utility.yul\":7398:7416   */\n      dup2\n        /* \"#utility.yul\":7395:7433   */\n      eq\n        /* \"#utility.yul\":7392:7476   */\n      iszero\n      tag_162\n      jumpi\n        /* \"#utility.yul\":7448:7466   */\n      tag_163\n      tag_79\n      jump\t// in\n    tag_163:\n        /* \"#utility.yul\":7392:7476   */\n    tag_162:\n        /* \"#utility.yul\":7213:7482   */\n      pop\n        /* \"#utility.yul\":7162:7482   */\n      swap2\n      swap1\n      pop\n      jump\t// out\n\n    auxdata: 0xa26469706673582212209fb40ddce8909c724009c7dadb6fc8182f2498dd9b64c32596ae3467b541b82864736f6c63430008080033\n}\n",
				"bytecode": {
					"linkReferences": {},
					"object": "608060405234801561001057600080fd5b50610771806100206000396000f3fe608060405234801561001057600080fd5b50600436106100575760003560e01c80636057361d1461005c5780636def817214610078578063795fff1d146100a85780639e7a13ad146100c4578063a6b7fc5b146100f5575b600080fd5b6100766004803603810190610071919061038d565b610113565b005b610092600480360381019061008d9190610500565b61011d565b60405161009f9190610558565b60405180910390f35b6100c260048036038101906100bd9190610573565b61014b565b005b6100de60048036038101906100d9919061038d565b6101db565b6040516100ec929190610657565b60405180910390f35b6100fd610297565b60405161010a9190610558565b60405180910390f35b8060008190555050565b6002818051602081018201805184825260208301602085012081835280955050505050506000915090505481565b600160405180604001604052808381526020018481525090806001815401808255809150506001900390600052602060002090600202016000909190919091506000820151816000015560208201518160010190805190602001906101b19291906102a0565b505050806002836040516101c591906106c3565b9081526020016040518091039020819055505050565b600181815481106101eb57600080fd5b906000526020600020906002020160009150905080600001549080600101805461021490610709565b80601f016020809104026020016040519081016040528092919081815260200182805461024090610709565b801561028d5780601f106102625761010080835404028352916020019161028d565b820191906000526020600020905b81548152906001019060200180831161027057829003601f168201915b5050505050905082565b60008054905090565b8280546102ac90610709565b90600052602060002090601f0160209004810192826102ce5760008555610315565b82601f106102e757805160ff1916838001178555610315565b82800160010185558215610315579182015b828111156103145782518255916020019190600101906102f9565b5b5090506103229190610326565b5090565b5b8082111561033f576000816000905550600101610327565b5090565b6000604051905090565b600080fd5b600080fd5b6000819050919050565b61036a81610357565b811461037557600080fd5b50565b60008135905061038781610361565b92915050565b6000602082840312156103a3576103a261034d565b5b60006103b184828501610378565b91505092915050565b600080fd5b600080fd5b6000601f19601f8301169050919050565b7f4e487b7100000000000000000000000000000000000000000000000000000000600052604160045260246000fd5b61040d826103c4565b810181811067ffffffffffffffff8211171561042c5761042b6103d5565b5b80604052505050565b600061043f610343565b905061044b8282610404565b919050565b600067ffffffffffffffff82111561046b5761046a6103d5565b5b610474826103c4565b9050602081019050919050565b82818337600083830152505050565b60006104a361049e84610450565b610435565b9050828152602081018484840111156104bf576104be6103bf565b5b6104ca848285610481565b509392505050565b600082601f8301126104e7576104e66103ba565b5b81356104f7848260208601610490565b91505092915050565b6000602082840312156105165761051561034d565b5b600082013567ffffffffffffffff81111561053457610533610352565b5b610540848285016104d2565b91505092915050565b61055281610357565b82525050565b600060208201905061056d6000830184610549565b92915050565b6000806040838503121561058a5761058961034d565b5b600083013567ffffffffffffffff8111156105a8576105a7610352565b5b6105b4858286016104d2565b92505060206105c585828601610378565b9150509250929050565b600081519050919050565b600082825260208201905092915050565b60005b838110156106095780820151818401526020810190506105ee565b83811115610618576000848401525b50505050565b6000610629826105cf565b61063381856105da565b93506106438185602086016105eb565b61064c816103c4565b840191505092915050565b600060408201905061066c6000830185610549565b818103602083015261067e818461061e565b90509392505050565b600081905092915050565b600061069d826105cf565b6106a78185610687565b93506106b78185602086016105eb565b80840191505092915050565b60006106cf8284610692565b915081905092915050565b7f4e487b7100000000000000000000000000000000000000000000000000000000600052602260045260246000fd5b6000600282049050600182168061072157607f821691505b60208210811415610735576107346106da565b5b5091905056fea26469706673582212209fb40ddce8909c724009c7dadb6fc8182f2498dd9b64c32596ae3467b541b82864736f6c63430008080033",
					"opcodes": "PUSH1 0x80 PUSH1 0x40 MSTORE CALLVALUE DUP1 ISZERO PUSH2 0x10 JUMPI PUSH1 0x0 DUP1 REVERT JUMPDEST POP PUSH2 0x771 DUP1 PUSH2 0x20 PUSH1 0x0 CODECOPY PUSH1 0x0 RETURN INVALID PUSH1 0x80 PUSH1 0x40 MSTORE CALLVALUE DUP1 ISZERO PUSH2 0x10 JUMPI PUSH1 0x0 DUP1 REVERT JUMPDEST POP PUSH1 0x4 CALLDATASIZE LT PUSH2 0x57 JUMPI PUSH1 0x0 CALLDATALOAD PUSH1 0xE0 SHR DUP1 PUSH4 0x6057361D EQ PUSH2 0x5C JUMPI DUP1 PUSH4 0x6DEF8172 EQ PUSH2 0x78 JUMPI DUP1 PUSH4 0x795FFF1D EQ PUSH2 0xA8 JUMPI DUP1 PUSH4 0x9E7A13AD EQ PUSH2 0xC4 JUMPI DUP1 PUSH4 0xA6B7FC5B EQ PUSH2 0xF5 JUMPI JUMPDEST PUSH1 0x0 DUP1 REVERT JUMPDEST PUSH2 0x76 PUSH1 0x4 DUP1 CALLDATASIZE SUB DUP2 ADD SWAP1 PUSH2 0x71 SWAP2 SWAP1 PUSH2 0x38D JUMP JUMPDEST PUSH2 0x113 JUMP JUMPDEST STOP JUMPDEST PUSH2 0x92 PUSH1 0x4 DUP1 CALLDATASIZE SUB DUP2 ADD SWAP1 PUSH2 0x8D SWAP2 SWAP1 PUSH2 0x500 JUMP JUMPDEST PUSH2 0x11D JUMP JUMPDEST PUSH1 0x40 MLOAD PUSH2 0x9F SWAP2 SWAP1 PUSH2 0x558 JUMP JUMPDEST PUSH1 0x40 MLOAD DUP1 SWAP2 SUB SWAP1 RETURN JUMPDEST PUSH2 0xC2 PUSH1 0x4 DUP1 CALLDATASIZE SUB DUP2 ADD SWAP1 PUSH2 0xBD SWAP2 SWAP1 PUSH2 0x573 JUMP JUMPDEST PUSH2 0x14B JUMP JUMPDEST STOP JUMPDEST PUSH2 0xDE PUSH1 0x4 DUP1 CALLDATASIZE SUB DUP2 ADD SWAP1 PUSH2 0xD9 SWAP2 SWAP1 PUSH2 0x38D JUMP JUMPDEST PUSH2 0x1DB JUMP JUMPDEST PUSH1 0x40 MLOAD PUSH2 0xEC SWAP3 SWAP2 SWAP1 PUSH2 0x657 JUMP JUMPDEST PUSH1 0x40 MLOAD DUP1 SWAP2 SUB SWAP1 RETURN JUMPDEST PUSH2 0xFD PUSH2 0x297 JUMP JUMPDEST PUSH1 0x40 MLOAD PUSH2 0x10A SWAP2 SWAP1 PUSH2 0x558 JUMP JUMPDEST PUSH1 0x40 MLOAD DUP1 SWAP2 SUB SWAP1 RETURN JUMPDEST DUP1 PUSH1 0x0 DUP2 SWAP1 SSTORE POP POP JUMP JUMPDEST PUSH1 0x2 DUP2 DUP1 MLOAD PUSH1 0x20 DUP2 ADD DUP3 ADD DUP1 MLOAD DUP5 DUP3 MSTORE PUSH1 0x20 DUP4 ADD PUSH1 0x20 DUP6 ADD KECCAK256 DUP2 DUP4 MSTORE DUP1 SWAP6 POP POP POP POP POP POP PUSH1 0x0 SWAP2 POP SWAP1 POP SLOAD DUP2 JUMP JUMPDEST PUSH1 0x1 PUSH1 0x40 MLOAD DUP1 PUSH1 0x40 ADD PUSH1 0x40 MSTORE DUP1 DUP4 DUP2 MSTORE PUSH1 0x20 ADD DUP5 DUP2 MSTORE POP SWAP1 DUP1 PUSH1 0x1 DUP2 SLOAD ADD DUP1 DUP3 SSTORE DUP1 SWAP2 POP POP PUSH1 0x1 SWAP1 SUB SWAP1 PUSH1 0x0 MSTORE PUSH1 0x20 PUSH1 0x0 KECCAK256 SWAP1 PUSH1 0x2 MUL ADD PUSH1 0x0 SWAP1 SWAP2 SWAP1 SWAP2 SWAP1 SWAP2 POP PUSH1 0x0 DUP3 ADD MLOAD DUP2 PUSH1 0x0 ADD SSTORE PUSH1 0x20 DUP3 ADD MLOAD DUP2 PUSH1 0x1 ADD SWAP1 DUP1 MLOAD SWAP1 PUSH1 0x20 ADD SWAP1 PUSH2 0x1B1 SWAP3 SWAP2 SWAP1 PUSH2 0x2A0 JUMP JUMPDEST POP POP POP DUP1 PUSH1 0x2 DUP4 PUSH1 0x40 MLOAD PUSH2 0x1C5 SWAP2 SWAP1 PUSH2 0x6C3 JUMP JUMPDEST SWAP1 DUP2 MSTORE PUSH1 0x20 ADD PUSH1 0x40 MLOAD DUP1 SWAP2 SUB SWAP1 KECCAK256 DUP2 SWAP1 SSTORE POP POP POP JUMP JUMPDEST PUSH1 0x1 DUP2 DUP2 SLOAD DUP2 LT PUSH2 0x1EB JUMPI PUSH1 0x0 DUP1 REVERT JUMPDEST SWAP1 PUSH1 0x0 MSTORE PUSH1 0x20 PUSH1 0x0 KECCAK256 SWAP1 PUSH1 0x2 MUL ADD PUSH1 0x0 SWAP2 POP SWAP1 POP DUP1 PUSH1 0x0 ADD SLOAD SWAP1 DUP1 PUSH1 0x1 ADD DUP1 SLOAD PUSH2 0x214 SWAP1 PUSH2 0x709 JUMP JUMPDEST DUP1 PUSH1 0x1F ADD PUSH1 0x20 DUP1 SWAP2 DIV MUL PUSH1 0x20 ADD PUSH1 0x40 MLOAD SWAP1 DUP2 ADD PUSH1 0x40 MSTORE DUP1 SWAP3 SWAP2 SWAP1 DUP2 DUP2 MSTORE PUSH1 0x20 ADD DUP3 DUP1 SLOAD PUSH2 0x240 SWAP1 PUSH2 0x709 JUMP JUMPDEST DUP1 ISZERO PUSH2 0x28D JUMPI DUP1 PUSH1 0x1F LT PUSH2 0x262 JUMPI PUSH2 0x100 DUP1 DUP4 SLOAD DIV MUL DUP4 MSTORE SWAP2 PUSH1 0x20 ADD SWAP2 PUSH2 0x28D JUMP JUMPDEST DUP3 ADD SWAP2 SWAP1 PUSH1 0x0 MSTORE PUSH1 0x20 PUSH1 0x0 KECCAK256 SWAP1 JUMPDEST DUP2 SLOAD DUP2 MSTORE SWAP1 PUSH1 0x1 ADD SWAP1 PUSH1 0x20 ADD DUP1 DUP4 GT PUSH2 0x270 JUMPI DUP3 SWAP1 SUB PUSH1 0x1F AND DUP3 ADD SWAP2 JUMPDEST POP POP POP POP POP SWAP1 POP DUP3 JUMP JUMPDEST PUSH1 0x0 DUP1 SLOAD SWAP1 POP SWAP1 JUMP JUMPDEST DUP3 DUP1 SLOAD PUSH2 0x2AC SWAP1 PUSH2 0x709 JUMP JUMPDEST SWAP1 PUSH1 0x0 MSTORE PUSH1 0x20 PUSH1 0x0 KECCAK256 SWAP1 PUSH1 0x1F ADD PUSH1 0x20 SWAP1 DIV DUP2 ADD SWAP3 DUP3 PUSH2 0x2CE JUMPI PUSH1 0x0 DUP6 SSTORE PUSH2 0x315 JUMP JUMPDEST DUP3 PUSH1 0x1F LT PUSH2 0x2E7 JUMPI DUP1 MLOAD PUSH1 0xFF NOT AND DUP4 DUP1 ADD OR DUP6 SSTORE PUSH2 0x315 JUMP JUMPDEST DUP3 DUP1 ADD PUSH1 0x1 ADD DUP6 SSTORE DUP3 ISZERO PUSH2 0x315 JUMPI SWAP2 DUP3 ADD JUMPDEST DUP3 DUP2 GT ISZERO PUSH2 0x314 JUMPI DUP3 MLOAD DUP3 SSTORE SWAP2 PUSH1 0x20 ADD SWAP2 SWAP1 PUSH1 0x1 ADD SWAP1 PUSH2 0x2F9 JUMP JUMPDEST JUMPDEST POP SWAP1 POP PUSH2 0x322 SWAP2 SWAP1 PUSH2 0x326 JUMP JUMPDEST POP SWAP1 JUMP JUMPDEST JUMPDEST DUP1 DUP3 GT ISZERO PUSH2 0x33F JUMPI PUSH1 0x0 DUP2 PUSH1 0x0 SWAP1 SSTORE POP PUSH1 0x1 ADD PUSH2 0x327 JUMP JUMPDEST POP SWAP1 JUMP JUMPDEST PUSH1 0x0 PUSH1 0x40 MLOAD SWAP1 POP SWAP1 JUMP JUMPDEST PUSH1 0x0 DUP1 REVERT JUMPDEST PUSH1 0x0 DUP1 REVERT JUMPDEST PUSH1 0x0 DUP2 SWAP1 POP SWAP2 SWAP1 POP JUMP JUMPDEST PUSH2 0x36A DUP2 PUSH2 0x357 JUMP JUMPDEST DUP2 EQ PUSH2 0x375 JUMPI PUSH1 0x0 DUP1 REVERT JUMPDEST POP JUMP JUMPDEST PUSH1 0x0 DUP2 CALLDATALOAD SWAP1 POP PUSH2 0x387 DUP2 PUSH2 0x361 JUMP JUMPDEST SWAP3 SWAP2 POP POP JUMP JUMPDEST PUSH1 0x0 PUSH1 0x20 DUP3 DUP5 SUB SLT ISZERO PUSH2 0x3A3 JUMPI PUSH2 0x3A2 PUSH2 0x34D JUMP JUMPDEST JUMPDEST PUSH1 0x0 PUSH2 0x3B1 DUP5 DUP3 DUP6 ADD PUSH2 0x378 JUMP JUMPDEST SWAP2 POP POP SWAP3 SWAP2 POP POP JUMP JUMPDEST PUSH1 0x0 DUP1 REVERT JUMPDEST PUSH1 0x0 DUP1 REVERT JUMPDEST PUSH1 0x0 PUSH1 0x1F NOT PUSH1 0x1F DUP4 ADD AND SWAP1 POP SWAP2 SWAP1 POP JUMP JUMPDEST PUSH32 0x4E487B7100000000000000000000000000000000000000000000000000000000 PUSH1 0x0 MSTORE PUSH1 0x41 PUSH1 0x4 MSTORE PUSH1 0x24 PUSH1 0x0 REVERT JUMPDEST PUSH2 0x40D DUP3 PUSH2 0x3C4 JUMP JUMPDEST DUP2 ADD DUP2 DUP2 LT PUSH8 0xFFFFFFFFFFFFFFFF DUP3 GT OR ISZERO PUSH2 0x42C JUMPI PUSH2 0x42B PUSH2 0x3D5 JUMP JUMPDEST JUMPDEST DUP1 PUSH1 0x40 MSTORE POP POP POP JUMP JUMPDEST PUSH1 0x0 PUSH2 0x43F PUSH2 0x343 JUMP JUMPDEST SWAP1 POP PUSH2 0x44B DUP3 DUP3 PUSH2 0x404 JUMP JUMPDEST SWAP2 SWAP1 POP JUMP JUMPDEST PUSH1 0x0 PUSH8 0xFFFFFFFFFFFFFFFF DUP3 GT ISZERO PUSH2 0x46B JUMPI PUSH2 0x46A PUSH2 0x3D5 JUMP JUMPDEST JUMPDEST PUSH2 0x474 DUP3 PUSH2 0x3C4 JUMP JUMPDEST SWAP1 POP PUSH1 0x20 DUP2 ADD SWAP1 POP SWAP2 SWAP1 POP JUMP JUMPDEST DUP3 DUP2 DUP4 CALLDATACOPY PUSH1 0x0 DUP4 DUP4 ADD MSTORE POP POP POP JUMP JUMPDEST PUSH1 0x0 PUSH2 0x4A3 PUSH2 0x49E DUP5 PUSH2 0x450 JUMP JUMPDEST PUSH2 0x435 JUMP JUMPDEST SWAP1 POP DUP3 DUP2 MSTORE PUSH1 0x20 DUP2 ADD DUP5 DUP5 DUP5 ADD GT ISZERO PUSH2 0x4BF JUMPI PUSH2 0x4BE PUSH2 0x3BF JUMP JUMPDEST JUMPDEST PUSH2 0x4CA DUP5 DUP3 DUP6 PUSH2 0x481 JUMP JUMPDEST POP SWAP4 SWAP3 POP POP POP JUMP JUMPDEST PUSH1 0x0 DUP3 PUSH1 0x1F DUP4 ADD SLT PUSH2 0x4E7 JUMPI PUSH2 0x4E6 PUSH2 0x3BA JUMP JUMPDEST JUMPDEST DUP2 CALLDATALOAD PUSH2 0x4F7 DUP5 DUP3 PUSH1 0x20 DUP7 ADD PUSH2 0x490 JUMP JUMPDEST SWAP2 POP POP SWAP3 SWAP2 POP POP JUMP JUMPDEST PUSH1 0x0 PUSH1 0x20 DUP3 DUP5 SUB SLT ISZERO PUSH2 0x516 JUMPI PUSH2 0x515 PUSH2 0x34D JUMP JUMPDEST JUMPDEST PUSH1 0x0 DUP3 ADD CALLDATALOAD PUSH8 0xFFFFFFFFFFFFFFFF DUP2 GT ISZERO PUSH2 0x534 JUMPI PUSH2 0x533 PUSH2 0x352 JUMP JUMPDEST JUMPDEST PUSH2 0x540 DUP5 DUP3 DUP6 ADD PUSH2 0x4D2 JUMP JUMPDEST SWAP2 POP POP SWAP3 SWAP2 POP POP JUMP JUMPDEST PUSH2 0x552 DUP2 PUSH2 0x357 JUMP JUMPDEST DUP3 MSTORE POP POP JUMP JUMPDEST PUSH1 0x0 PUSH1 0x20 DUP3 ADD SWAP1 POP PUSH2 0x56D PUSH1 0x0 DUP4 ADD DUP5 PUSH2 0x549 JUMP JUMPDEST SWAP3 SWAP2 POP POP JUMP JUMPDEST PUSH1 0x0 DUP1 PUSH1 0x40 DUP4 DUP6 SUB SLT ISZERO PUSH2 0x58A JUMPI PUSH2 0x589 PUSH2 0x34D JUMP JUMPDEST JUMPDEST PUSH1 0x0 DUP4 ADD CALLDATALOAD PUSH8 0xFFFFFFFFFFFFFFFF DUP2 GT ISZERO PUSH2 0x5A8 JUMPI PUSH2 0x5A7 PUSH2 0x352 JUMP JUMPDEST JUMPDEST PUSH2 0x5B4 DUP6 DUP3 DUP7 ADD PUSH2 0x4D2 JUMP JUMPDEST SWAP3 POP POP PUSH1 0x20 PUSH2 0x5C5 DUP6 DUP3 DUP7 ADD PUSH2 0x378 JUMP JUMPDEST SWAP2 POP POP SWAP3 POP SWAP3 SWAP1 POP JUMP JUMPDEST PUSH1 0x0 DUP2 MLOAD SWAP1 POP SWAP2 SWAP1 POP JUMP JUMPDEST PUSH1 0x0 DUP3 DUP3 MSTORE PUSH1 0x20 DUP3 ADD SWAP1 POP SWAP3 SWAP2 POP POP JUMP JUMPDEST PUSH1 0x0 JUMPDEST DUP4 DUP2 LT ISZERO PUSH2 0x609 JUMPI DUP1 DUP3 ADD MLOAD DUP2 DUP5 ADD MSTORE PUSH1 0x20 DUP2 ADD SWAP1 POP PUSH2 0x5EE JUMP JUMPDEST DUP4 DUP2 GT ISZERO PUSH2 0x618 JUMPI PUSH1 0x0 DUP5 DUP5 ADD MSTORE JUMPDEST POP POP POP POP JUMP JUMPDEST PUSH1 0x0 PUSH2 0x629 DUP3 PUSH2 0x5CF JUMP JUMPDEST PUSH2 0x633 DUP2 DUP6 PUSH2 0x5DA JUMP JUMPDEST SWAP4 POP PUSH2 0x643 DUP2 DUP6 PUSH1 0x20 DUP7 ADD PUSH2 0x5EB JUMP JUMPDEST PUSH2 0x64C DUP2 PUSH2 0x3C4 JUMP JUMPDEST DUP5 ADD SWAP2 POP POP SWAP3 SWAP2 POP POP JUMP JUMPDEST PUSH1 0x0 PUSH1 0x40 DUP3 ADD SWAP1 POP PUSH2 0x66C PUSH1 0x0 DUP4 ADD DUP6 PUSH2 0x549 JUMP JUMPDEST DUP2 DUP2 SUB PUSH1 0x20 DUP4 ADD MSTORE PUSH2 0x67E DUP2 DUP5 PUSH2 0x61E JUMP JUMPDEST SWAP1 POP SWAP4 SWAP3 POP POP POP JUMP JUMPDEST PUSH1 0x0 DUP2 SWAP1 POP SWAP3 SWAP2 POP POP JUMP JUMPDEST PUSH1 0x0 PUSH2 0x69D DUP3 PUSH2 0x5CF JUMP JUMPDEST PUSH2 0x6A7 DUP2 DUP6 PUSH2 0x687 JUMP JUMPDEST SWAP4 POP PUSH2 0x6B7 DUP2 DUP6 PUSH1 0x20 DUP7 ADD PUSH2 0x5EB JUMP JUMPDEST DUP1 DUP5 ADD SWAP2 POP POP SWAP3 SWAP2 POP POP JUMP JUMPDEST PUSH1 0x0 PUSH2 0x6CF DUP3 DUP5 PUSH2 0x692 JUMP JUMPDEST SWAP2 POP DUP2 SWAP1 POP SWAP3 SWAP2 POP POP JUMP JUMPDEST PUSH32 0x4E487B7100000000000000000000000000000000000000000000000000000000 PUSH1 0x0 MSTORE PUSH1 0x22 PUSH1 0x4 MSTORE PUSH1 0x24 PUSH1 0x0 REVERT JUMPDEST PUSH1 0x0 PUSH1 0x2 DUP3 DIV SWAP1 POP PUSH1 0x1 DUP3 AND DUP1 PUSH2 0x721 JUMPI PUSH1 0x7F DUP3 AND SWAP2 POP JUMPDEST PUSH1 0x20 DUP3 LT DUP2 EQ ISZERO PUSH2 0x735 JUMPI PUSH2 0x734 PUSH2 0x6DA JUMP JUMPDEST JUMPDEST POP SWAP2 SWAP1 POP JUMP INVALID LOG2 PUSH5 0x6970667358 0x22 SLT KECCAK256 SWAP16 0xB4 0xD 0xDC 0xE8 SWAP1 SWAP13 PUSH19 0x4009C7DADB6FC8182F2498DD9B64C32596AE34 PUSH8 0xB541B82864736F6C PUSH4 0x43000808 STOP CALLER "
				},
				"gasEstimates": {
					"creation": {
						"codeDepositCost": "381000",
						"executionCost": "418",
						"totalCost": "381418"
					},
					"external": {
						"addPeople(string,uint256)": "infinite",
						"people(uint256)": "infinite",
						"personMapping(string)": "infinite",
						"retrive()": "2503",
						"store(uint256)": "22498"
					}
				},
				"methodIdentifiers": {
					"addPeople(string,uint256)": "795fff1d",
					"people(uint256)": "9e7a13ad",
					"personMapping(string)": "6def8172",
					"retrive()": "a6b7fc5b",
					"store(uint256)": "6057361d"
				}
			},
			"storageLayout": {
				"storage": [
					{
						"astId": 3,
						"contract": "contracts/SimpleStorage.sol:SimpleStorage",
						"label": "favNumber",
						"offset": 0,
						"slot": "0",
						"type": "t_uint256"
					},
					{
						"astId": 12,
						"contract": "contracts/SimpleStorage.sol:SimpleStorage",
						"label": "people",
						"offset": 0,
						"slot": "1",
						"type": "t_array(t_struct(People)8_storage)dyn_storage"
					},
					{
						"astId": 16,
						"contract": "contracts/SimpleStorage.sol:SimpleStorage",
						"label": "personMapping",
						"offset": 0,
						"slot": "2",
						"type": "t_mapping(t_string_memory_ptr,t_uint256)"
					}
				],
				"types": {
					"t_array(t_struct(People)8_storage)dyn_storage": {
						"base": "t_struct(People)8_storage",
						"encoding": "dynamic_array",
						"label": "struct SimpleStorage.People[]",
						"numberOfBytes": "32"
					},
					"t_mapping(t_string_memory_ptr,t_uint256)": {
						"encoding": "mapping",
						"key": "t_string_memory_ptr",
						"label": "mapping(string => uint256)",
						"numberOfBytes": "32",
						"value": "t_uint256"
					},
					"t_string_memory_ptr": {
						"encoding": "bytes",
						"label": "string",
						"numberOfBytes": "32"
					},
					"t_string_storage": {
						"encoding": "bytes",
						"label": "string",
						"numberOfBytes": "32"
					},
					"t_struct(People)8_storage": {
						"encoding": "inplace",
						"label": "struct SimpleStorage.People",
						"members": [
							{
								"astId": 5,
								"contract": "contracts/SimpleStorage.sol:SimpleStorage",
								"label": "number",
								"offset": 0,
								"slot": "0",
								"type": "t_uint256"
							},
							{
								"astId": 7,
								"contract": "contracts/SimpleStorage.sol:SimpleStorage",
								"label": "name",
								"offset": 0,
								"slot": "1",
								"type": "t_string_storage"
							}
						],
						"numberOfBytes": "64"
					},
					"t_uint256": {
						"encoding": "inplace",
						"label": "uint256",
						"numberOfBytes": "32"
					}
				}
			},
			"userdoc": {
				"kind": "user",
				"methods": {},
				"version": 1
			}
		}
	}
}