{
	"contracts/FundMe.sol": {
		"FundMe": {
			"abi": [
				{
					"inputs": [],
					"stateMutability": "nonpayable",
					"type": "constructor"
				},
				{
					"inputs": [],
					"name": "fund",
					"outputs": [],
					"stateMutability": "payable",
					"type": "function"
				},
				{
					"inputs": [
						{
							"internalType": "uint256",
							"name": "",
							"type": "uint256"
						}
					],
					"name": "funders",
					"outputs": [
						{
							"internalType": "address",
							"name": "",
							"type": "address"
						}
					],
					"stateMutability": "view",
					"type": "function"
				},
				{
					"inputs": [],
					"name": "owner",
					"outputs": [
						{
							"internalType": "address",
							"name": "",
							"type": "address"
						}
					],
					"stateMutability": "view",
					"type": "function"
				},
				{
					"inputs": [],
					"name": "withdraw",
					"outputs": [],
					"stateMutability": "nonpayable",
					"type": "function"
				}
			],
			"devdoc": {
				"kind": "dev",
				"methods": {},
				"version": 1
			},
			"evm": {
				"assembly": "    /* \"contracts/FundMe.sol\":89:1513  contract FundMe {... */\n  mstore(0x40, 0x80)\n    /* \"contracts/FundMe.sol\":166:168  50 */\n  0x32\n    /* \"contracts/FundMe.sol\":149:168  uint256 minUsd = 50 */\n  0x00\n  sstore\n    /* \"contracts/FundMe.sol\":280:328  constructor(){... */\n  callvalue\n  dup1\n  iszero\n  tag_1\n  jumpi\n  0x00\n  dup1\n  revert\ntag_1:\n  pop\n    /* \"contracts/FundMe.sol\":311:321  msg.sender */\n  caller\n    /* \"contracts/FundMe.sol\":303:308  owner */\n  0x03\n  0x00\n    /* \"contracts/FundMe.sol\":303:321  owner = msg.sender */\n  0x0100\n  exp\n  dup2\n  sload\n  dup2\n  0xffffffffffffffffffffffffffffffffffffffff\n  mul\n  not\n  and\n  swap1\n  dup4\n  0xffffffffffffffffffffffffffffffffffffffff\n  and\n  mul\n  or\n  swap1\n  sstore\n  pop\n    /* \"contracts/FundMe.sol\":89:1513  contract FundMe {... */\n  dataSize(sub_0)\n  dup1\n  dataOffset(sub_0)\n  0x00\n  codecopy\n  0x00\n  return\nstop\n\nsub_0: assembly {\n        /* \"contracts/FundMe.sol\":89:1513  contract FundMe {... */\n      mstore(0x40, 0x80)\n      jumpi(tag_1, lt(calldatasize, 0x04))\n      shr(0xe0, calldataload(0x00))\n      dup1\n      0x3ccfd60b\n      eq\n      tag_2\n      jumpi\n      dup1\n      0x8da5cb5b\n      eq\n      tag_3\n      jumpi\n      dup1\n      0xb60d4288\n      eq\n      tag_4\n      jumpi\n      dup1\n      0xdc0d3dff\n      eq\n      tag_5\n      jumpi\n    tag_1:\n      0x00\n      dup1\n      revert\n        /* \"contracts/FundMe.sol\":672:1396  function withdraw() public VarifyOwner {... */\n    tag_2:\n      callvalue\n      dup1\n      iszero\n      tag_6\n      jumpi\n      0x00\n      dup1\n      revert\n    tag_6:\n      pop\n      tag_7\n      tag_8\n      jump\t// in\n    tag_7:\n      stop\n        /* \"contracts/FundMe.sol\":253:273  address public owner */\n    tag_3:\n      callvalue\n      dup1\n      iszero\n      tag_9\n      jumpi\n      0x00\n      dup1\n      revert\n    tag_9:\n      pop\n      tag_10\n      tag_11\n      jump\t// in\n    tag_10:\n      mload(0x40)\n      tag_12\n      swap2\n      swap1\n      tag_13\n      jump\t// in\n    tag_12:\n      mload(0x40)\n      dup1\n      swap2\n      sub\n      swap1\n      return\n        /* \"contracts/FundMe.sol\":334:661  function fund() public payable {... */\n    tag_4:\n      tag_14\n      tag_15\n      jump\t// in\n    tag_14:\n      stop\n        /* \"contracts/FundMe.sol\":174:198  address[] public funders */\n    tag_5:\n      callvalue\n      dup1\n      iszero\n      tag_16\n      jumpi\n      0x00\n      dup1\n      revert\n    tag_16:\n      pop\n      tag_17\n      0x04\n      dup1\n      calldatasize\n      sub\n      dup2\n      add\n      swap1\n      tag_18\n      swap2\n      swap1\n      tag_19\n      jump\t// in\n    tag_18:\n      tag_20\n      jump\t// in\n    tag_17:\n      mload(0x40)\n      tag_21\n      swap2\n      swap1\n      tag_13\n      jump\t// in\n    tag_21:\n      mload(0x40)\n      dup1\n      swap2\n      sub\n      swap1\n      return\n        /* \"contracts/FundMe.sol\":672:1396  function withdraw() public VarifyOwner {... */\n    tag_8:\n        /* \"contracts/FundMe.sol\":1451:1461  msg.sender */\n      caller\n        /* \"contracts/FundMe.sol\":1442:1461  owner == msg.sender */\n      0xffffffffffffffffffffffffffffffffffffffff\n      and\n        /* \"contracts/FundMe.sol\":1442:1447  owner */\n      0x03\n      0x00\n      swap1\n      sload\n      swap1\n      0x0100\n      exp\n      swap1\n      div\n      0xffffffffffffffffffffffffffffffffffffffff\n      and\n        /* \"contracts/FundMe.sol\":1442:1461  owner == msg.sender */\n      0xffffffffffffffffffffffffffffffffffffffff\n      and\n      eq\n        /* \"contracts/FundMe.sol\":1434:1493  require(owner == msg.sender, \"You don't have permissions.\") */\n      tag_23\n      jumpi\n      mload(0x40)\n      0x08c379a000000000000000000000000000000000000000000000000000000000\n      dup2\n      mstore\n      0x04\n      add\n      tag_24\n      swap1\n      tag_25\n      jump\t// in\n    tag_24:\n      mload(0x40)\n      dup1\n      swap2\n      sub\n      swap1\n      revert\n    tag_23:\n        /* \"contracts/FundMe.sol\":725:738  uint256 index */\n      0x00\n        /* \"contracts/FundMe.sol\":721:835  for(uint256 index = 0; index< funders.length; index++){... */\n    tag_27:\n        /* \"contracts/FundMe.sol\":751:758  funders */\n      0x01\n        /* \"contracts/FundMe.sol\":751:765  funders.length */\n      dup1\n      sload\n      swap1\n      pop\n        /* \"contracts/FundMe.sol\":744:749  index */\n      dup2\n        /* \"contracts/FundMe.sol\":744:765  index< funders.length */\n      lt\n        /* \"contracts/FundMe.sol\":721:835  for(uint256 index = 0; index< funders.length; index++){... */\n      iszero\n      tag_28\n      jumpi\n        /* \"contracts/FundMe.sol\":823:824  0 */\n      0x00\n        /* \"contracts/FundMe.sol\":789:804  addressToAmount */\n      0x02\n        /* \"contracts/FundMe.sol\":789:820  addressToAmount[funders[index]] */\n      0x00\n        /* \"contracts/FundMe.sol\":805:812  funders */\n      0x01\n        /* \"contracts/FundMe.sol\":813:818  index */\n      dup5\n        /* \"contracts/FundMe.sol\":805:819  funders[index] */\n      dup2\n      sload\n      dup2\n      lt\n      tag_30\n      jumpi\n      tag_31\n      tag_32\n      jump\t// in\n    tag_31:\n    tag_30:\n      swap1\n      0x00\n      mstore\n      keccak256(0x00, 0x20)\n      add\n      0x00\n      swap1\n      sload\n      swap1\n      0x0100\n      exp\n      swap1\n      div\n      0xffffffffffffffffffffffffffffffffffffffff\n      and\n        /* \"contracts/FundMe.sol\":789:820  addressToAmount[funders[index]] */\n      0xffffffffffffffffffffffffffffffffffffffff\n      and\n      0xffffffffffffffffffffffffffffffffffffffff\n      and\n      dup2\n      mstore\n      0x20\n      add\n      swap1\n      dup2\n      mstore\n      0x20\n      add\n      0x00\n      keccak256\n        /* \"contracts/FundMe.sol\":789:824  addressToAmount[funders[index]] = 0 */\n      dup2\n      swap1\n      sstore\n      pop\n        /* \"contracts/FundMe.sol\":767:774  index++ */\n      dup1\n      dup1\n      tag_34\n      swap1\n      tag_35\n      jump\t// in\n    tag_34:\n      swap2\n      pop\n      pop\n        /* \"contracts/FundMe.sol\":721:835  for(uint256 index = 0; index< funders.length; index++){... */\n      jump(tag_27)\n    tag_28:\n      pop\n        /* \"contracts/FundMe.sol\":869:870  0 */\n      0x00\n        /* \"contracts/FundMe.sol\":855:871  new address[](0) */\n      0xffffffffffffffff\n      dup2\n      gt\n      iszero\n      tag_36\n      jumpi\n      tag_37\n      tag_38\n      jump\t// in\n    tag_37:\n    tag_36:\n      mload(0x40)\n      swap1\n      dup1\n      dup3\n      mstore\n      dup1\n      0x20\n      mul\n      0x20\n      add\n      dup3\n      add\n      0x40\n      mstore\n      dup1\n      iszero\n      tag_39\n      jumpi\n      dup2\n      0x20\n      add\n      0x20\n      dup3\n      mul\n      dup1\n      calldatasize\n      dup4\n      calldatacopy\n      dup1\n      dup3\n      add\n      swap2\n      pop\n      pop\n      swap1\n      pop\n    tag_39:\n      pop\n        /* \"contracts/FundMe.sol\":845:852  funders */\n      0x01\n        /* \"contracts/FundMe.sol\":845:871  funders = new address[](0) */\n      swap1\n      dup1\n      mload\n      swap1\n      0x20\n      add\n      swap1\n      tag_40\n      swap3\n      swap2\n      swap1\n      tag_41\n      jump\t// in\n    tag_40:\n      pop\n        /* \"contracts/FundMe.sol\":1267:1283  bool callSuccess */\n      0x00\n        /* \"contracts/FundMe.sol\":1295:1305  msg.sender */\n      caller\n        /* \"contracts/FundMe.sol\":1287:1311  payable(msg.sender).call */\n      0xffffffffffffffffffffffffffffffffffffffff\n      and\n        /* \"contracts/FundMe.sol\":1319:1340  address(this).balance */\n      selfbalance\n        /* \"contracts/FundMe.sol\":1287:1345  payable(msg.sender).call{value: address(this).balance}(\"\") */\n      mload(0x40)\n      tag_42\n      swap1\n      tag_43\n      jump\t// in\n    tag_42:\n      0x00\n      mload(0x40)\n      dup1\n      dup4\n      sub\n      dup2\n      dup6\n      dup8\n      gas\n      call\n      swap3\n      pop\n      pop\n      pop\n      returndatasize\n      dup1\n      0x00\n      dup2\n      eq\n      tag_46\n      jumpi\n      mload(0x40)\n      swap2\n      pop\n      and(add(returndatasize, 0x3f), not(0x1f))\n      dup3\n      add\n      0x40\n      mstore\n      returndatasize\n      dup3\n      mstore\n      returndatasize\n      0x00\n      0x20\n      dup5\n      add\n      returndatacopy\n      jump(tag_45)\n    tag_46:\n      0x60\n      swap2\n      pop\n    tag_45:\n      pop\n        /* \"contracts/FundMe.sol\":1266:1345  (bool callSuccess,)= payable(msg.sender).call{value: address(this).balance}(\"\") */\n      pop\n      swap1\n      pop\n        /* \"contracts/FundMe.sol\":1363:1374  callSuccess */\n      dup1\n        /* \"contracts/FundMe.sol\":1355:1389  require(callSuccess, \"Call Faild\") */\n      tag_47\n      jumpi\n      mload(0x40)\n      0x08c379a000000000000000000000000000000000000000000000000000000000\n      dup2\n      mstore\n      0x04\n      add\n      tag_48\n      swap1\n      tag_49\n      jump\t// in\n    tag_48:\n      mload(0x40)\n      dup1\n      swap2\n      sub\n      swap1\n      revert\n    tag_47:\n        /* \"contracts/FundMe.sol\":711:1396  {... */\n      pop\n        /* \"contracts/FundMe.sol\":672:1396  function withdraw() public VarifyOwner {... */\n      jump\t// out\n        /* \"contracts/FundMe.sol\":253:273  address public owner */\n    tag_11:\n      0x03\n      0x00\n      swap1\n      sload\n      swap1\n      0x0100\n      exp\n      swap1\n      div\n      0xffffffffffffffffffffffffffffffffffffffff\n      and\n      dup2\n      jump\t// out\n        /* \"contracts/FundMe.sol\":334:661  function fund() public payable {... */\n    tag_15:\n        /* \"contracts/FundMe.sol\":416:422  minUsd */\n      sload(0x00)\n        /* \"contracts/FundMe.sol\":383:392  msg.value */\n      callvalue\n        /* \"contracts/FundMe.sol\":383:410  msg.value.getConversionRate */\n      linkerSymbol(\"ee5333b9f3bf6448fe7cd0ff78e98acd668e2dee96b5e9a10d2c42e89138df23\")\n      0x6e5b6b28\n      swap1\n      swap2\n        /* \"contracts/FundMe.sol\":383:412  msg.value.getConversionRate() */\n      mload(0x40)\n      dup3\n      0xffffffff\n      and\n      0xe0\n      shl\n      dup2\n      mstore\n      0x04\n      add\n      tag_51\n      swap2\n      swap1\n      tag_52\n      jump\t// in\n    tag_51:\n      0x20\n      mload(0x40)\n      dup1\n      dup4\n      sub\n      dup2\n      dup7\n      dup1\n      extcodesize\n      iszero\n      dup1\n      iszero\n      tag_53\n      jumpi\n      0x00\n      dup1\n      revert\n    tag_53:\n      pop\n      gas\n      delegatecall\n      iszero\n      dup1\n      iszero\n      tag_55\n      jumpi\n      returndatasize\n      0x00\n      dup1\n      returndatacopy\n      revert(0x00, returndatasize)\n    tag_55:\n      pop\n      pop\n      pop\n      pop\n      mload(0x40)\n      returndatasize\n      not(0x1f)\n      0x1f\n      dup3\n      add\n      and\n      dup3\n      add\n      dup1\n      0x40\n      mstore\n      pop\n      dup2\n      add\n      swap1\n      tag_56\n      swap2\n      swap1\n      tag_57\n      jump\t// in\n    tag_56:\n        /* \"contracts/FundMe.sol\":383:422  msg.value.getConversionRate() >= minUsd */\n      lt\n      iszero\n        /* \"contracts/FundMe.sol\":375:445  require(msg.value.getConversionRate() >= minUsd, \"Didn't enugh money\") */\n      tag_58\n      jumpi\n      mload(0x40)\n      0x08c379a000000000000000000000000000000000000000000000000000000000\n      dup2\n      mstore\n      0x04\n      add\n      tag_59\n      swap1\n      tag_60\n      jump\t// in\n    tag_59:\n      mload(0x40)\n      dup1\n      swap2\n      sub\n      swap1\n      revert\n    tag_58:\n        /* \"contracts/FundMe.sol\":581:588  funders */\n      0x01\n        /* \"contracts/FundMe.sol\":594:604  msg.sender */\n      caller\n        /* \"contracts/FundMe.sol\":581:605  funders.push(msg.sender) */\n      swap1\n      dup1\n      0x01\n      dup2\n      sload\n      add\n      dup1\n      dup3\n      sstore\n      dup1\n      swap2\n      pop\n      pop\n      0x01\n      swap1\n      sub\n      swap1\n      0x00\n      mstore\n      keccak256(0x00, 0x20)\n      add\n      0x00\n      swap1\n      swap2\n      swap1\n      swap2\n      swap1\n      swap2\n      0x0100\n      exp\n      dup2\n      sload\n      dup2\n      0xffffffffffffffffffffffffffffffffffffffff\n      mul\n      not\n      and\n      swap1\n      dup4\n      0xffffffffffffffffffffffffffffffffffffffff\n      and\n      mul\n      or\n      swap1\n      sstore\n      pop\n        /* \"contracts/FundMe.sol\":645:654  msg.value */\n      callvalue\n        /* \"contracts/FundMe.sol\":615:630  addressToAmount */\n      0x02\n        /* \"contracts/FundMe.sol\":615:642  addressToAmount[msg.sender] */\n      0x00\n        /* \"contracts/FundMe.sol\":631:641  msg.sender */\n      caller\n        /* \"contracts/FundMe.sol\":615:642  addressToAmount[msg.sender] */\n      0xffffffffffffffffffffffffffffffffffffffff\n      and\n      0xffffffffffffffffffffffffffffffffffffffff\n      and\n      dup2\n      mstore\n      0x20\n      add\n      swap1\n      dup2\n      mstore\n      0x20\n      add\n      0x00\n      keccak256\n        /* \"contracts/FundMe.sol\":615:654  addressToAmount[msg.sender] = msg.value */\n      dup2\n      swap1\n      sstore\n      pop\n        /* \"contracts/FundMe.sol\":334:661  function fund() public payable {... */\n      jump\t// out\n        /* \"contracts/FundMe.sol\":174:198  address[] public funders */\n    tag_20:\n      0x01\n      dup2\n      dup2\n      sload\n      dup2\n      lt\n      tag_62\n      jumpi\n      0x00\n      dup1\n      revert\n    tag_62:\n      swap1\n      0x00\n      mstore\n      keccak256(0x00, 0x20)\n      add\n      0x00\n      swap2\n      pop\n      sload\n      swap1\n      0x0100\n      exp\n      swap1\n      div\n      0xffffffffffffffffffffffffffffffffffffffff\n      and\n      dup2\n      jump\t// out\n    tag_41:\n      dup3\n      dup1\n      sload\n      dup3\n      dup3\n      sstore\n      swap1\n      0x00\n      mstore\n      keccak256(0x00, 0x20)\n      swap1\n      dup2\n      add\n      swap3\n      dup3\n      iszero\n      tag_64\n      jumpi\n      swap2\n      0x20\n      mul\n      dup3\n      add\n    tag_65:\n      dup3\n      dup2\n      gt\n      iszero\n      tag_66\n      jumpi\n      dup3\n      mload\n      dup3\n      exp(0x0100, 0x00)\n      dup2\n      sload\n      dup2\n      0xffffffffffffffffffffffffffffffffffffffff\n      mul\n      not\n      and\n      swap1\n      dup4\n      0xffffffffffffffffffffffffffffffffffffffff\n      and\n      mul\n      or\n      swap1\n      sstore\n      pop\n      swap2\n      0x20\n      add\n      swap2\n      swap1\n      0x01\n      add\n      swap1\n      jump(tag_65)\n    tag_66:\n    tag_64:\n      pop\n      swap1\n      pop\n      tag_67\n      swap2\n      swap1\n      tag_68\n      jump\t// in\n    tag_67:\n      pop\n      swap1\n      jump\t// out\n    tag_68:\n    tag_69:\n      dup1\n      dup3\n      gt\n      iszero\n      tag_70\n      jumpi\n      0x00\n      dup2\n      0x00\n      swap1\n      sstore\n      pop\n      0x01\n      add\n      jump(tag_69)\n    tag_70:\n      pop\n      swap1\n      jump\t// out\n        /* \"#utility.yul\":7:133   */\n    tag_71:\n        /* \"#utility.yul\":44:51   */\n      0x00\n        /* \"#utility.yul\":84:126   */\n      0xffffffffffffffffffffffffffffffffffffffff\n        /* \"#utility.yul\":77:82   */\n      dup3\n        /* \"#utility.yul\":73:127   */\n      and\n        /* \"#utility.yul\":62:127   */\n      swap1\n      pop\n        /* \"#utility.yul\":7:133   */\n      swap2\n      swap1\n      pop\n      jump\t// out\n        /* \"#utility.yul\":139:235   */\n    tag_72:\n        /* \"#utility.yul\":176:183   */\n      0x00\n        /* \"#utility.yul\":205:229   */\n      tag_96\n        /* \"#utility.yul\":223:228   */\n      dup3\n        /* \"#utility.yul\":205:229   */\n      tag_71\n      jump\t// in\n    tag_96:\n        /* \"#utility.yul\":194:229   */\n      swap1\n      pop\n        /* \"#utility.yul\":139:235   */\n      swap2\n      swap1\n      pop\n      jump\t// out\n        /* \"#utility.yul\":241:359   */\n    tag_73:\n        /* \"#utility.yul\":328:352   */\n      tag_98\n        /* \"#utility.yul\":346:351   */\n      dup2\n        /* \"#utility.yul\":328:352   */\n      tag_72\n      jump\t// in\n    tag_98:\n        /* \"#utility.yul\":323:326   */\n      dup3\n        /* \"#utility.yul\":316:353   */\n      mstore\n        /* \"#utility.yul\":241:359   */\n      pop\n      pop\n      jump\t// out\n        /* \"#utility.yul\":365:587   */\n    tag_13:\n        /* \"#utility.yul\":458:462   */\n      0x00\n        /* \"#utility.yul\":496:498   */\n      0x20\n        /* \"#utility.yul\":485:494   */\n      dup3\n        /* \"#utility.yul\":481:499   */\n      add\n        /* \"#utility.yul\":473:499   */\n      swap1\n      pop\n        /* \"#utility.yul\":509:580   */\n      tag_100\n        /* \"#utility.yul\":577:578   */\n      0x00\n        /* \"#utility.yul\":566:575   */\n      dup4\n        /* \"#utility.yul\":562:579   */\n      add\n        /* \"#utility.yul\":553:559   */\n      dup5\n        /* \"#utility.yul\":509:580   */\n      tag_73\n      jump\t// in\n    tag_100:\n        /* \"#utility.yul\":365:587   */\n      swap3\n      swap2\n      pop\n      pop\n      jump\t// out\n        /* \"#utility.yul\":674:791   */\n    tag_75:\n        /* \"#utility.yul\":783:784   */\n      0x00\n        /* \"#utility.yul\":780:781   */\n      dup1\n        /* \"#utility.yul\":773:785   */\n      revert\n        /* \"#utility.yul\":920:997   */\n    tag_77:\n        /* \"#utility.yul\":957:964   */\n      0x00\n        /* \"#utility.yul\":986:991   */\n      dup2\n        /* \"#utility.yul\":975:991   */\n      swap1\n      pop\n        /* \"#utility.yul\":920:997   */\n      swap2\n      swap1\n      pop\n      jump\t// out\n        /* \"#utility.yul\":1003:1125   */\n    tag_78:\n        /* \"#utility.yul\":1076:1100   */\n      tag_106\n        /* \"#utility.yul\":1094:1099   */\n      dup2\n        /* \"#utility.yul\":1076:1100   */\n      tag_77\n      jump\t// in\n    tag_106:\n        /* \"#utility.yul\":1069:1074   */\n      dup2\n        /* \"#utility.yul\":1066:1101   */\n      eq\n        /* \"#utility.yul\":1056:1119   */\n      tag_107\n      jumpi\n        /* \"#utility.yul\":1115:1116   */\n      0x00\n        /* \"#utility.yul\":1112:1113   */\n      dup1\n        /* \"#utility.yul\":1105:1117   */\n      revert\n        /* \"#utility.yul\":1056:1119   */\n    tag_107:\n        /* \"#utility.yul\":1003:1125   */\n      pop\n      jump\t// out\n        /* \"#utility.yul\":1131:1270   */\n    tag_79:\n        /* \"#utility.yul\":1177:1182   */\n      0x00\n        /* \"#utility.yul\":1215:1221   */\n      dup2\n        /* \"#utility.yul\":1202:1222   */\n      calldataload\n        /* \"#utility.yul\":1193:1222   */\n      swap1\n      pop\n        /* \"#utility.yul\":1231:1264   */\n      tag_109\n        /* \"#utility.yul\":1258:1263   */\n      dup2\n        /* \"#utility.yul\":1231:1264   */\n      tag_78\n      jump\t// in\n    tag_109:\n        /* \"#utility.yul\":1131:1270   */\n      swap3\n      swap2\n      pop\n      pop\n      jump\t// out\n        /* \"#utility.yul\":1276:1605   */\n    tag_19:\n        /* \"#utility.yul\":1335:1341   */\n      0x00\n        /* \"#utility.yul\":1384:1386   */\n      0x20\n        /* \"#utility.yul\":1372:1381   */\n      dup3\n        /* \"#utility.yul\":1363:1370   */\n      dup5\n        /* \"#utility.yul\":1359:1382   */\n      sub\n        /* \"#utility.yul\":1355:1387   */\n      slt\n        /* \"#utility.yul\":1352:1471   */\n      iszero\n      tag_111\n      jumpi\n        /* \"#utility.yul\":1390:1469   */\n      tag_112\n      tag_75\n      jump\t// in\n    tag_112:\n        /* \"#utility.yul\":1352:1471   */\n    tag_111:\n        /* \"#utility.yul\":1510:1511   */\n      0x00\n        /* \"#utility.yul\":1535:1588   */\n      tag_113\n        /* \"#utility.yul\":1580:1587   */\n      dup5\n        /* \"#utility.yul\":1571:1577   */\n      dup3\n        /* \"#utility.yul\":1560:1569   */\n      dup6\n        /* \"#utility.yul\":1556:1578   */\n      add\n        /* \"#utility.yul\":1535:1588   */\n      tag_79\n      jump\t// in\n    tag_113:\n        /* \"#utility.yul\":1525:1588   */\n      swap2\n      pop\n        /* \"#utility.yul\":1481:1598   */\n      pop\n        /* \"#utility.yul\":1276:1605   */\n      swap3\n      swap2\n      pop\n      pop\n      jump\t// out\n        /* \"#utility.yul\":1611:1780   */\n    tag_80:\n        /* \"#utility.yul\":1695:1706   */\n      0x00\n        /* \"#utility.yul\":1729:1735   */\n      dup3\n        /* \"#utility.yul\":1724:1727   */\n      dup3\n        /* \"#utility.yul\":1717:1736   */\n      mstore\n        /* \"#utility.yul\":1769:1773   */\n      0x20\n        /* \"#utility.yul\":1764:1767   */\n      dup3\n        /* \"#utility.yul\":1760:1774   */\n      add\n        /* \"#utility.yul\":1745:1774   */\n      swap1\n      pop\n        /* \"#utility.yul\":1611:1780   */\n      swap3\n      swap2\n      pop\n      pop\n      jump\t// out\n        /* \"#utility.yul\":1786:1963   */\n    tag_81:\n        /* \"#utility.yul\":1926:1955   */\n      0x596f7520646f6e27742068617665207065726d697373696f6e732e0000000000\n        /* \"#utility.yul\":1922:1923   */\n      0x00\n        /* \"#utility.yul\":1914:1920   */\n      dup3\n        /* \"#utility.yul\":1910:1924   */\n      add\n        /* \"#utility.yul\":1903:1956   */\n      mstore\n        /* \"#utility.yul\":1786:1963   */\n      pop\n      jump\t// out\n        /* \"#utility.yul\":1969:2335   */\n    tag_82:\n        /* \"#utility.yul\":2111:2114   */\n      0x00\n        /* \"#utility.yul\":2132:2199   */\n      tag_117\n        /* \"#utility.yul\":2196:2198   */\n      0x1b\n        /* \"#utility.yul\":2191:2194   */\n      dup4\n        /* \"#utility.yul\":2132:2199   */\n      tag_80\n      jump\t// in\n    tag_117:\n        /* \"#utility.yul\":2125:2199   */\n      swap2\n      pop\n        /* \"#utility.yul\":2208:2301   */\n      tag_118\n        /* \"#utility.yul\":2297:2300   */\n      dup3\n        /* \"#utility.yul\":2208:2301   */\n      tag_81\n      jump\t// in\n    tag_118:\n        /* \"#utility.yul\":2326:2328   */\n      0x20\n        /* \"#utility.yul\":2321:2324   */\n      dup3\n        /* \"#utility.yul\":2317:2329   */\n      add\n        /* \"#utility.yul\":2310:2329   */\n      swap1\n      pop\n        /* \"#utility.yul\":1969:2335   */\n      swap2\n      swap1\n      pop\n      jump\t// out\n        /* \"#utility.yul\":2341:2760   */\n    tag_25:\n        /* \"#utility.yul\":2507:2511   */\n      0x00\n        /* \"#utility.yul\":2545:2547   */\n      0x20\n        /* \"#utility.yul\":2534:2543   */\n      dup3\n        /* \"#utility.yul\":2530:2548   */\n      add\n        /* \"#utility.yul\":2522:2548   */\n      swap1\n      pop\n        /* \"#utility.yul\":2594:2603   */\n      dup2\n        /* \"#utility.yul\":2588:2592   */\n      dup2\n        /* \"#utility.yul\":2584:2604   */\n      sub\n        /* \"#utility.yul\":2580:2581   */\n      0x00\n        /* \"#utility.yul\":2569:2578   */\n      dup4\n        /* \"#utility.yul\":2565:2582   */\n      add\n        /* \"#utility.yul\":2558:2605   */\n      mstore\n        /* \"#utility.yul\":2622:2753   */\n      tag_120\n        /* \"#utility.yul\":2748:2752   */\n      dup2\n        /* \"#utility.yul\":2622:2753   */\n      tag_82\n      jump\t// in\n    tag_120:\n        /* \"#utility.yul\":2614:2753   */\n      swap1\n      pop\n        /* \"#utility.yul\":2341:2760   */\n      swap2\n      swap1\n      pop\n      jump\t// out\n        /* \"#utility.yul\":2766:2946   */\n    tag_32:\n        /* \"#utility.yul\":2814:2891   */\n      0x4e487b7100000000000000000000000000000000000000000000000000000000\n        /* \"#utility.yul\":2811:2812   */\n      0x00\n        /* \"#utility.yul\":2804:2892   */\n      mstore\n        /* \"#utility.yul\":2911:2915   */\n      0x32\n        /* \"#utility.yul\":2908:2909   */\n      0x04\n        /* \"#utility.yul\":2901:2916   */\n      mstore\n        /* \"#utility.yul\":2935:2939   */\n      0x24\n        /* \"#utility.yul\":2932:2933   */\n      0x00\n        /* \"#utility.yul\":2925:2940   */\n      revert\n        /* \"#utility.yul\":2952:3132   */\n    tag_83:\n        /* \"#utility.yul\":3000:3077   */\n      0x4e487b7100000000000000000000000000000000000000000000000000000000\n        /* \"#utility.yul\":2997:2998   */\n      0x00\n        /* \"#utility.yul\":2990:3078   */\n      mstore\n        /* \"#utility.yul\":3097:3101   */\n      0x11\n        /* \"#utility.yul\":3094:3095   */\n      0x04\n        /* \"#utility.yul\":3087:3102   */\n      mstore\n        /* \"#utility.yul\":3121:3125   */\n      0x24\n        /* \"#utility.yul\":3118:3119   */\n      0x00\n        /* \"#utility.yul\":3111:3126   */\n      revert\n        /* \"#utility.yul\":3138:3371   */\n    tag_35:\n        /* \"#utility.yul\":3177:3180   */\n      0x00\n        /* \"#utility.yul\":3200:3224   */\n      tag_124\n        /* \"#utility.yul\":3218:3223   */\n      dup3\n        /* \"#utility.yul\":3200:3224   */\n      tag_77\n      jump\t// in\n    tag_124:\n        /* \"#utility.yul\":3191:3224   */\n      swap2\n      pop\n        /* \"#utility.yul\":3246:3312   */\n      0xffffffffffffffffffffffffffffffffffffffffffffffffffffffffffffffff\n        /* \"#utility.yul\":3239:3244   */\n      dup3\n        /* \"#utility.yul\":3236:3313   */\n      eq\n        /* \"#utility.yul\":3233:3336   */\n      iszero\n      tag_125\n      jumpi\n        /* \"#utility.yul\":3316:3334   */\n      tag_126\n      tag_83\n      jump\t// in\n    tag_126:\n        /* \"#utility.yul\":3233:3336   */\n    tag_125:\n        /* \"#utility.yul\":3363:3364   */\n      0x01\n        /* \"#utility.yul\":3356:3361   */\n      dup3\n        /* \"#utility.yul\":3352:3365   */\n      add\n        /* \"#utility.yul\":3345:3365   */\n      swap1\n      pop\n        /* \"#utility.yul\":3138:3371   */\n      swap2\n      swap1\n      pop\n      jump\t// out\n        /* \"#utility.yul\":3377:3557   */\n    tag_38:\n        /* \"#utility.yul\":3425:3502   */\n      0x4e487b7100000000000000000000000000000000000000000000000000000000\n        /* \"#utility.yul\":3422:3423   */\n      0x00\n        /* \"#utility.yul\":3415:3503   */\n      mstore\n        /* \"#utility.yul\":3522:3526   */\n      0x41\n        /* \"#utility.yul\":3519:3520   */\n      0x04\n        /* \"#utility.yul\":3512:3527   */\n      mstore\n        /* \"#utility.yul\":3546:3550   */\n      0x24\n        /* \"#utility.yul\":3543:3544   */\n      0x00\n        /* \"#utility.yul\":3536:3551   */\n      revert\n        /* \"#utility.yul\":3563:3710   */\n    tag_84:\n        /* \"#utility.yul\":3664:3675   */\n      0x00\n        /* \"#utility.yul\":3701:3704   */\n      dup2\n        /* \"#utility.yul\":3686:3704   */\n      swap1\n      pop\n        /* \"#utility.yul\":3563:3710   */\n      swap3\n      swap2\n      pop\n      pop\n      jump\t// out\n        /* \"#utility.yul\":3716:3830   */\n    tag_85:\n      pop\n      jump\t// out\n        /* \"#utility.yul\":3836:4234   */\n    tag_86:\n        /* \"#utility.yul\":3995:3998   */\n      0x00\n        /* \"#utility.yul\":4016:4099   */\n      tag_131\n        /* \"#utility.yul\":4097:4098   */\n      0x00\n        /* \"#utility.yul\":4092:4095   */\n      dup4\n        /* \"#utility.yul\":4016:4099   */\n      tag_84\n      jump\t// in\n    tag_131:\n        /* \"#utility.yul\":4009:4099   */\n      swap2\n      pop\n        /* \"#utility.yul\":4108:4201   */\n      tag_132\n        /* \"#utility.yul\":4197:4200   */\n      dup3\n        /* \"#utility.yul\":4108:4201   */\n      tag_85\n      jump\t// in\n    tag_132:\n        /* \"#utility.yul\":4226:4227   */\n      0x00\n        /* \"#utility.yul\":4221:4224   */\n      dup3\n        /* \"#utility.yul\":4217:4228   */\n      add\n        /* \"#utility.yul\":4210:4228   */\n      swap1\n      pop\n        /* \"#utility.yul\":3836:4234   */\n      swap2\n      swap1\n      pop\n      jump\t// out\n        /* \"#utility.yul\":4240:4619   */\n    tag_43:\n        /* \"#utility.yul\":4424:4427   */\n      0x00\n        /* \"#utility.yul\":4446:4593   */\n      tag_134\n        /* \"#utility.yul\":4589:4592   */\n      dup3\n        /* \"#utility.yul\":4446:4593   */\n      tag_86\n      jump\t// in\n    tag_134:\n        /* \"#utility.yul\":4439:4593   */\n      swap2\n      pop\n        /* \"#utility.yul\":4610:4613   */\n      dup2\n        /* \"#utility.yul\":4603:4613   */\n      swap1\n      pop\n        /* \"#utility.yul\":4240:4619   */\n      swap2\n      swap1\n      pop\n      jump\t// out\n        /* \"#utility.yul\":4625:4785   */\n    tag_87:\n        /* \"#utility.yul\":4765:4777   */\n      0x43616c6c204661696c6400000000000000000000000000000000000000000000\n        /* \"#utility.yul\":4761:4762   */\n      0x00\n        /* \"#utility.yul\":4753:4759   */\n      dup3\n        /* \"#utility.yul\":4749:4763   */\n      add\n        /* \"#utility.yul\":4742:4778   */\n      mstore\n        /* \"#utility.yul\":4625:4785   */\n      pop\n      jump\t// out\n        /* \"#utility.yul\":4791:5157   */\n    tag_88:\n        /* \"#utility.yul\":4933:4936   */\n      0x00\n        /* \"#utility.yul\":4954:5021   */\n      tag_137\n        /* \"#utility.yul\":5018:5020   */\n      0x0a\n        /* \"#utility.yul\":5013:5016   */\n      dup4\n        /* \"#utility.yul\":4954:5021   */\n      tag_80\n      jump\t// in\n    tag_137:\n        /* \"#utility.yul\":4947:5021   */\n      swap2\n      pop\n        /* \"#utility.yul\":5030:5123   */\n      tag_138\n        /* \"#utility.yul\":5119:5122   */\n      dup3\n        /* \"#utility.yul\":5030:5123   */\n      tag_87\n      jump\t// in\n    tag_138:\n        /* \"#utility.yul\":5148:5150   */\n      0x20\n        /* \"#utility.yul\":5143:5146   */\n      dup3\n        /* \"#utility.yul\":5139:5151   */\n      add\n        /* \"#utility.yul\":5132:5151   */\n      swap1\n      pop\n        /* \"#utility.yul\":4791:5157   */\n      swap2\n      swap1\n      pop\n      jump\t// out\n        /* \"#utility.yul\":5163:5582   */\n    tag_49:\n        /* \"#utility.yul\":5329:5333   */\n      0x00\n        /* \"#utility.yul\":5367:5369   */\n      0x20\n        /* \"#utility.yul\":5356:5365   */\n      dup3\n        /* \"#utility.yul\":5352:5370   */\n      add\n        /* \"#utility.yul\":5344:5370   */\n      swap1\n      pop\n        /* \"#utility.yul\":5416:5425   */\n      dup2\n        /* \"#utility.yul\":5410:5414   */\n      dup2\n        /* \"#utility.yul\":5406:5426   */\n      sub\n        /* \"#utility.yul\":5402:5403   */\n      0x00\n        /* \"#utility.yul\":5391:5400   */\n      dup4\n        /* \"#utility.yul\":5387:5404   */\n      add\n        /* \"#utility.yul\":5380:5427   */\n      mstore\n        /* \"#utility.yul\":5444:5575   */\n      tag_140\n        /* \"#utility.yul\":5570:5574   */\n      dup2\n        /* \"#utility.yul\":5444:5575   */\n      tag_88\n      jump\t// in\n    tag_140:\n        /* \"#utility.yul\":5436:5575   */\n      swap1\n      pop\n        /* \"#utility.yul\":5163:5582   */\n      swap2\n      swap1\n      pop\n      jump\t// out\n        /* \"#utility.yul\":5588:5714   */\n    tag_89:\n        /* \"#utility.yul\":5683:5707   */\n      tag_142\n        /* \"#utility.yul\":5701:5706   */\n      dup2\n        /* \"#utility.yul\":5683:5707   */\n      tag_77\n      jump\t// in\n    tag_142:\n        /* \"#utility.yul\":5678:5681   */\n      dup3\n        /* \"#utility.yul\":5671:5708   */\n      mstore\n        /* \"#utility.yul\":5588:5714   */\n      pop\n      pop\n      jump\t// out\n        /* \"#utility.yul\":5720:5958   */\n    tag_52:\n        /* \"#utility.yul\":5821:5825   */\n      0x00\n        /* \"#utility.yul\":5859:5861   */\n      0x20\n        /* \"#utility.yul\":5848:5857   */\n      dup3\n        /* \"#utility.yul\":5844:5862   */\n      add\n        /* \"#utility.yul\":5836:5862   */\n      swap1\n      pop\n        /* \"#utility.yul\":5872:5951   */\n      tag_144\n        /* \"#utility.yul\":5948:5949   */\n      0x00\n        /* \"#utility.yul\":5937:5946   */\n      dup4\n        /* \"#utility.yul\":5933:5950   */\n      add\n        /* \"#utility.yul\":5924:5930   */\n      dup5\n        /* \"#utility.yul\":5872:5951   */\n      tag_89\n      jump\t// in\n    tag_144:\n        /* \"#utility.yul\":5720:5958   */\n      swap3\n      swap2\n      pop\n      pop\n      jump\t// out\n        /* \"#utility.yul\":5964:6107   */\n    tag_90:\n        /* \"#utility.yul\":6021:6026   */\n      0x00\n        /* \"#utility.yul\":6052:6058   */\n      dup2\n        /* \"#utility.yul\":6046:6059   */\n      mload\n        /* \"#utility.yul\":6037:6059   */\n      swap1\n      pop\n        /* \"#utility.yul\":6068:6101   */\n      tag_146\n        /* \"#utility.yul\":6095:6100   */\n      dup2\n        /* \"#utility.yul\":6068:6101   */\n      tag_78\n      jump\t// in\n    tag_146:\n        /* \"#utility.yul\":5964:6107   */\n      swap3\n      swap2\n      pop\n      pop\n      jump\t// out\n        /* \"#utility.yul\":6113:6464   */\n    tag_57:\n        /* \"#utility.yul\":6183:6189   */\n      0x00\n        /* \"#utility.yul\":6232:6234   */\n      0x20\n        /* \"#utility.yul\":6220:6229   */\n      dup3\n        /* \"#utility.yul\":6211:6218   */\n      dup5\n        /* \"#utility.yul\":6207:6230   */\n      sub\n        /* \"#utility.yul\":6203:6235   */\n      slt\n        /* \"#utility.yul\":6200:6319   */\n      iszero\n      tag_148\n      jumpi\n        /* \"#utility.yul\":6238:6317   */\n      tag_149\n      tag_75\n      jump\t// in\n    tag_149:\n        /* \"#utility.yul\":6200:6319   */\n    tag_148:\n        /* \"#utility.yul\":6358:6359   */\n      0x00\n        /* \"#utility.yul\":6383:6447   */\n      tag_150\n        /* \"#utility.yul\":6439:6446   */\n      dup5\n        /* \"#utility.yul\":6430:6436   */\n      dup3\n        /* \"#utility.yul\":6419:6428   */\n      dup6\n        /* \"#utility.yul\":6415:6437   */\n      add\n        /* \"#utility.yul\":6383:6447   */\n      tag_90\n      jump\t// in\n    tag_150:\n        /* \"#utility.yul\":6373:6447   */\n      swap2\n      pop\n        /* \"#utility.yul\":6329:6457   */\n      pop\n        /* \"#utility.yul\":6113:6464   */\n      swap3\n      swap2\n      pop\n      pop\n      jump\t// out\n        /* \"#utility.yul\":6470:6638   */\n    tag_91:\n        /* \"#utility.yul\":6610:6630   */\n      0x4469646e277420656e756768206d6f6e65790000000000000000000000000000\n        /* \"#utility.yul\":6606:6607   */\n      0x00\n        /* \"#utility.yul\":6598:6604   */\n      dup3\n        /* \"#utility.yul\":6594:6608   */\n      add\n        /* \"#utility.yul\":6587:6631   */\n      mstore\n        /* \"#utility.yul\":6470:6638   */\n      pop\n      jump\t// out\n        /* \"#utility.yul\":6644:7010   */\n    tag_92:\n        /* \"#utility.yul\":6786:6789   */\n      0x00\n        /* \"#utility.yul\":6807:6874   */\n      tag_153\n        /* \"#utility.yul\":6871:6873   */\n      0x12\n        /* \"#utility.yul\":6866:6869   */\n      dup4\n        /* \"#utility.yul\":6807:6874   */\n      tag_80\n      jump\t// in\n    tag_153:\n        /* \"#utility.yul\":6800:6874   */\n      swap2\n      pop\n        /* \"#utility.yul\":6883:6976   */\n      tag_154\n        /* \"#utility.yul\":6972:6975   */\n      dup3\n        /* \"#utility.yul\":6883:6976   */\n      tag_91\n      jump\t// in\n    tag_154:\n        /* \"#utility.yul\":7001:7003   */\n      0x20\n        /* \"#utility.yul\":6996:6999   */\n      dup3\n        /* \"#utility.yul\":6992:7004   */\n      add\n        /* \"#utility.yul\":6985:7004   */\n      swap1\n      pop\n        /* \"#utility.yul\":6644:7010   */\n      swap2\n      swap1\n      pop\n      jump\t// out\n        /* \"#utility.yul\":7016:7435   */\n    tag_60:\n        /* \"#utility.yul\":7182:7186   */\n      0x00\n        /* \"#utility.yul\":7220:7222   */\n      0x20\n        /* \"#utility.yul\":7209:7218   */\n      dup3\n        /* \"#utility.yul\":7205:7223   */\n      add\n        /* \"#utility.yul\":7197:7223   */\n      swap1\n      pop\n        /* \"#utility.yul\":7269:7278   */\n      dup2\n        /* \"#utility.yul\":7263:7267   */\n      dup2\n        /* \"#utility.yul\":7259:7279   */\n      sub\n        /* \"#utility.yul\":7255:7256   */\n      0x00\n        /* \"#utility.yul\":7244:7253   */\n      dup4\n        /* \"#utility.yul\":7240:7257   */\n      add\n        /* \"#utility.yul\":7233:7280   */\n      mstore\n        /* \"#utility.yul\":7297:7428   */\n      tag_156\n        /* \"#utility.yul\":7423:7427   */\n      dup2\n        /* \"#utility.yul\":7297:7428   */\n      tag_92\n      jump\t// in\n    tag_156:\n        /* \"#utility.yul\":7289:7428   */\n      swap1\n      pop\n        /* \"#utility.yul\":7016:7435   */\n      swap2\n      swap1\n      pop\n      jump\t// out\n\n    auxdata: 0xa26469706673582212209e972843200b0585648f30634d419d3c90eec427dbd8c840ae7f98d36e8870d764736f6c63430008080033\n}\n",
				"bytecode": {
					"linkReferences": {
						"contracts/PriceConvertor.sol": {
							"PriceConvertor": [
								{
									"length": 20,
									"start": 933
								}
							]
						}
					},
					"object": "6080604052603260005534801561001557600080fd5b5033600360006101000a81548173ffffffffffffffffffffffffffffffffffffffff021916908373ffffffffffffffffffffffffffffffffffffffff16021790555061096c806100666000396000f3fe60806040526004361061003f5760003560e01c80633ccfd60b146100445780638da5cb5b1461005b578063b60d428814610086578063dc0d3dff14610090575b600080fd5b34801561005057600080fd5b506100596100cd565b005b34801561006757600080fd5b50610070610313565b60405161007d91906105d6565b60405180910390f35b61008e610339565b005b34801561009c57600080fd5b506100b760048036038101906100b2919061062c565b6104af565b6040516100c491906105d6565b60405180910390f35b3373ffffffffffffffffffffffffffffffffffffffff16600360009054906101000a900473ffffffffffffffffffffffffffffffffffffffff1673ffffffffffffffffffffffffffffffffffffffff161461015d576040517f08c379a0000000000000000000000000000000000000000000000000000000008152600401610154906106b6565b60405180910390fd5b60005b6001805490508110156102035760006002600060018481548110610187576101866106d6565b5b9060005260206000200160009054906101000a900473ffffffffffffffffffffffffffffffffffffffff1673ffffffffffffffffffffffffffffffffffffffff1673ffffffffffffffffffffffffffffffffffffffff1681526020019081526020016000208190555080806101fb90610734565b915050610160565b50600067ffffffffffffffff81111561021f5761021e61077d565b5b60405190808252806020026020018201604052801561024d5781602001602082028036833780820191505090505b50600190805190602001906102639291906104ee565b5060003373ffffffffffffffffffffffffffffffffffffffff164760405161028a906107dd565b60006040518083038185875af1925050503d80600081146102c7576040519150601f19603f3d011682016040523d82523d6000602084013e6102cc565b606091505b5050905080610310576040517f08c379a00000000000000000000000000000000000000000000000000000000081526004016103079061083e565b60405180910390fd5b50565b600360009054906101000a900473ffffffffffffffffffffffffffffffffffffffff1681565b6000543473__$ee5333b9f3bf6448fe7cd0ff78e98acd66$__636e5b6b2890916040518263ffffffff1660e01b8152600401610375919061086d565b60206040518083038186803b15801561038d57600080fd5b505af41580156103a1573d6000803e3d6000fd5b505050506040513d601f19601f820116820180604052508101906103c5919061089d565b1015610406576040517f08c379a00000000000000000000000000000000000000000000000000000000081526004016103fd90610916565b60405180910390fd5b6001339080600181540180825580915050600190039060005260206000200160009091909190916101000a81548173ffffffffffffffffffffffffffffffffffffffff021916908373ffffffffffffffffffffffffffffffffffffffff16021790555034600260003373ffffffffffffffffffffffffffffffffffffffff1673ffffffffffffffffffffffffffffffffffffffff16815260200190815260200160002081905550565b600181815481106104bf57600080fd5b906000526020600020016000915054906101000a900473ffffffffffffffffffffffffffffffffffffffff1681565b828054828255906000526020600020908101928215610567579160200282015b828111156105665782518260006101000a81548173ffffffffffffffffffffffffffffffffffffffff021916908373ffffffffffffffffffffffffffffffffffffffff1602179055509160200191906001019061050e565b5b5090506105749190610578565b5090565b5b80821115610591576000816000905550600101610579565b5090565b600073ffffffffffffffffffffffffffffffffffffffff82169050919050565b60006105c082610595565b9050919050565b6105d0816105b5565b82525050565b60006020820190506105eb60008301846105c7565b92915050565b600080fd5b6000819050919050565b610609816105f6565b811461061457600080fd5b50565b60008135905061062681610600565b92915050565b600060208284031215610642576106416105f1565b5b600061065084828501610617565b91505092915050565b600082825260208201905092915050565b7f596f7520646f6e27742068617665207065726d697373696f6e732e0000000000600082015250565b60006106a0601b83610659565b91506106ab8261066a565b602082019050919050565b600060208201905081810360008301526106cf81610693565b9050919050565b7f4e487b7100000000000000000000000000000000000000000000000000000000600052603260045260246000fd5b7f4e487b7100000000000000000000000000000000000000000000000000000000600052601160045260246000fd5b600061073f826105f6565b91507fffffffffffffffffffffffffffffffffffffffffffffffffffffffffffffffff82141561077257610771610705565b5b600182019050919050565b7f4e487b7100000000000000000000000000000000000000000000000000000000600052604160045260246000fd5b600081905092915050565b50565b60006107c76000836107ac565b91506107d2826107b7565b600082019050919050565b60006107e8826107ba565b9150819050919050565b7f43616c6c204661696c6400000000000000000000000000000000000000000000600082015250565b6000610828600a83610659565b9150610833826107f2565b602082019050919050565b600060208201905081810360008301526108578161081b565b9050919050565b610867816105f6565b82525050565b6000602082019050610882600083018461085e565b92915050565b60008151905061089781610600565b92915050565b6000602082840312156108b3576108b26105f1565b5b60006108c184828501610888565b91505092915050565b7f4469646e277420656e756768206d6f6e65790000000000000000000000000000600082015250565b6000610900601283610659565b915061090b826108ca565b602082019050919050565b6000602082019050818103600083015261092f816108f3565b905091905056fea26469706673582212209e972843200b0585648f30634d419d3c90eec427dbd8c840ae7f98d36e8870d764736f6c63430008080033",
					"opcodes": "PUSH1 0x80 PUSH1 0x40 MSTORE PUSH1 0x32 PUSH1 0x0 SSTORE CALLVALUE DUP1 ISZERO PUSH2 0x15 JUMPI PUSH1 0x0 DUP1 REVERT JUMPDEST POP CALLER PUSH1 0x3 PUSH1 0x0 PUSH2 0x100 EXP DUP2 SLOAD DUP2 PUSH20 0xFFFFFFFFFFFFFFFFFFFFFFFFFFFFFFFFFFFFFFFF MUL NOT AND SWAP1 DUP4 PUSH20 0xFFFFFFFFFFFFFFFFFFFFFFFFFFFFFFFFFFFFFFFF AND MUL OR SWAP1 SSTORE POP PUSH2 0x96C DUP1 PUSH2 0x66 PUSH1 0x0 CODECOPY PUSH1 0x0 RETURN INVALID PUSH1 0x80 PUSH1 0x40 MSTORE PUSH1 0x4 CALLDATASIZE LT PUSH2 0x3F JUMPI PUSH1 0x0 CALLDATALOAD PUSH1 0xE0 SHR DUP1 PUSH4 0x3CCFD60B EQ PUSH2 0x44 JUMPI DUP1 PUSH4 0x8DA5CB5B EQ PUSH2 0x5B JUMPI DUP1 PUSH4 0xB60D4288 EQ PUSH2 0x86 JUMPI DUP1 PUSH4 0xDC0D3DFF EQ PUSH2 0x90 JUMPI JUMPDEST PUSH1 0x0 DUP1 REVERT JUMPDEST CALLVALUE DUP1 ISZERO PUSH2 0x50 JUMPI PUSH1 0x0 DUP1 REVERT JUMPDEST POP PUSH2 0x59 PUSH2 0xCD JUMP JUMPDEST STOP JUMPDEST CALLVALUE DUP1 ISZERO PUSH2 0x67 JUMPI PUSH1 0x0 DUP1 REVERT JUMPDEST POP PUSH2 0x70 PUSH2 0x313 JUMP JUMPDEST PUSH1 0x40 MLOAD PUSH2 0x7D SWAP2 SWAP1 PUSH2 0x5D6 JUMP JUMPDEST PUSH1 0x40 MLOAD DUP1 SWAP2 SUB SWAP1 RETURN JUMPDEST PUSH2 0x8E PUSH2 0x339 JUMP JUMPDEST STOP JUMPDEST CALLVALUE DUP1 ISZERO PUSH2 0x9C JUMPI PUSH1 0x0 DUP1 REVERT JUMPDEST POP PUSH2 0xB7 PUSH1 0x4 DUP1 CALLDATASIZE SUB DUP2 ADD SWAP1 PUSH2 0xB2 SWAP2 SWAP1 PUSH2 0x62C JUMP JUMPDEST PUSH2 0x4AF JUMP JUMPDEST PUSH1 0x40 MLOAD PUSH2 0xC4 SWAP2 SWAP1 PUSH2 0x5D6 JUMP JUMPDEST PUSH1 0x40 MLOAD DUP1 SWAP2 SUB SWAP1 RETURN JUMPDEST CALLER PUSH20 0xFFFFFFFFFFFFFFFFFFFFFFFFFFFFFFFFFFFFFFFF AND PUSH1 0x3 PUSH1 0x0 SWAP1 SLOAD SWAP1 PUSH2 0x100 EXP SWAP1 DIV PUSH20 0xFFFFFFFFFFFFFFFFFFFFFFFFFFFFFFFFFFFFFFFF AND PUSH20 0xFFFFFFFFFFFFFFFFFFFFFFFFFFFFFFFFFFFFFFFF AND EQ PUSH2 0x15D JUMPI PUSH1 0x40 MLOAD PUSH32 0x8C379A000000000000000000000000000000000000000000000000000000000 DUP2 MSTORE PUSH1 0x4 ADD PUSH2 0x154 SWAP1 PUSH2 0x6B6 JUMP JUMPDEST PUSH1 0x40 MLOAD DUP1 SWAP2 SUB SWAP1 REVERT JUMPDEST PUSH1 0x0 JUMPDEST PUSH1 0x1 DUP1 SLOAD SWAP1 POP DUP2 LT ISZERO PUSH2 0x203 JUMPI PUSH1 0x0 PUSH1 0x2 PUSH1 0x0 PUSH1 0x1 DUP5 DUP2 SLOAD DUP2 LT PUSH2 0x187 JUMPI PUSH2 0x186 PUSH2 0x6D6 JUMP JUMPDEST JUMPDEST SWAP1 PUSH1 0x0 MSTORE PUSH1 0x20 PUSH1 0x0 KECCAK256 ADD PUSH1 0x0 SWAP1 SLOAD SWAP1 PUSH2 0x100 EXP SWAP1 DIV PUSH20 0xFFFFFFFFFFFFFFFFFFFFFFFFFFFFFFFFFFFFFFFF AND PUSH20 0xFFFFFFFFFFFFFFFFFFFFFFFFFFFFFFFFFFFFFFFF AND PUSH20 0xFFFFFFFFFFFFFFFFFFFFFFFFFFFFFFFFFFFFFFFF AND DUP2 MSTORE PUSH1 0x20 ADD SWAP1 DUP2 MSTORE PUSH1 0x20 ADD PUSH1 0x0 KECCAK256 DUP2 SWAP1 SSTORE POP DUP1 DUP1 PUSH2 0x1FB SWAP1 PUSH2 0x734 JUMP JUMPDEST SWAP2 POP POP PUSH2 0x160 JUMP JUMPDEST POP PUSH1 0x0 PUSH8 0xFFFFFFFFFFFFFFFF DUP2 GT ISZERO PUSH2 0x21F JUMPI PUSH2 0x21E PUSH2 0x77D JUMP JUMPDEST JUMPDEST PUSH1 0x40 MLOAD SWAP1 DUP1 DUP3 MSTORE DUP1 PUSH1 0x20 MUL PUSH1 0x20 ADD DUP3 ADD PUSH1 0x40 MSTORE DUP1 ISZERO PUSH2 0x24D JUMPI DUP2 PUSH1 0x20 ADD PUSH1 0x20 DUP3 MUL DUP1 CALLDATASIZE DUP4 CALLDATACOPY DUP1 DUP3 ADD SWAP2 POP POP SWAP1 POP JUMPDEST POP PUSH1 0x1 SWAP1 DUP1 MLOAD SWAP1 PUSH1 0x20 ADD SWAP1 PUSH2 0x263 SWAP3 SWAP2 SWAP1 PUSH2 0x4EE JUMP JUMPDEST POP PUSH1 0x0 CALLER PUSH20 0xFFFFFFFFFFFFFFFFFFFFFFFFFFFFFFFFFFFFFFFF AND SELFBALANCE PUSH1 0x40 MLOAD PUSH2 0x28A SWAP1 PUSH2 0x7DD JUMP JUMPDEST PUSH1 0x0 PUSH1 0x40 MLOAD DUP1 DUP4 SUB DUP2 DUP6 DUP8 GAS CALL SWAP3 POP POP POP RETURNDATASIZE DUP1 PUSH1 0x0 DUP2 EQ PUSH2 0x2C7 JUMPI PUSH1 0x40 MLOAD SWAP2 POP PUSH1 0x1F NOT PUSH1 0x3F RETURNDATASIZE ADD AND DUP3 ADD PUSH1 0x40 MSTORE RETURNDATASIZE DUP3 MSTORE RETURNDATASIZE PUSH1 0x0 PUSH1 0x20 DUP5 ADD RETURNDATACOPY PUSH2 0x2CC JUMP JUMPDEST PUSH1 0x60 SWAP2 POP JUMPDEST POP POP SWAP1 POP DUP1 PUSH2 0x310 JUMPI PUSH1 0x40 MLOAD PUSH32 0x8C379A000000000000000000000000000000000000000000000000000000000 DUP2 MSTORE PUSH1 0x4 ADD PUSH2 0x307 SWAP1 PUSH2 0x83E JUMP JUMPDEST PUSH1 0x40 MLOAD DUP1 SWAP2 SUB SWAP1 REVERT JUMPDEST POP JUMP JUMPDEST PUSH1 0x3 PUSH1 0x0 SWAP1 SLOAD SWAP1 PUSH2 0x100 EXP SWAP1 DIV PUSH20 0xFFFFFFFFFFFFFFFFFFFFFFFFFFFFFFFFFFFFFFFF AND DUP2 JUMP JUMPDEST PUSH1 0x0 SLOAD CALLVALUE PUSH20 0x0 PUSH4 0x6E5B6B28 SWAP1 SWAP2 PUSH1 0x40 MLOAD DUP3 PUSH4 0xFFFFFFFF AND PUSH1 0xE0 SHL DUP2 MSTORE PUSH1 0x4 ADD PUSH2 0x375 SWAP2 SWAP1 PUSH2 0x86D JUMP JUMPDEST PUSH1 0x20 PUSH1 0x40 MLOAD DUP1 DUP4 SUB DUP2 DUP7 DUP1 EXTCODESIZE ISZERO DUP1 ISZERO PUSH2 0x38D JUMPI PUSH1 0x0 DUP1 REVERT JUMPDEST POP GAS DELEGATECALL ISZERO DUP1 ISZERO PUSH2 0x3A1 JUMPI RETURNDATASIZE PUSH1 0x0 DUP1 RETURNDATACOPY RETURNDATASIZE PUSH1 0x0 REVERT JUMPDEST POP POP POP POP PUSH1 0x40 MLOAD RETURNDATASIZE PUSH1 0x1F NOT PUSH1 0x1F DUP3 ADD AND DUP3 ADD DUP1 PUSH1 0x40 MSTORE POP DUP2 ADD SWAP1 PUSH2 0x3C5 SWAP2 SWAP1 PUSH2 0x89D JUMP JUMPDEST LT ISZERO PUSH2 0x406 JUMPI PUSH1 0x40 MLOAD PUSH32 0x8C379A000000000000000000000000000000000000000000000000000000000 DUP2 MSTORE PUSH1 0x4 ADD PUSH2 0x3FD SWAP1 PUSH2 0x916 JUMP JUMPDEST PUSH1 0x40 MLOAD DUP1 SWAP2 SUB SWAP1 REVERT JUMPDEST PUSH1 0x1 CALLER SWAP1 DUP1 PUSH1 0x1 DUP2 SLOAD ADD DUP1 DUP3 SSTORE DUP1 SWAP2 POP POP PUSH1 0x1 SWAP1 SUB SWAP1 PUSH1 0x0 MSTORE PUSH1 0x20 PUSH1 0x0 KECCAK256 ADD PUSH1 0x0 SWAP1 SWAP2 SWAP1 SWAP2 SWAP1 SWAP2 PUSH2 0x100 EXP DUP2 SLOAD DUP2 PUSH20 0xFFFFFFFFFFFFFFFFFFFFFFFFFFFFFFFFFFFFFFFF MUL NOT AND SWAP1 DUP4 PUSH20 0xFFFFFFFFFFFFFFFFFFFFFFFFFFFFFFFFFFFFFFFF AND MUL OR SWAP1 SSTORE POP CALLVALUE PUSH1 0x2 PUSH1 0x0 CALLER PUSH20 0xFFFFFFFFFFFFFFFFFFFFFFFFFFFFFFFFFFFFFFFF AND PUSH20 0xFFFFFFFFFFFFFFFFFFFFFFFFFFFFFFFFFFFFFFFF AND DUP2 MSTORE PUSH1 0x20 ADD SWAP1 DUP2 MSTORE PUSH1 0x20 ADD PUSH1 0x0 KECCAK256 DUP2 SWAP1 SSTORE POP JUMP JUMPDEST PUSH1 0x1 DUP2 DUP2 SLOAD DUP2 LT PUSH2 0x4BF JUMPI PUSH1 0x0 DUP1 REVERT JUMPDEST SWAP1 PUSH1 0x0 MSTORE PUSH1 0x20 PUSH1 0x0 KECCAK256 ADD PUSH1 0x0 SWAP2 POP SLOAD SWAP1 PUSH2 0x100 EXP SWAP1 DIV PUSH20 0xFFFFFFFFFFFFFFFFFFFFFFFFFFFFFFFFFFFFFFFF AND DUP2 JUMP JUMPDEST DUP3 DUP1 SLOAD DUP3 DUP3 SSTORE SWAP1 PUSH1 0x0 MSTORE PUSH1 0x20 PUSH1 0x0 KECCAK256 SWAP1 DUP2 ADD SWAP3 DUP3 ISZERO PUSH2 0x567 JUMPI SWAP2 PUSH1 0x20 MUL DUP3 ADD JUMPDEST DUP3 DUP2 GT ISZERO PUSH2 0x566 JUMPI DUP3 MLOAD DUP3 PUSH1 0x0 PUSH2 0x100 EXP DUP2 SLOAD DUP2 PUSH20 0xFFFFFFFFFFFFFFFFFFFFFFFFFFFFFFFFFFFFFFFF MUL NOT AND SWAP1 DUP4 PUSH20 0xFFFFFFFFFFFFFFFFFFFFFFFFFFFFFFFFFFFFFFFF AND MUL OR SWAP1 SSTORE POP SWAP2 PUSH1 0x20 ADD SWAP2 SWAP1 PUSH1 0x1 ADD SWAP1 PUSH2 0x50E JUMP JUMPDEST JUMPDEST POP SWAP1 POP PUSH2 0x574 SWAP2 SWAP1 PUSH2 0x578 JUMP JUMPDEST POP SWAP1 JUMP JUMPDEST JUMPDEST DUP1 DUP3 GT ISZERO PUSH2 0x591 JUMPI PUSH1 0x0 DUP2 PUSH1 0x0 SWAP1 SSTORE POP PUSH1 0x1 ADD PUSH2 0x579 JUMP JUMPDEST POP SWAP1 JUMP JUMPDEST PUSH1 0x0 PUSH20 0xFFFFFFFFFFFFFFFFFFFFFFFFFFFFFFFFFFFFFFFF DUP3 AND SWAP1 POP SWAP2 SWAP1 POP JUMP JUMPDEST PUSH1 0x0 PUSH2 0x5C0 DUP3 PUSH2 0x595 JUMP JUMPDEST SWAP1 POP SWAP2 SWAP1 POP JUMP JUMPDEST PUSH2 0x5D0 DUP2 PUSH2 0x5B5 JUMP JUMPDEST DUP3 MSTORE POP POP JUMP JUMPDEST PUSH1 0x0 PUSH1 0x20 DUP3 ADD SWAP1 POP PUSH2 0x5EB PUSH1 0x0 DUP4 ADD DUP5 PUSH2 0x5C7 JUMP JUMPDEST SWAP3 SWAP2 POP POP JUMP JUMPDEST PUSH1 0x0 DUP1 REVERT JUMPDEST PUSH1 0x0 DUP2 SWAP1 POP SWAP2 SWAP1 POP JUMP JUMPDEST PUSH2 0x609 DUP2 PUSH2 0x5F6 JUMP JUMPDEST DUP2 EQ PUSH2 0x614 JUMPI PUSH1 0x0 DUP1 REVERT JUMPDEST POP JUMP JUMPDEST PUSH1 0x0 DUP2 CALLDATALOAD SWAP1 POP PUSH2 0x626 DUP2 PUSH2 0x600 JUMP JUMPDEST SWAP3 SWAP2 POP POP JUMP JUMPDEST PUSH1 0x0 PUSH1 0x20 DUP3 DUP5 SUB SLT ISZERO PUSH2 0x642 JUMPI PUSH2 0x641 PUSH2 0x5F1 JUMP JUMPDEST JUMPDEST PUSH1 0x0 PUSH2 0x650 DUP5 DUP3 DUP6 ADD PUSH2 0x617 JUMP JUMPDEST SWAP2 POP POP SWAP3 SWAP2 POP POP JUMP JUMPDEST PUSH1 0x0 DUP3 DUP3 MSTORE PUSH1 0x20 DUP3 ADD SWAP1 POP SWAP3 SWAP2 POP POP JUMP JUMPDEST PUSH32 0x596F7520646F6E27742068617665207065726D697373696F6E732E0000000000 PUSH1 0x0 DUP3 ADD MSTORE POP JUMP JUMPDEST PUSH1 0x0 PUSH2 0x6A0 PUSH1 0x1B DUP4 PUSH2 0x659 JUMP JUMPDEST SWAP2 POP PUSH2 0x6AB DUP3 PUSH2 0x66A JUMP JUMPDEST PUSH1 0x20 DUP3 ADD SWAP1 POP SWAP2 SWAP1 POP JUMP JUMPDEST PUSH1 0x0 PUSH1 0x20 DUP3 ADD SWAP1 POP DUP2 DUP2 SUB PUSH1 0x0 DUP4 ADD MSTORE PUSH2 0x6CF DUP2 PUSH2 0x693 JUMP JUMPDEST SWAP1 POP SWAP2 SWAP1 POP JUMP JUMPDEST PUSH32 0x4E487B7100000000000000000000000000000000000000000000000000000000 PUSH1 0x0 MSTORE PUSH1 0x32 PUSH1 0x4 MSTORE PUSH1 0x24 PUSH1 0x0 REVERT JUMPDEST PUSH32 0x4E487B7100000000000000000000000000000000000000000000000000000000 PUSH1 0x0 MSTORE PUSH1 0x11 PUSH1 0x4 MSTORE PUSH1 0x24 PUSH1 0x0 REVERT JUMPDEST PUSH1 0x0 PUSH2 0x73F DUP3 PUSH2 0x5F6 JUMP JUMPDEST SWAP2 POP PUSH32 0xFFFFFFFFFFFFFFFFFFFFFFFFFFFFFFFFFFFFFFFFFFFFFFFFFFFFFFFFFFFFFFFF DUP3 EQ ISZERO PUSH2 0x772 JUMPI PUSH2 0x771 PUSH2 0x705 JUMP JUMPDEST JUMPDEST PUSH1 0x1 DUP3 ADD SWAP1 POP SWAP2 SWAP1 POP JUMP JUMPDEST PUSH32 0x4E487B7100000000000000000000000000000000000000000000000000000000 PUSH1 0x0 MSTORE PUSH1 0x41 PUSH1 0x4 MSTORE PUSH1 0x24 PUSH1 0x0 REVERT JUMPDEST PUSH1 0x0 DUP2 SWAP1 POP SWAP3 SWAP2 POP POP JUMP JUMPDEST POP JUMP JUMPDEST PUSH1 0x0 PUSH2 0x7C7 PUSH1 0x0 DUP4 PUSH2 0x7AC JUMP JUMPDEST SWAP2 POP PUSH2 0x7D2 DUP3 PUSH2 0x7B7 JUMP JUMPDEST PUSH1 0x0 DUP3 ADD SWAP1 POP SWAP2 SWAP1 POP JUMP JUMPDEST PUSH1 0x0 PUSH2 0x7E8 DUP3 PUSH2 0x7BA JUMP JUMPDEST SWAP2 POP DUP2 SWAP1 POP SWAP2 SWAP1 POP JUMP JUMPDEST PUSH32 0x43616C6C204661696C6400000000000000000000000000000000000000000000 PUSH1 0x0 DUP3 ADD MSTORE POP JUMP JUMPDEST PUSH1 0x0 PUSH2 0x828 PUSH1 0xA DUP4 PUSH2 0x659 JUMP JUMPDEST SWAP2 POP PUSH2 0x833 DUP3 PUSH2 0x7F2 JUMP JUMPDEST PUSH1 0x20 DUP3 ADD SWAP1 POP SWAP2 SWAP1 POP JUMP JUMPDEST PUSH1 0x0 PUSH1 0x20 DUP3 ADD SWAP1 POP DUP2 DUP2 SUB PUSH1 0x0 DUP4 ADD MSTORE PUSH2 0x857 DUP2 PUSH2 0x81B JUMP JUMPDEST SWAP1 POP SWAP2 SWAP1 POP JUMP JUMPDEST PUSH2 0x867 DUP2 PUSH2 0x5F6 JUMP JUMPDEST DUP3 MSTORE POP POP JUMP JUMPDEST PUSH1 0x0 PUSH1 0x20 DUP3 ADD SWAP1 POP PUSH2 0x882 PUSH1 0x0 DUP4 ADD DUP5 PUSH2 0x85E JUMP JUMPDEST SWAP3 SWAP2 POP POP JUMP JUMPDEST PUSH1 0x0 DUP2 MLOAD SWAP1 POP PUSH2 0x897 DUP2 PUSH2 0x600 JUMP JUMPDEST SWAP3 SWAP2 POP POP JUMP JUMPDEST PUSH1 0x0 PUSH1 0x20 DUP3 DUP5 SUB SLT ISZERO PUSH2 0x8B3 JUMPI PUSH2 0x8B2 PUSH2 0x5F1 JUMP JUMPDEST JUMPDEST PUSH1 0x0 PUSH2 0x8C1 DUP5 DUP3 DUP6 ADD PUSH2 0x888 JUMP JUMPDEST SWAP2 POP POP SWAP3 SWAP2 POP POP JUMP JUMPDEST PUSH32 0x4469646E277420656E756768206D6F6E65790000000000000000000000000000 PUSH1 0x0 DUP3 ADD MSTORE POP JUMP JUMPDEST PUSH1 0x0 PUSH2 0x900 PUSH1 0x12 DUP4 PUSH2 0x659 JUMP JUMPDEST SWAP2 POP PUSH2 0x90B DUP3 PUSH2 0x8CA JUMP JUMPDEST PUSH1 0x20 DUP3 ADD SWAP1 POP SWAP2 SWAP1 POP JUMP JUMPDEST PUSH1 0x0 PUSH1 0x20 DUP3 ADD SWAP1 POP DUP2 DUP2 SUB PUSH1 0x0 DUP4 ADD MSTORE PUSH2 0x92F DUP2 PUSH2 0x8F3 JUMP JUMPDEST SWAP1 POP SWAP2 SWAP1 POP JUMP INVALID LOG2 PUSH5 0x6970667358 0x22 SLT KECCAK256 SWAP15 SWAP8 0x28 NUMBER KECCAK256 SIGNEXTEND SDIV DUP6 PUSH5 0x8F30634D41 SWAP14 EXTCODECOPY SWAP1 0xEE 0xC4 0x27 0xDB 0xD8 0xC8 BLOCKHASH 0xAE PUSH32 0x98D36E8870D764736F6C63430008080033000000000000000000000000000000 "
				},
				"gasEstimates": {
					"creation": {
						"codeDepositCost": "482400",
						"executionCost": "46890",
						"totalCost": "529290"
					},
					"external": {
						"fund()": "infinite",
						"funders(uint256)": "5000",
						"owner()": "2514",
						"withdraw()": "infinite"
					}
				},
				"methodIdentifiers": {
					"fund()": "b60d4288",
					"funders(uint256)": "dc0d3dff",
					"owner()": "8da5cb5b",
					"withdraw()": "3ccfd60b"
				}
			},
			"storageLayout": {
				"storage": [
					{
						"astId": 54,
						"contract": "contracts/FundMe.sol:FundMe",
						"label": "minUsd",
						"offset": 0,
						"slot": "0",
						"type": "t_uint256"
					},
					{
						"astId": 57,
						"contract": "contracts/FundMe.sol:FundMe",
						"label": "funders",
						"offset": 0,
						"slot": "1",
						"type": "t_array(t_address)dyn_storage"
					},
					{
						"astId": 61,
						"contract": "contracts/FundMe.sol:FundMe",
						"label": "addressToAmount",
						"offset": 0,
						"slot": "2",
						"type": "t_mapping(t_address,t_uint256)"
					},
					{
						"astId": 63,
						"contract": "contracts/FundMe.sol:FundMe",
						"label": "owner",
						"offset": 0,
						"slot": "3",
						"type": "t_address"
					}
				],
				"types": {
					"t_address": {
						"encoding": "inplace",
						"label": "address",
						"numberOfBytes": "20"
					},
					"t_array(t_address)dyn_storage": {
						"base": "t_address",
						"encoding": "dynamic_array",
						"label": "address[]",
						"numberOfBytes": "32"
					},
					"t_mapping(t_address,t_uint256)": {
						"encoding": "mapping",
						"key": "t_address",
						"label": "mapping(address => uint256)",
						"numberOfBytes": "32",
						"value": "t_uint256"
					},
					"t_uint256": {
						"encoding": "inplace",
						"label": "uint256",
						"numberOfBytes": "32"
					}
				}
			},
			"userdoc": {
				"kind": "user",
				"methods": {},
				"version": 1
			}
		}
	}
}