{
	"contracts/FundMe.sol": {
		"FundMe": {
			"abi": [
				{
					"inputs": [],
					"name": "fund",
					"outputs": [],
					"stateMutability": "payable",
					"type": "function"
				},
				{
					"inputs": [
						{
							"internalType": "uint256",
							"name": "",
							"type": "uint256"
						}
					],
					"name": "funders",
					"outputs": [
						{
							"internalType": "address",
							"name": "",
							"type": "address"
						}
					],
					"stateMutability": "view",
					"type": "function"
				},
				{
					"inputs": [],
					"name": "withdraw",
					"outputs": [],
					"stateMutability": "nonpayable",
					"type": "function"
				}
			],
			"devdoc": {
				"kind": "dev",
				"methods": {},
				"version": 1
			},
			"evm": {
				"assembly": "    /* \"contracts/FundMe.sol\":89:946  contract FundMe {... */\n  mstore(0x40, 0x80)\n    /* \"contracts/FundMe.sol\":166:168  50 */\n  0x32\n    /* \"contracts/FundMe.sol\":149:168  uint256 minUsd = 50 */\n  0x00\n  sstore\n    /* \"contracts/FundMe.sol\":89:946  contract FundMe {... */\n  callvalue\n  dup1\n  iszero\n  tag_1\n  jumpi\n  0x00\n  dup1\n  revert\ntag_1:\n  pop\n  dataSize(sub_0)\n  dup1\n  dataOffset(sub_0)\n  0x00\n  codecopy\n  0x00\n  return\nstop\n\nsub_0: assembly {\n        /* \"contracts/FundMe.sol\":89:946  contract FundMe {... */\n      mstore(0x40, 0x80)\n      jumpi(tag_1, lt(calldatasize, 0x04))\n      shr(0xe0, calldataload(0x00))\n      dup1\n      0x3ccfd60b\n      eq\n      tag_2\n      jumpi\n      dup1\n      0xb60d4288\n      eq\n      tag_3\n      jumpi\n      dup1\n      0xdc0d3dff\n      eq\n      tag_4\n      jumpi\n    tag_1:\n      0x00\n      dup1\n      revert\n        /* \"contracts/FundMe.sol\":592:944  function withdraw() public {... */\n    tag_2:\n      callvalue\n      dup1\n      iszero\n      tag_5\n      jumpi\n      0x00\n      dup1\n      revert\n    tag_5:\n      pop\n      tag_6\n      tag_7\n      jump\t// in\n    tag_6:\n      stop\n        /* \"contracts/FundMe.sol\":254:581  function fund() public payable {... */\n    tag_3:\n      tag_8\n      tag_9\n      jump\t// in\n    tag_8:\n      stop\n        /* \"contracts/FundMe.sol\":174:198  address[] public funders */\n    tag_4:\n      callvalue\n      dup1\n      iszero\n      tag_10\n      jumpi\n      0x00\n      dup1\n      revert\n    tag_10:\n      pop\n      tag_11\n      0x04\n      dup1\n      calldatasize\n      sub\n      dup2\n      add\n      swap1\n      tag_12\n      swap2\n      swap1\n      tag_13\n      jump\t// in\n    tag_12:\n      tag_14\n      jump\t// in\n    tag_11:\n      mload(0x40)\n      tag_15\n      swap2\n      swap1\n      tag_16\n      jump\t// in\n    tag_15:\n      mload(0x40)\n      dup1\n      swap2\n      sub\n      swap1\n      return\n        /* \"contracts/FundMe.sol\":592:944  function withdraw() public {... */\n    tag_7:\n        /* \"contracts/FundMe.sol\":633:646  uint256 index */\n      0x00\n        /* \"contracts/FundMe.sol\":629:743  for(uint256 index = 0; index< funders.length; index++){... */\n    tag_18:\n        /* \"contracts/FundMe.sol\":659:666  funders */\n      0x01\n        /* \"contracts/FundMe.sol\":659:673  funders.length */\n      dup1\n      sload\n      swap1\n      pop\n        /* \"contracts/FundMe.sol\":652:657  index */\n      dup2\n        /* \"contracts/FundMe.sol\":652:673  index< funders.length */\n      lt\n        /* \"contracts/FundMe.sol\":629:743  for(uint256 index = 0; index< funders.length; index++){... */\n      iszero\n      tag_19\n      jumpi\n        /* \"contracts/FundMe.sol\":731:732  0 */\n      0x00\n        /* \"contracts/FundMe.sol\":697:712  addressToAmount */\n      0x02\n        /* \"contracts/FundMe.sol\":697:728  addressToAmount[funders[index]] */\n      0x00\n        /* \"contracts/FundMe.sol\":713:720  funders */\n      0x01\n        /* \"contracts/FundMe.sol\":721:726  index */\n      dup5\n        /* \"contracts/FundMe.sol\":713:727  funders[index] */\n      dup2\n      sload\n      dup2\n      lt\n      tag_21\n      jumpi\n      tag_22\n      tag_23\n      jump\t// in\n    tag_22:\n    tag_21:\n      swap1\n      0x00\n      mstore\n      keccak256(0x00, 0x20)\n      add\n      0x00\n      swap1\n      sload\n      swap1\n      0x0100\n      exp\n      swap1\n      div\n      0xffffffffffffffffffffffffffffffffffffffff\n      and\n        /* \"contracts/FundMe.sol\":697:728  addressToAmount[funders[index]] */\n      0xffffffffffffffffffffffffffffffffffffffff\n      and\n      0xffffffffffffffffffffffffffffffffffffffff\n      and\n      dup2\n      mstore\n      0x20\n      add\n      swap1\n      dup2\n      mstore\n      0x20\n      add\n      0x00\n      keccak256\n        /* \"contracts/FundMe.sol\":697:732  addressToAmount[funders[index]] = 0 */\n      dup2\n      swap1\n      sstore\n      pop\n        /* \"contracts/FundMe.sol\":675:682  index++ */\n      dup1\n      dup1\n      tag_25\n      swap1\n      tag_26\n      jump\t// in\n    tag_25:\n      swap2\n      pop\n      pop\n        /* \"contracts/FundMe.sol\":629:743  for(uint256 index = 0; index< funders.length; index++){... */\n      jump(tag_18)\n    tag_19:\n      pop\n        /* \"contracts/FundMe.sol\":777:778  0 */\n      0x00\n        /* \"contracts/FundMe.sol\":763:779  new address[](0) */\n      0xffffffffffffffff\n      dup2\n      gt\n      iszero\n      tag_27\n      jumpi\n      tag_28\n      tag_29\n      jump\t// in\n    tag_28:\n    tag_27:\n      mload(0x40)\n      swap1\n      dup1\n      dup3\n      mstore\n      dup1\n      0x20\n      mul\n      0x20\n      add\n      dup3\n      add\n      0x40\n      mstore\n      dup1\n      iszero\n      tag_30\n      jumpi\n      dup2\n      0x20\n      add\n      0x20\n      dup3\n      mul\n      dup1\n      calldatasize\n      dup4\n      calldatacopy\n      dup1\n      dup3\n      add\n      swap2\n      pop\n      pop\n      swap1\n      pop\n    tag_30:\n      pop\n        /* \"contracts/FundMe.sol\":753:760  funders */\n      0x01\n        /* \"contracts/FundMe.sol\":753:779  funders = new address[](0) */\n      swap1\n      dup1\n      mload\n      swap1\n      0x20\n      add\n      swap1\n      tag_31\n      swap3\n      swap2\n      swap1\n      tag_32\n      jump\t// in\n    tag_31:\n      pop\n        /* \"contracts/FundMe.sol\":894:904  msg.sender */\n      caller\n        /* \"contracts/FundMe.sol\":886:914  payable(msg.sender).transfer */\n      0xffffffffffffffffffffffffffffffffffffffff\n      and\n        /* \"contracts/FundMe.sol\":886:937  payable(msg.sender).transfer(address(this).balance) */\n      0x08fc\n        /* \"contracts/FundMe.sol\":915:936  address(this).balance */\n      selfbalance\n        /* \"contracts/FundMe.sol\":886:937  payable(msg.sender).transfer(address(this).balance) */\n      swap1\n      dup2\n      iszero\n      mul\n      swap1\n      mload(0x40)\n      0x00\n      mload(0x40)\n      dup1\n      dup4\n      sub\n      dup2\n      dup6\n      dup9\n      dup9\n      call\n      swap4\n      pop\n      pop\n      pop\n      pop\n      iszero\n      dup1\n      iszero\n      tag_34\n      jumpi\n      returndatasize\n      0x00\n      dup1\n      returndatacopy\n      revert(0x00, returndatasize)\n    tag_34:\n      pop\n        /* \"contracts/FundMe.sol\":592:944  function withdraw() public {... */\n      jump\t// out\n        /* \"contracts/FundMe.sol\":254:581  function fund() public payable {... */\n    tag_9:\n        /* \"contracts/FundMe.sol\":336:342  minUsd */\n      sload(0x00)\n        /* \"contracts/FundMe.sol\":303:312  msg.value */\n      callvalue\n        /* \"contracts/FundMe.sol\":303:330  msg.value.getConversionRate */\n      linkerSymbol(\"ee5333b9f3bf6448fe7cd0ff78e98acd668e2dee96b5e9a10d2c42e89138df23\")\n      0x6e5b6b28\n      swap1\n      swap2\n        /* \"contracts/FundMe.sol\":303:332  msg.value.getConversionRate() */\n      mload(0x40)\n      dup3\n      0xffffffff\n      and\n      0xe0\n      shl\n      dup2\n      mstore\n      0x04\n      add\n      tag_36\n      swap2\n      swap1\n      tag_37\n      jump\t// in\n    tag_36:\n      0x20\n      mload(0x40)\n      dup1\n      dup4\n      sub\n      dup2\n      dup7\n      dup1\n      extcodesize\n      iszero\n      dup1\n      iszero\n      tag_38\n      jumpi\n      0x00\n      dup1\n      revert\n    tag_38:\n      pop\n      gas\n      delegatecall\n      iszero\n      dup1\n      iszero\n      tag_40\n      jumpi\n      returndatasize\n      0x00\n      dup1\n      returndatacopy\n      revert(0x00, returndatasize)\n    tag_40:\n      pop\n      pop\n      pop\n      pop\n      mload(0x40)\n      returndatasize\n      not(0x1f)\n      0x1f\n      dup3\n      add\n      and\n      dup3\n      add\n      dup1\n      0x40\n      mstore\n      pop\n      dup2\n      add\n      swap1\n      tag_41\n      swap2\n      swap1\n      tag_42\n      jump\t// in\n    tag_41:\n        /* \"contracts/FundMe.sol\":303:342  msg.value.getConversionRate() >= minUsd */\n      lt\n      iszero\n        /* \"contracts/FundMe.sol\":295:365  require(msg.value.getConversionRate() >= minUsd, \"Didn't enugh money\") */\n      tag_43\n      jumpi\n      mload(0x40)\n      0x08c379a000000000000000000000000000000000000000000000000000000000\n      dup2\n      mstore\n      0x04\n      add\n      tag_44\n      swap1\n      tag_45\n      jump\t// in\n    tag_44:\n      mload(0x40)\n      dup1\n      swap2\n      sub\n      swap1\n      revert\n    tag_43:\n        /* \"contracts/FundMe.sol\":501:508  funders */\n      0x01\n        /* \"contracts/FundMe.sol\":514:524  msg.sender */\n      caller\n        /* \"contracts/FundMe.sol\":501:525  funders.push(msg.sender) */\n      swap1\n      dup1\n      0x01\n      dup2\n      sload\n      add\n      dup1\n      dup3\n      sstore\n      dup1\n      swap2\n      pop\n      pop\n      0x01\n      swap1\n      sub\n      swap1\n      0x00\n      mstore\n      keccak256(0x00, 0x20)\n      add\n      0x00\n      swap1\n      swap2\n      swap1\n      swap2\n      swap1\n      swap2\n      0x0100\n      exp\n      dup2\n      sload\n      dup2\n      0xffffffffffffffffffffffffffffffffffffffff\n      mul\n      not\n      and\n      swap1\n      dup4\n      0xffffffffffffffffffffffffffffffffffffffff\n      and\n      mul\n      or\n      swap1\n      sstore\n      pop\n        /* \"contracts/FundMe.sol\":565:574  msg.value */\n      callvalue\n        /* \"contracts/FundMe.sol\":535:550  addressToAmount */\n      0x02\n        /* \"contracts/FundMe.sol\":535:562  addressToAmount[msg.sender] */\n      0x00\n        /* \"contracts/FundMe.sol\":551:561  msg.sender */\n      caller\n        /* \"contracts/FundMe.sol\":535:562  addressToAmount[msg.sender] */\n      0xffffffffffffffffffffffffffffffffffffffff\n      and\n      0xffffffffffffffffffffffffffffffffffffffff\n      and\n      dup2\n      mstore\n      0x20\n      add\n      swap1\n      dup2\n      mstore\n      0x20\n      add\n      0x00\n      keccak256\n        /* \"contracts/FundMe.sol\":535:574  addressToAmount[msg.sender] = msg.value */\n      dup2\n      swap1\n      sstore\n      pop\n        /* \"contracts/FundMe.sol\":254:581  function fund() public payable {... */\n      jump\t// out\n        /* \"contracts/FundMe.sol\":174:198  address[] public funders */\n    tag_14:\n      0x01\n      dup2\n      dup2\n      sload\n      dup2\n      lt\n      tag_47\n      jumpi\n      0x00\n      dup1\n      revert\n    tag_47:\n      swap1\n      0x00\n      mstore\n      keccak256(0x00, 0x20)\n      add\n      0x00\n      swap2\n      pop\n      sload\n      swap1\n      0x0100\n      exp\n      swap1\n      div\n      0xffffffffffffffffffffffffffffffffffffffff\n      and\n      dup2\n      jump\t// out\n    tag_32:\n      dup3\n      dup1\n      sload\n      dup3\n      dup3\n      sstore\n      swap1\n      0x00\n      mstore\n      keccak256(0x00, 0x20)\n      swap1\n      dup2\n      add\n      swap3\n      dup3\n      iszero\n      tag_49\n      jumpi\n      swap2\n      0x20\n      mul\n      dup3\n      add\n    tag_50:\n      dup3\n      dup2\n      gt\n      iszero\n      tag_51\n      jumpi\n      dup3\n      mload\n      dup3\n      exp(0x0100, 0x00)\n      dup2\n      sload\n      dup2\n      0xffffffffffffffffffffffffffffffffffffffff\n      mul\n      not\n      and\n      swap1\n      dup4\n      0xffffffffffffffffffffffffffffffffffffffff\n      and\n      mul\n      or\n      swap1\n      sstore\n      pop\n      swap2\n      0x20\n      add\n      swap2\n      swap1\n      0x01\n      add\n      swap1\n      jump(tag_50)\n    tag_51:\n    tag_49:\n      pop\n      swap1\n      pop\n      tag_52\n      swap2\n      swap1\n      tag_53\n      jump\t// in\n    tag_52:\n      pop\n      swap1\n      jump\t// out\n    tag_53:\n    tag_54:\n      dup1\n      dup3\n      gt\n      iszero\n      tag_55\n      jumpi\n      0x00\n      dup2\n      0x00\n      swap1\n      sstore\n      pop\n      0x01\n      add\n      jump(tag_54)\n    tag_55:\n      pop\n      swap1\n      jump\t// out\n        /* \"#utility.yul\":88:205   */\n    tag_57:\n        /* \"#utility.yul\":197:198   */\n      0x00\n        /* \"#utility.yul\":194:195   */\n      dup1\n        /* \"#utility.yul\":187:199   */\n      revert\n        /* \"#utility.yul\":334:411   */\n    tag_59:\n        /* \"#utility.yul\":371:378   */\n      0x00\n        /* \"#utility.yul\":400:405   */\n      dup2\n        /* \"#utility.yul\":389:405   */\n      swap1\n      pop\n        /* \"#utility.yul\":334:411   */\n      swap2\n      swap1\n      pop\n      jump\t// out\n        /* \"#utility.yul\":417:539   */\n    tag_60:\n        /* \"#utility.yul\":490:514   */\n      tag_77\n        /* \"#utility.yul\":508:513   */\n      dup2\n        /* \"#utility.yul\":490:514   */\n      tag_59\n      jump\t// in\n    tag_77:\n        /* \"#utility.yul\":483:488   */\n      dup2\n        /* \"#utility.yul\":480:515   */\n      eq\n        /* \"#utility.yul\":470:533   */\n      tag_78\n      jumpi\n        /* \"#utility.yul\":529:530   */\n      0x00\n        /* \"#utility.yul\":526:527   */\n      dup1\n        /* \"#utility.yul\":519:531   */\n      revert\n        /* \"#utility.yul\":470:533   */\n    tag_78:\n        /* \"#utility.yul\":417:539   */\n      pop\n      jump\t// out\n        /* \"#utility.yul\":545:684   */\n    tag_61:\n        /* \"#utility.yul\":591:596   */\n      0x00\n        /* \"#utility.yul\":629:635   */\n      dup2\n        /* \"#utility.yul\":616:636   */\n      calldataload\n        /* \"#utility.yul\":607:636   */\n      swap1\n      pop\n        /* \"#utility.yul\":645:678   */\n      tag_80\n        /* \"#utility.yul\":672:677   */\n      dup2\n        /* \"#utility.yul\":645:678   */\n      tag_60\n      jump\t// in\n    tag_80:\n        /* \"#utility.yul\":545:684   */\n      swap3\n      swap2\n      pop\n      pop\n      jump\t// out\n        /* \"#utility.yul\":690:1019   */\n    tag_13:\n        /* \"#utility.yul\":749:755   */\n      0x00\n        /* \"#utility.yul\":798:800   */\n      0x20\n        /* \"#utility.yul\":786:795   */\n      dup3\n        /* \"#utility.yul\":777:784   */\n      dup5\n        /* \"#utility.yul\":773:796   */\n      sub\n        /* \"#utility.yul\":769:801   */\n      slt\n        /* \"#utility.yul\":766:885   */\n      iszero\n      tag_82\n      jumpi\n        /* \"#utility.yul\":804:883   */\n      tag_83\n      tag_57\n      jump\t// in\n    tag_83:\n        /* \"#utility.yul\":766:885   */\n    tag_82:\n        /* \"#utility.yul\":924:925   */\n      0x00\n        /* \"#utility.yul\":949:1002   */\n      tag_84\n        /* \"#utility.yul\":994:1001   */\n      dup5\n        /* \"#utility.yul\":985:991   */\n      dup3\n        /* \"#utility.yul\":974:983   */\n      dup6\n        /* \"#utility.yul\":970:992   */\n      add\n        /* \"#utility.yul\":949:1002   */\n      tag_61\n      jump\t// in\n    tag_84:\n        /* \"#utility.yul\":939:1002   */\n      swap2\n      pop\n        /* \"#utility.yul\":895:1012   */\n      pop\n        /* \"#utility.yul\":690:1019   */\n      swap3\n      swap2\n      pop\n      pop\n      jump\t// out\n        /* \"#utility.yul\":1025:1151   */\n    tag_62:\n        /* \"#utility.yul\":1062:1069   */\n      0x00\n        /* \"#utility.yul\":1102:1144   */\n      0xffffffffffffffffffffffffffffffffffffffff\n        /* \"#utility.yul\":1095:1100   */\n      dup3\n        /* \"#utility.yul\":1091:1145   */\n      and\n        /* \"#utility.yul\":1080:1145   */\n      swap1\n      pop\n        /* \"#utility.yul\":1025:1151   */\n      swap2\n      swap1\n      pop\n      jump\t// out\n        /* \"#utility.yul\":1157:1253   */\n    tag_63:\n        /* \"#utility.yul\":1194:1201   */\n      0x00\n        /* \"#utility.yul\":1223:1247   */\n      tag_87\n        /* \"#utility.yul\":1241:1246   */\n      dup3\n        /* \"#utility.yul\":1223:1247   */\n      tag_62\n      jump\t// in\n    tag_87:\n        /* \"#utility.yul\":1212:1247   */\n      swap1\n      pop\n        /* \"#utility.yul\":1157:1253   */\n      swap2\n      swap1\n      pop\n      jump\t// out\n        /* \"#utility.yul\":1259:1377   */\n    tag_64:\n        /* \"#utility.yul\":1346:1370   */\n      tag_89\n        /* \"#utility.yul\":1364:1369   */\n      dup2\n        /* \"#utility.yul\":1346:1370   */\n      tag_63\n      jump\t// in\n    tag_89:\n        /* \"#utility.yul\":1341:1344   */\n      dup3\n        /* \"#utility.yul\":1334:1371   */\n      mstore\n        /* \"#utility.yul\":1259:1377   */\n      pop\n      pop\n      jump\t// out\n        /* \"#utility.yul\":1383:1605   */\n    tag_16:\n        /* \"#utility.yul\":1476:1480   */\n      0x00\n        /* \"#utility.yul\":1514:1516   */\n      0x20\n        /* \"#utility.yul\":1503:1512   */\n      dup3\n        /* \"#utility.yul\":1499:1517   */\n      add\n        /* \"#utility.yul\":1491:1517   */\n      swap1\n      pop\n        /* \"#utility.yul\":1527:1598   */\n      tag_91\n        /* \"#utility.yul\":1595:1596   */\n      0x00\n        /* \"#utility.yul\":1584:1593   */\n      dup4\n        /* \"#utility.yul\":1580:1597   */\n      add\n        /* \"#utility.yul\":1571:1577   */\n      dup5\n        /* \"#utility.yul\":1527:1598   */\n      tag_64\n      jump\t// in\n    tag_91:\n        /* \"#utility.yul\":1383:1605   */\n      swap3\n      swap2\n      pop\n      pop\n      jump\t// out\n        /* \"#utility.yul\":1611:1791   */\n    tag_23:\n        /* \"#utility.yul\":1659:1736   */\n      0x4e487b7100000000000000000000000000000000000000000000000000000000\n        /* \"#utility.yul\":1656:1657   */\n      0x00\n        /* \"#utility.yul\":1649:1737   */\n      mstore\n        /* \"#utility.yul\":1756:1760   */\n      0x32\n        /* \"#utility.yul\":1753:1754   */\n      0x04\n        /* \"#utility.yul\":1746:1761   */\n      mstore\n        /* \"#utility.yul\":1780:1784   */\n      0x24\n        /* \"#utility.yul\":1777:1778   */\n      0x00\n        /* \"#utility.yul\":1770:1785   */\n      revert\n        /* \"#utility.yul\":1797:1977   */\n    tag_65:\n        /* \"#utility.yul\":1845:1922   */\n      0x4e487b7100000000000000000000000000000000000000000000000000000000\n        /* \"#utility.yul\":1842:1843   */\n      0x00\n        /* \"#utility.yul\":1835:1923   */\n      mstore\n        /* \"#utility.yul\":1942:1946   */\n      0x11\n        /* \"#utility.yul\":1939:1940   */\n      0x04\n        /* \"#utility.yul\":1932:1947   */\n      mstore\n        /* \"#utility.yul\":1966:1970   */\n      0x24\n        /* \"#utility.yul\":1963:1964   */\n      0x00\n        /* \"#utility.yul\":1956:1971   */\n      revert\n        /* \"#utility.yul\":1983:2216   */\n    tag_26:\n        /* \"#utility.yul\":2022:2025   */\n      0x00\n        /* \"#utility.yul\":2045:2069   */\n      tag_95\n        /* \"#utility.yul\":2063:2068   */\n      dup3\n        /* \"#utility.yul\":2045:2069   */\n      tag_59\n      jump\t// in\n    tag_95:\n        /* \"#utility.yul\":2036:2069   */\n      swap2\n      pop\n        /* \"#utility.yul\":2091:2157   */\n      0xffffffffffffffffffffffffffffffffffffffffffffffffffffffffffffffff\n        /* \"#utility.yul\":2084:2089   */\n      dup3\n        /* \"#utility.yul\":2081:2158   */\n      eq\n        /* \"#utility.yul\":2078:2181   */\n      iszero\n      tag_96\n      jumpi\n        /* \"#utility.yul\":2161:2179   */\n      tag_97\n      tag_65\n      jump\t// in\n    tag_97:\n        /* \"#utility.yul\":2078:2181   */\n    tag_96:\n        /* \"#utility.yul\":2208:2209   */\n      0x01\n        /* \"#utility.yul\":2201:2206   */\n      dup3\n        /* \"#utility.yul\":2197:2210   */\n      add\n        /* \"#utility.yul\":2190:2210   */\n      swap1\n      pop\n        /* \"#utility.yul\":1983:2216   */\n      swap2\n      swap1\n      pop\n      jump\t// out\n        /* \"#utility.yul\":2222:2402   */\n    tag_29:\n        /* \"#utility.yul\":2270:2347   */\n      0x4e487b7100000000000000000000000000000000000000000000000000000000\n        /* \"#utility.yul\":2267:2268   */\n      0x00\n        /* \"#utility.yul\":2260:2348   */\n      mstore\n        /* \"#utility.yul\":2367:2371   */\n      0x41\n        /* \"#utility.yul\":2364:2365   */\n      0x04\n        /* \"#utility.yul\":2357:2372   */\n      mstore\n        /* \"#utility.yul\":2391:2395   */\n      0x24\n        /* \"#utility.yul\":2388:2389   */\n      0x00\n        /* \"#utility.yul\":2381:2396   */\n      revert\n        /* \"#utility.yul\":2408:2534   */\n    tag_66:\n        /* \"#utility.yul\":2503:2527   */\n      tag_100\n        /* \"#utility.yul\":2521:2526   */\n      dup2\n        /* \"#utility.yul\":2503:2527   */\n      tag_59\n      jump\t// in\n    tag_100:\n        /* \"#utility.yul\":2498:2501   */\n      dup3\n        /* \"#utility.yul\":2491:2528   */\n      mstore\n        /* \"#utility.yul\":2408:2534   */\n      pop\n      pop\n      jump\t// out\n        /* \"#utility.yul\":2540:2778   */\n    tag_37:\n        /* \"#utility.yul\":2641:2645   */\n      0x00\n        /* \"#utility.yul\":2679:2681   */\n      0x20\n        /* \"#utility.yul\":2668:2677   */\n      dup3\n        /* \"#utility.yul\":2664:2682   */\n      add\n        /* \"#utility.yul\":2656:2682   */\n      swap1\n      pop\n        /* \"#utility.yul\":2692:2771   */\n      tag_102\n        /* \"#utility.yul\":2768:2769   */\n      0x00\n        /* \"#utility.yul\":2757:2766   */\n      dup4\n        /* \"#utility.yul\":2753:2770   */\n      add\n        /* \"#utility.yul\":2744:2750   */\n      dup5\n        /* \"#utility.yul\":2692:2771   */\n      tag_66\n      jump\t// in\n    tag_102:\n        /* \"#utility.yul\":2540:2778   */\n      swap3\n      swap2\n      pop\n      pop\n      jump\t// out\n        /* \"#utility.yul\":2784:2927   */\n    tag_67:\n        /* \"#utility.yul\":2841:2846   */\n      0x00\n        /* \"#utility.yul\":2872:2878   */\n      dup2\n        /* \"#utility.yul\":2866:2879   */\n      mload\n        /* \"#utility.yul\":2857:2879   */\n      swap1\n      pop\n        /* \"#utility.yul\":2888:2921   */\n      tag_104\n        /* \"#utility.yul\":2915:2920   */\n      dup2\n        /* \"#utility.yul\":2888:2921   */\n      tag_60\n      jump\t// in\n    tag_104:\n        /* \"#utility.yul\":2784:2927   */\n      swap3\n      swap2\n      pop\n      pop\n      jump\t// out\n        /* \"#utility.yul\":2933:3284   */\n    tag_42:\n        /* \"#utility.yul\":3003:3009   */\n      0x00\n        /* \"#utility.yul\":3052:3054   */\n      0x20\n        /* \"#utility.yul\":3040:3049   */\n      dup3\n        /* \"#utility.yul\":3031:3038   */\n      dup5\n        /* \"#utility.yul\":3027:3050   */\n      sub\n        /* \"#utility.yul\":3023:3055   */\n      slt\n        /* \"#utility.yul\":3020:3139   */\n      iszero\n      tag_106\n      jumpi\n        /* \"#utility.yul\":3058:3137   */\n      tag_107\n      tag_57\n      jump\t// in\n    tag_107:\n        /* \"#utility.yul\":3020:3139   */\n    tag_106:\n        /* \"#utility.yul\":3178:3179   */\n      0x00\n        /* \"#utility.yul\":3203:3267   */\n      tag_108\n        /* \"#utility.yul\":3259:3266   */\n      dup5\n        /* \"#utility.yul\":3250:3256   */\n      dup3\n        /* \"#utility.yul\":3239:3248   */\n      dup6\n        /* \"#utility.yul\":3235:3257   */\n      add\n        /* \"#utility.yul\":3203:3267   */\n      tag_67\n      jump\t// in\n    tag_108:\n        /* \"#utility.yul\":3193:3267   */\n      swap2\n      pop\n        /* \"#utility.yul\":3149:3277   */\n      pop\n        /* \"#utility.yul\":2933:3284   */\n      swap3\n      swap2\n      pop\n      pop\n      jump\t// out\n        /* \"#utility.yul\":3290:3459   */\n    tag_68:\n        /* \"#utility.yul\":3374:3385   */\n      0x00\n        /* \"#utility.yul\":3408:3414   */\n      dup3\n        /* \"#utility.yul\":3403:3406   */\n      dup3\n        /* \"#utility.yul\":3396:3415   */\n      mstore\n        /* \"#utility.yul\":3448:3452   */\n      0x20\n        /* \"#utility.yul\":3443:3446   */\n      dup3\n        /* \"#utility.yul\":3439:3453   */\n      add\n        /* \"#utility.yul\":3424:3453   */\n      swap1\n      pop\n        /* \"#utility.yul\":3290:3459   */\n      swap3\n      swap2\n      pop\n      pop\n      jump\t// out\n        /* \"#utility.yul\":3465:3633   */\n    tag_69:\n        /* \"#utility.yul\":3605:3625   */\n      0x4469646e277420656e756768206d6f6e65790000000000000000000000000000\n        /* \"#utility.yul\":3601:3602   */\n      0x00\n        /* \"#utility.yul\":3593:3599   */\n      dup3\n        /* \"#utility.yul\":3589:3603   */\n      add\n        /* \"#utility.yul\":3582:3626   */\n      mstore\n        /* \"#utility.yul\":3465:3633   */\n      pop\n      jump\t// out\n        /* \"#utility.yul\":3639:4005   */\n    tag_70:\n        /* \"#utility.yul\":3781:3784   */\n      0x00\n        /* \"#utility.yul\":3802:3869   */\n      tag_112\n        /* \"#utility.yul\":3866:3868   */\n      0x12\n        /* \"#utility.yul\":3861:3864   */\n      dup4\n        /* \"#utility.yul\":3802:3869   */\n      tag_68\n      jump\t// in\n    tag_112:\n        /* \"#utility.yul\":3795:3869   */\n      swap2\n      pop\n        /* \"#utility.yul\":3878:3971   */\n      tag_113\n        /* \"#utility.yul\":3967:3970   */\n      dup3\n        /* \"#utility.yul\":3878:3971   */\n      tag_69\n      jump\t// in\n    tag_113:\n        /* \"#utility.yul\":3996:3998   */\n      0x20\n        /* \"#utility.yul\":3991:3994   */\n      dup3\n        /* \"#utility.yul\":3987:3999   */\n      add\n        /* \"#utility.yul\":3980:3999   */\n      swap1\n      pop\n        /* \"#utility.yul\":3639:4005   */\n      swap2\n      swap1\n      pop\n      jump\t// out\n        /* \"#utility.yul\":4011:4430   */\n    tag_45:\n        /* \"#utility.yul\":4177:4181   */\n      0x00\n        /* \"#utility.yul\":4215:4217   */\n      0x20\n        /* \"#utility.yul\":4204:4213   */\n      dup3\n        /* \"#utility.yul\":4200:4218   */\n      add\n        /* \"#utility.yul\":4192:4218   */\n      swap1\n      pop\n        /* \"#utility.yul\":4264:4273   */\n      dup2\n        /* \"#utility.yul\":4258:4262   */\n      dup2\n        /* \"#utility.yul\":4254:4274   */\n      sub\n        /* \"#utility.yul\":4250:4251   */\n      0x00\n        /* \"#utility.yul\":4239:4248   */\n      dup4\n        /* \"#utility.yul\":4235:4252   */\n      add\n        /* \"#utility.yul\":4228:4275   */\n      mstore\n        /* \"#utility.yul\":4292:4423   */\n      tag_115\n        /* \"#utility.yul\":4418:4422   */\n      dup2\n        /* \"#utility.yul\":4292:4423   */\n      tag_70\n      jump\t// in\n    tag_115:\n        /* \"#utility.yul\":4284:4423   */\n      swap1\n      pop\n        /* \"#utility.yul\":4011:4430   */\n      swap2\n      swap1\n      pop\n      jump\t// out\n\n    auxdata: 0xa264697066735822122023d7fe959545cae45ee1c8cad407ca8f1c0e0cd4b4ee78a9a7f2dab19945f29764736f6c63430008080033\n}\n",
				"bytecode": {
					"linkReferences": {
						"contracts/PriceConvertor.sol": {
							"PriceConvertor": [
								{
									"length": 20,
									"start": 530
								}
							]
						}
					},
					"object": "6080604052603260005534801561001557600080fd5b506106fc806100256000396000f3fe6080604052600436106100345760003560e01c80633ccfd60b14610039578063b60d428814610050578063dc0d3dff1461005a575b600080fd5b34801561004557600080fd5b5061004e610097565b005b6100586101e7565b005b34801561006657600080fd5b50610081600480360381019061007c919061047e565b61035d565b60405161008e91906104ec565b60405180910390f35b60005b60018054905081101561013d57600060026000600184815481106100c1576100c0610507565b5b9060005260206000200160009054906101000a900473ffffffffffffffffffffffffffffffffffffffff1673ffffffffffffffffffffffffffffffffffffffff1673ffffffffffffffffffffffffffffffffffffffff16815260200190815260200160002081905550808061013590610565565b91505061009a565b50600067ffffffffffffffff811115610159576101586105ae565b5b6040519080825280602002602001820160405280156101875781602001602082028036833780820191505090505b506001908051906020019061019d92919061039c565b503373ffffffffffffffffffffffffffffffffffffffff166108fc479081150290604051600060405180830381858888f193505050501580156101e4573d6000803e3d6000fd5b50565b6000543473__$ee5333b9f3bf6448fe7cd0ff78e98acd66$__636e5b6b2890916040518263ffffffff1660e01b815260040161022391906105ec565b60206040518083038186803b15801561023b57600080fd5b505af415801561024f573d6000803e3d6000fd5b505050506040513d601f19601f82011682018060405250810190610273919061061c565b10156102b4576040517f08c379a00000000000000000000000000000000000000000000000000000000081526004016102ab906106a6565b60405180910390fd5b6001339080600181540180825580915050600190039060005260206000200160009091909190916101000a81548173ffffffffffffffffffffffffffffffffffffffff021916908373ffffffffffffffffffffffffffffffffffffffff16021790555034600260003373ffffffffffffffffffffffffffffffffffffffff1673ffffffffffffffffffffffffffffffffffffffff16815260200190815260200160002081905550565b6001818154811061036d57600080fd5b906000526020600020016000915054906101000a900473ffffffffffffffffffffffffffffffffffffffff1681565b828054828255906000526020600020908101928215610415579160200282015b828111156104145782518260006101000a81548173ffffffffffffffffffffffffffffffffffffffff021916908373ffffffffffffffffffffffffffffffffffffffff160217905550916020019190600101906103bc565b5b5090506104229190610426565b5090565b5b8082111561043f576000816000905550600101610427565b5090565b600080fd5b6000819050919050565b61045b81610448565b811461046657600080fd5b50565b60008135905061047881610452565b92915050565b60006020828403121561049457610493610443565b5b60006104a284828501610469565b91505092915050565b600073ffffffffffffffffffffffffffffffffffffffff82169050919050565b60006104d6826104ab565b9050919050565b6104e6816104cb565b82525050565b600060208201905061050160008301846104dd565b92915050565b7f4e487b7100000000000000000000000000000000000000000000000000000000600052603260045260246000fd5b7f4e487b7100000000000000000000000000000000000000000000000000000000600052601160045260246000fd5b600061057082610448565b91507fffffffffffffffffffffffffffffffffffffffffffffffffffffffffffffffff8214156105a3576105a2610536565b5b600182019050919050565b7f4e487b7100000000000000000000000000000000000000000000000000000000600052604160045260246000fd5b6105e681610448565b82525050565b600060208201905061060160008301846105dd565b92915050565b60008151905061061681610452565b92915050565b60006020828403121561063257610631610443565b5b600061064084828501610607565b91505092915050565b600082825260208201905092915050565b7f4469646e277420656e756768206d6f6e65790000000000000000000000000000600082015250565b6000610690601283610649565b915061069b8261065a565b602082019050919050565b600060208201905081810360008301526106bf81610683565b905091905056fea264697066735822122023d7fe959545cae45ee1c8cad407ca8f1c0e0cd4b4ee78a9a7f2dab19945f29764736f6c63430008080033",
					"opcodes": "PUSH1 0x80 PUSH1 0x40 MSTORE PUSH1 0x32 PUSH1 0x0 SSTORE CALLVALUE DUP1 ISZERO PUSH2 0x15 JUMPI PUSH1 0x0 DUP1 REVERT JUMPDEST POP PUSH2 0x6FC DUP1 PUSH2 0x25 PUSH1 0x0 CODECOPY PUSH1 0x0 RETURN INVALID PUSH1 0x80 PUSH1 0x40 MSTORE PUSH1 0x4 CALLDATASIZE LT PUSH2 0x34 JUMPI PUSH1 0x0 CALLDATALOAD PUSH1 0xE0 SHR DUP1 PUSH4 0x3CCFD60B EQ PUSH2 0x39 JUMPI DUP1 PUSH4 0xB60D4288 EQ PUSH2 0x50 JUMPI DUP1 PUSH4 0xDC0D3DFF EQ PUSH2 0x5A JUMPI JUMPDEST PUSH1 0x0 DUP1 REVERT JUMPDEST CALLVALUE DUP1 ISZERO PUSH2 0x45 JUMPI PUSH1 0x0 DUP1 REVERT JUMPDEST POP PUSH2 0x4E PUSH2 0x97 JUMP JUMPDEST STOP JUMPDEST PUSH2 0x58 PUSH2 0x1E7 JUMP JUMPDEST STOP JUMPDEST CALLVALUE DUP1 ISZERO PUSH2 0x66 JUMPI PUSH1 0x0 DUP1 REVERT JUMPDEST POP PUSH2 0x81 PUSH1 0x4 DUP1 CALLDATASIZE SUB DUP2 ADD SWAP1 PUSH2 0x7C SWAP2 SWAP1 PUSH2 0x47E JUMP JUMPDEST PUSH2 0x35D JUMP JUMPDEST PUSH1 0x40 MLOAD PUSH2 0x8E SWAP2 SWAP1 PUSH2 0x4EC JUMP JUMPDEST PUSH1 0x40 MLOAD DUP1 SWAP2 SUB SWAP1 RETURN JUMPDEST PUSH1 0x0 JUMPDEST PUSH1 0x1 DUP1 SLOAD SWAP1 POP DUP2 LT ISZERO PUSH2 0x13D JUMPI PUSH1 0x0 PUSH1 0x2 PUSH1 0x0 PUSH1 0x1 DUP5 DUP2 SLOAD DUP2 LT PUSH2 0xC1 JUMPI PUSH2 0xC0 PUSH2 0x507 JUMP JUMPDEST JUMPDEST SWAP1 PUSH1 0x0 MSTORE PUSH1 0x20 PUSH1 0x0 KECCAK256 ADD PUSH1 0x0 SWAP1 SLOAD SWAP1 PUSH2 0x100 EXP SWAP1 DIV PUSH20 0xFFFFFFFFFFFFFFFFFFFFFFFFFFFFFFFFFFFFFFFF AND PUSH20 0xFFFFFFFFFFFFFFFFFFFFFFFFFFFFFFFFFFFFFFFF AND PUSH20 0xFFFFFFFFFFFFFFFFFFFFFFFFFFFFFFFFFFFFFFFF AND DUP2 MSTORE PUSH1 0x20 ADD SWAP1 DUP2 MSTORE PUSH1 0x20 ADD PUSH1 0x0 KECCAK256 DUP2 SWAP1 SSTORE POP DUP1 DUP1 PUSH2 0x135 SWAP1 PUSH2 0x565 JUMP JUMPDEST SWAP2 POP POP PUSH2 0x9A JUMP JUMPDEST POP PUSH1 0x0 PUSH8 0xFFFFFFFFFFFFFFFF DUP2 GT ISZERO PUSH2 0x159 JUMPI PUSH2 0x158 PUSH2 0x5AE JUMP JUMPDEST JUMPDEST PUSH1 0x40 MLOAD SWAP1 DUP1 DUP3 MSTORE DUP1 PUSH1 0x20 MUL PUSH1 0x20 ADD DUP3 ADD PUSH1 0x40 MSTORE DUP1 ISZERO PUSH2 0x187 JUMPI DUP2 PUSH1 0x20 ADD PUSH1 0x20 DUP3 MUL DUP1 CALLDATASIZE DUP4 CALLDATACOPY DUP1 DUP3 ADD SWAP2 POP POP SWAP1 POP JUMPDEST POP PUSH1 0x1 SWAP1 DUP1 MLOAD SWAP1 PUSH1 0x20 ADD SWAP1 PUSH2 0x19D SWAP3 SWAP2 SWAP1 PUSH2 0x39C JUMP JUMPDEST POP CALLER PUSH20 0xFFFFFFFFFFFFFFFFFFFFFFFFFFFFFFFFFFFFFFFF AND PUSH2 0x8FC SELFBALANCE SWAP1 DUP2 ISZERO MUL SWAP1 PUSH1 0x40 MLOAD PUSH1 0x0 PUSH1 0x40 MLOAD DUP1 DUP4 SUB DUP2 DUP6 DUP9 DUP9 CALL SWAP4 POP POP POP POP ISZERO DUP1 ISZERO PUSH2 0x1E4 JUMPI RETURNDATASIZE PUSH1 0x0 DUP1 RETURNDATACOPY RETURNDATASIZE PUSH1 0x0 REVERT JUMPDEST POP JUMP JUMPDEST PUSH1 0x0 SLOAD CALLVALUE PUSH20 0x0 PUSH4 0x6E5B6B28 SWAP1 SWAP2 PUSH1 0x40 MLOAD DUP3 PUSH4 0xFFFFFFFF AND PUSH1 0xE0 SHL DUP2 MSTORE PUSH1 0x4 ADD PUSH2 0x223 SWAP2 SWAP1 PUSH2 0x5EC JUMP JUMPDEST PUSH1 0x20 PUSH1 0x40 MLOAD DUP1 DUP4 SUB DUP2 DUP7 DUP1 EXTCODESIZE ISZERO DUP1 ISZERO PUSH2 0x23B JUMPI PUSH1 0x0 DUP1 REVERT JUMPDEST POP GAS DELEGATECALL ISZERO DUP1 ISZERO PUSH2 0x24F JUMPI RETURNDATASIZE PUSH1 0x0 DUP1 RETURNDATACOPY RETURNDATASIZE PUSH1 0x0 REVERT JUMPDEST POP POP POP POP PUSH1 0x40 MLOAD RETURNDATASIZE PUSH1 0x1F NOT PUSH1 0x1F DUP3 ADD AND DUP3 ADD DUP1 PUSH1 0x40 MSTORE POP DUP2 ADD SWAP1 PUSH2 0x273 SWAP2 SWAP1 PUSH2 0x61C JUMP JUMPDEST LT ISZERO PUSH2 0x2B4 JUMPI PUSH1 0x40 MLOAD PUSH32 0x8C379A000000000000000000000000000000000000000000000000000000000 DUP2 MSTORE PUSH1 0x4 ADD PUSH2 0x2AB SWAP1 PUSH2 0x6A6 JUMP JUMPDEST PUSH1 0x40 MLOAD DUP1 SWAP2 SUB SWAP1 REVERT JUMPDEST PUSH1 0x1 CALLER SWAP1 DUP1 PUSH1 0x1 DUP2 SLOAD ADD DUP1 DUP3 SSTORE DUP1 SWAP2 POP POP PUSH1 0x1 SWAP1 SUB SWAP1 PUSH1 0x0 MSTORE PUSH1 0x20 PUSH1 0x0 KECCAK256 ADD PUSH1 0x0 SWAP1 SWAP2 SWAP1 SWAP2 SWAP1 SWAP2 PUSH2 0x100 EXP DUP2 SLOAD DUP2 PUSH20 0xFFFFFFFFFFFFFFFFFFFFFFFFFFFFFFFFFFFFFFFF MUL NOT AND SWAP1 DUP4 PUSH20 0xFFFFFFFFFFFFFFFFFFFFFFFFFFFFFFFFFFFFFFFF AND MUL OR SWAP1 SSTORE POP CALLVALUE PUSH1 0x2 PUSH1 0x0 CALLER PUSH20 0xFFFFFFFFFFFFFFFFFFFFFFFFFFFFFFFFFFFFFFFF AND PUSH20 0xFFFFFFFFFFFFFFFFFFFFFFFFFFFFFFFFFFFFFFFF AND DUP2 MSTORE PUSH1 0x20 ADD SWAP1 DUP2 MSTORE PUSH1 0x20 ADD PUSH1 0x0 KECCAK256 DUP2 SWAP1 SSTORE POP JUMP JUMPDEST PUSH1 0x1 DUP2 DUP2 SLOAD DUP2 LT PUSH2 0x36D JUMPI PUSH1 0x0 DUP1 REVERT JUMPDEST SWAP1 PUSH1 0x0 MSTORE PUSH1 0x20 PUSH1 0x0 KECCAK256 ADD PUSH1 0x0 SWAP2 POP SLOAD SWAP1 PUSH2 0x100 EXP SWAP1 DIV PUSH20 0xFFFFFFFFFFFFFFFFFFFFFFFFFFFFFFFFFFFFFFFF AND DUP2 JUMP JUMPDEST DUP3 DUP1 SLOAD DUP3 DUP3 SSTORE SWAP1 PUSH1 0x0 MSTORE PUSH1 0x20 PUSH1 0x0 KECCAK256 SWAP1 DUP2 ADD SWAP3 DUP3 ISZERO PUSH2 0x415 JUMPI SWAP2 PUSH1 0x20 MUL DUP3 ADD JUMPDEST DUP3 DUP2 GT ISZERO PUSH2 0x414 JUMPI DUP3 MLOAD DUP3 PUSH1 0x0 PUSH2 0x100 EXP DUP2 SLOAD DUP2 PUSH20 0xFFFFFFFFFFFFFFFFFFFFFFFFFFFFFFFFFFFFFFFF MUL NOT AND SWAP1 DUP4 PUSH20 0xFFFFFFFFFFFFFFFFFFFFFFFFFFFFFFFFFFFFFFFF AND MUL OR SWAP1 SSTORE POP SWAP2 PUSH1 0x20 ADD SWAP2 SWAP1 PUSH1 0x1 ADD SWAP1 PUSH2 0x3BC JUMP JUMPDEST JUMPDEST POP SWAP1 POP PUSH2 0x422 SWAP2 SWAP1 PUSH2 0x426 JUMP JUMPDEST POP SWAP1 JUMP JUMPDEST JUMPDEST DUP1 DUP3 GT ISZERO PUSH2 0x43F JUMPI PUSH1 0x0 DUP2 PUSH1 0x0 SWAP1 SSTORE POP PUSH1 0x1 ADD PUSH2 0x427 JUMP JUMPDEST POP SWAP1 JUMP JUMPDEST PUSH1 0x0 DUP1 REVERT JUMPDEST PUSH1 0x0 DUP2 SWAP1 POP SWAP2 SWAP1 POP JUMP JUMPDEST PUSH2 0x45B DUP2 PUSH2 0x448 JUMP JUMPDEST DUP2 EQ PUSH2 0x466 JUMPI PUSH1 0x0 DUP1 REVERT JUMPDEST POP JUMP JUMPDEST PUSH1 0x0 DUP2 CALLDATALOAD SWAP1 POP PUSH2 0x478 DUP2 PUSH2 0x452 JUMP JUMPDEST SWAP3 SWAP2 POP POP JUMP JUMPDEST PUSH1 0x0 PUSH1 0x20 DUP3 DUP5 SUB SLT ISZERO PUSH2 0x494 JUMPI PUSH2 0x493 PUSH2 0x443 JUMP JUMPDEST JUMPDEST PUSH1 0x0 PUSH2 0x4A2 DUP5 DUP3 DUP6 ADD PUSH2 0x469 JUMP JUMPDEST SWAP2 POP POP SWAP3 SWAP2 POP POP JUMP JUMPDEST PUSH1 0x0 PUSH20 0xFFFFFFFFFFFFFFFFFFFFFFFFFFFFFFFFFFFFFFFF DUP3 AND SWAP1 POP SWAP2 SWAP1 POP JUMP JUMPDEST PUSH1 0x0 PUSH2 0x4D6 DUP3 PUSH2 0x4AB JUMP JUMPDEST SWAP1 POP SWAP2 SWAP1 POP JUMP JUMPDEST PUSH2 0x4E6 DUP2 PUSH2 0x4CB JUMP JUMPDEST DUP3 MSTORE POP POP JUMP JUMPDEST PUSH1 0x0 PUSH1 0x20 DUP3 ADD SWAP1 POP PUSH2 0x501 PUSH1 0x0 DUP4 ADD DUP5 PUSH2 0x4DD JUMP JUMPDEST SWAP3 SWAP2 POP POP JUMP JUMPDEST PUSH32 0x4E487B7100000000000000000000000000000000000000000000000000000000 PUSH1 0x0 MSTORE PUSH1 0x32 PUSH1 0x4 MSTORE PUSH1 0x24 PUSH1 0x0 REVERT JUMPDEST PUSH32 0x4E487B7100000000000000000000000000000000000000000000000000000000 PUSH1 0x0 MSTORE PUSH1 0x11 PUSH1 0x4 MSTORE PUSH1 0x24 PUSH1 0x0 REVERT JUMPDEST PUSH1 0x0 PUSH2 0x570 DUP3 PUSH2 0x448 JUMP JUMPDEST SWAP2 POP PUSH32 0xFFFFFFFFFFFFFFFFFFFFFFFFFFFFFFFFFFFFFFFFFFFFFFFFFFFFFFFFFFFFFFFF DUP3 EQ ISZERO PUSH2 0x5A3 JUMPI PUSH2 0x5A2 PUSH2 0x536 JUMP JUMPDEST JUMPDEST PUSH1 0x1 DUP3 ADD SWAP1 POP SWAP2 SWAP1 POP JUMP JUMPDEST PUSH32 0x4E487B7100000000000000000000000000000000000000000000000000000000 PUSH1 0x0 MSTORE PUSH1 0x41 PUSH1 0x4 MSTORE PUSH1 0x24 PUSH1 0x0 REVERT JUMPDEST PUSH2 0x5E6 DUP2 PUSH2 0x448 JUMP JUMPDEST DUP3 MSTORE POP POP JUMP JUMPDEST PUSH1 0x0 PUSH1 0x20 DUP3 ADD SWAP1 POP PUSH2 0x601 PUSH1 0x0 DUP4 ADD DUP5 PUSH2 0x5DD JUMP JUMPDEST SWAP3 SWAP2 POP POP JUMP JUMPDEST PUSH1 0x0 DUP2 MLOAD SWAP1 POP PUSH2 0x616 DUP2 PUSH2 0x452 JUMP JUMPDEST SWAP3 SWAP2 POP POP JUMP JUMPDEST PUSH1 0x0 PUSH1 0x20 DUP3 DUP5 SUB SLT ISZERO PUSH2 0x632 JUMPI PUSH2 0x631 PUSH2 0x443 JUMP JUMPDEST JUMPDEST PUSH1 0x0 PUSH2 0x640 DUP5 DUP3 DUP6 ADD PUSH2 0x607 JUMP JUMPDEST SWAP2 POP POP SWAP3 SWAP2 POP POP JUMP JUMPDEST PUSH1 0x0 DUP3 DUP3 MSTORE PUSH1 0x20 DUP3 ADD SWAP1 POP SWAP3 SWAP2 POP POP JUMP JUMPDEST PUSH32 0x4469646E277420656E756768206D6F6E65790000000000000000000000000000 PUSH1 0x0 DUP3 ADD MSTORE POP JUMP JUMPDEST PUSH1 0x0 PUSH2 0x690 PUSH1 0x12 DUP4 PUSH2 0x649 JUMP JUMPDEST SWAP2 POP PUSH2 0x69B DUP3 PUSH2 0x65A JUMP JUMPDEST PUSH1 0x20 DUP3 ADD SWAP1 POP SWAP2 SWAP1 POP JUMP JUMPDEST PUSH1 0x0 PUSH1 0x20 DUP3 ADD SWAP1 POP DUP2 DUP2 SUB PUSH1 0x0 DUP4 ADD MSTORE PUSH2 0x6BF DUP2 PUSH2 0x683 JUMP JUMPDEST SWAP1 POP SWAP2 SWAP1 POP JUMP INVALID LOG2 PUSH5 0x6970667358 0x22 SLT KECCAK256 0x23 0xD7 INVALID SWAP6 SWAP6 GASLIMIT 0xCA 0xE4 0x5E 0xE1 0xC8 0xCA 0xD4 SMOD 0xCA DUP16 SHR 0xE 0xC 0xD4 0xB4 0xEE PUSH25 0xA9A7F2DAB19945F29764736F6C634300080800330000000000 "
				},
				"gasEstimates": {
					"creation": {
						"codeDepositCost": "357600",
						"executionCost": "22499",
						"totalCost": "380099"
					},
					"external": {
						"fund()": "infinite",
						"funders(uint256)": "4978",
						"withdraw()": "infinite"
					}
				},
				"methodIdentifiers": {
					"fund()": "b60d4288",
					"funders(uint256)": "dc0d3dff",
					"withdraw()": "3ccfd60b"
				}
			},
			"storageLayout": {
				"storage": [
					{
						"astId": 54,
						"contract": "contracts/FundMe.sol:FundMe",
						"label": "minUsd",
						"offset": 0,
						"slot": "0",
						"type": "t_uint256"
					},
					{
						"astId": 57,
						"contract": "contracts/FundMe.sol:FundMe",
						"label": "funders",
						"offset": 0,
						"slot": "1",
						"type": "t_array(t_address)dyn_storage"
					},
					{
						"astId": 61,
						"contract": "contracts/FundMe.sol:FundMe",
						"label": "addressToAmount",
						"offset": 0,
						"slot": "2",
						"type": "t_mapping(t_address,t_uint256)"
					}
				],
				"types": {
					"t_address": {
						"encoding": "inplace",
						"label": "address",
						"numberOfBytes": "20"
					},
					"t_array(t_address)dyn_storage": {
						"base": "t_address",
						"encoding": "dynamic_array",
						"label": "address[]",
						"numberOfBytes": "32"
					},
					"t_mapping(t_address,t_uint256)": {
						"encoding": "mapping",
						"key": "t_address",
						"label": "mapping(address => uint256)",
						"numberOfBytes": "32",
						"value": "t_uint256"
					},
					"t_uint256": {
						"encoding": "inplace",
						"label": "uint256",
						"numberOfBytes": "32"
					}
				}
			},
			"userdoc": {
				"kind": "user",
				"methods": {},
				"version": 1
			}
		}
	}
}