{
	"data": {
		"bytecode": {
			"linkReferences": {},
			"object": "608060405234801561001057600080fd5b50610802806100206000396000f3fe608060405234801561001057600080fd5b50600436106100575760003560e01c80636057361d1461005c5780636def817214610078578063795fff1d146100a85780639e7a13ad146100c4578063a6b7fc5b146100f5575b600080fd5b61007660048036038101906100719190610399565b610113565b005b610092600480360381019061008d919061050c565b610129565b60405161009f9190610564565b60405180910390f35b6100c260048036038101906100bd919061057f565b610157565b005b6100de60048036038101906100d99190610399565b6101e7565b6040516100ec929190610663565b60405180910390f35b6100fd6102a3565b60405161010a9190610564565b60405180910390f35b60058161012091906106c2565b60008190555050565b6002818051602081018201805184825260208301602085012081835280955050505050506000915090505481565b600160405180604001604052808381526020018481525090806001815401808255809150506001900390600052602060002090600202016000909190919091506000820151816000015560208201518160010190805190602001906101bd9291906102ac565b505050806002836040516101d19190610754565b9081526020016040518091039020819055505050565b600181815481106101f757600080fd5b90600052602060002090600202016000915090508060000154908060010180546102209061079a565b80601f016020809104026020016040519081016040528092919081815260200182805461024c9061079a565b80156102995780601f1061026e57610100808354040283529160200191610299565b820191906000526020600020905b81548152906001019060200180831161027c57829003601f168201915b5050505050905082565b60008054905090565b8280546102b89061079a565b90600052602060002090601f0160209004810192826102da5760008555610321565b82601f106102f357805160ff1916838001178555610321565b82800160010185558215610321579182015b82811115610320578251825591602001919060010190610305565b5b50905061032e9190610332565b5090565b5b8082111561034b576000816000905550600101610333565b5090565b6000604051905090565b600080fd5b600080fd5b6000819050919050565b61037681610363565b811461038157600080fd5b50565b6000813590506103938161036d565b92915050565b6000602082840312156103af576103ae610359565b5b60006103bd84828501610384565b91505092915050565b600080fd5b600080fd5b6000601f19601f8301169050919050565b7f4e487b7100000000000000000000000000000000000000000000000000000000600052604160045260246000fd5b610419826103d0565b810181811067ffffffffffffffff82111715610438576104376103e1565b5b80604052505050565b600061044b61034f565b90506104578282610410565b919050565b600067ffffffffffffffff821115610477576104766103e1565b5b610480826103d0565b9050602081019050919050565b82818337600083830152505050565b60006104af6104aa8461045c565b610441565b9050828152602081018484840111156104cb576104ca6103cb565b5b6104d684828561048d565b509392505050565b600082601f8301126104f3576104f26103c6565b5b813561050384826020860161049c565b91505092915050565b60006020828403121561052257610521610359565b5b600082013567ffffffffffffffff8111156105405761053f61035e565b5b61054c848285016104de565b91505092915050565b61055e81610363565b82525050565b60006020820190506105796000830184610555565b92915050565b6000806040838503121561059657610595610359565b5b600083013567ffffffffffffffff8111156105b4576105b361035e565b5b6105c0858286016104de565b92505060206105d185828601610384565b9150509250929050565b600081519050919050565b600082825260208201905092915050565b60005b838110156106155780820151818401526020810190506105fa565b83811115610624576000848401525b50505050565b6000610635826105db565b61063f81856105e6565b935061064f8185602086016105f7565b610658816103d0565b840191505092915050565b60006040820190506106786000830185610555565b818103602083015261068a818461062a565b90509392505050565b7f4e487b7100000000000000000000000000000000000000000000000000000000600052601160045260246000fd5b60006106cd82610363565b91506106d883610363565b9250827fffffffffffffffffffffffffffffffffffffffffffffffffffffffffffffffff0382111561070d5761070c610693565b5b828201905092915050565b600081905092915050565b600061072e826105db565b6107388185610718565b93506107488185602086016105f7565b80840191505092915050565b60006107608284610723565b915081905092915050565b7f4e487b7100000000000000000000000000000000000000000000000000000000600052602260045260246000fd5b600060028204905060018216806107b257607f821691505b602082108114156107c6576107c561076b565b5b5091905056fea26469706673582212205dbab9b84b37a9454960ae9977cbe682cafab93c833fff77b893c7db6528d0a664736f6c63430008080033",
			"opcodes": "PUSH1 0x80 PUSH1 0x40 MSTORE CALLVALUE DUP1 ISZERO PUSH2 0x10 JUMPI PUSH1 0x0 DUP1 REVERT JUMPDEST POP PUSH2 0x802 DUP1 PUSH2 0x20 PUSH1 0x0 CODECOPY PUSH1 0x0 RETURN INVALID PUSH1 0x80 PUSH1 0x40 MSTORE CALLVALUE DUP1 ISZERO PUSH2 0x10 JUMPI PUSH1 0x0 DUP1 REVERT JUMPDEST POP PUSH1 0x4 CALLDATASIZE LT PUSH2 0x57 JUMPI PUSH1 0x0 CALLDATALOAD PUSH1 0xE0 SHR DUP1 PUSH4 0x6057361D EQ PUSH2 0x5C JUMPI DUP1 PUSH4 0x6DEF8172 EQ PUSH2 0x78 JUMPI DUP1 PUSH4 0x795FFF1D EQ PUSH2 0xA8 JUMPI DUP1 PUSH4 0x9E7A13AD EQ PUSH2 0xC4 JUMPI DUP1 PUSH4 0xA6B7FC5B EQ PUSH2 0xF5 JUMPI JUMPDEST PUSH1 0x0 DUP1 REVERT JUMPDEST PUSH2 0x76 PUSH1 0x4 DUP1 CALLDATASIZE SUB DUP2 ADD SWAP1 PUSH2 0x71 SWAP2 SWAP1 PUSH2 0x399 JUMP JUMPDEST PUSH2 0x113 JUMP JUMPDEST STOP JUMPDEST PUSH2 0x92 PUSH1 0x4 DUP1 CALLDATASIZE SUB DUP2 ADD SWAP1 PUSH2 0x8D SWAP2 SWAP1 PUSH2 0x50C JUMP JUMPDEST PUSH2 0x129 JUMP JUMPDEST PUSH1 0x40 MLOAD PUSH2 0x9F SWAP2 SWAP1 PUSH2 0x564 JUMP JUMPDEST PUSH1 0x40 MLOAD DUP1 SWAP2 SUB SWAP1 RETURN JUMPDEST PUSH2 0xC2 PUSH1 0x4 DUP1 CALLDATASIZE SUB DUP2 ADD SWAP1 PUSH2 0xBD SWAP2 SWAP1 PUSH2 0x57F JUMP JUMPDEST PUSH2 0x157 JUMP JUMPDEST STOP JUMPDEST PUSH2 0xDE PUSH1 0x4 DUP1 CALLDATASIZE SUB DUP2 ADD SWAP1 PUSH2 0xD9 SWAP2 SWAP1 PUSH2 0x399 JUMP JUMPDEST PUSH2 0x1E7 JUMP JUMPDEST PUSH1 0x40 MLOAD PUSH2 0xEC SWAP3 SWAP2 SWAP1 PUSH2 0x663 JUMP JUMPDEST PUSH1 0x40 MLOAD DUP1 SWAP2 SUB SWAP1 RETURN JUMPDEST PUSH2 0xFD PUSH2 0x2A3 JUMP JUMPDEST PUSH1 0x40 MLOAD PUSH2 0x10A SWAP2 SWAP1 PUSH2 0x564 JUMP JUMPDEST PUSH1 0x40 MLOAD DUP1 SWAP2 SUB SWAP1 RETURN JUMPDEST PUSH1 0x5 DUP2 PUSH2 0x120 SWAP2 SWAP1 PUSH2 0x6C2 JUMP JUMPDEST PUSH1 0x0 DUP2 SWAP1 SSTORE POP POP JUMP JUMPDEST PUSH1 0x2 DUP2 DUP1 MLOAD PUSH1 0x20 DUP2 ADD DUP3 ADD DUP1 MLOAD DUP5 DUP3 MSTORE PUSH1 0x20 DUP4 ADD PUSH1 0x20 DUP6 ADD KECCAK256 DUP2 DUP4 MSTORE DUP1 SWAP6 POP POP POP POP POP POP PUSH1 0x0 SWAP2 POP SWAP1 POP SLOAD DUP2 JUMP JUMPDEST PUSH1 0x1 PUSH1 0x40 MLOAD DUP1 PUSH1 0x40 ADD PUSH1 0x40 MSTORE DUP1 DUP4 DUP2 MSTORE PUSH1 0x20 ADD DUP5 DUP2 MSTORE POP SWAP1 DUP1 PUSH1 0x1 DUP2 SLOAD ADD DUP1 DUP3 SSTORE DUP1 SWAP2 POP POP PUSH1 0x1 SWAP1 SUB SWAP1 PUSH1 0x0 MSTORE PUSH1 0x20 PUSH1 0x0 KECCAK256 SWAP1 PUSH1 0x2 MUL ADD PUSH1 0x0 SWAP1 SWAP2 SWAP1 SWAP2 SWAP1 SWAP2 POP PUSH1 0x0 DUP3 ADD MLOAD DUP2 PUSH1 0x0 ADD SSTORE PUSH1 0x20 DUP3 ADD MLOAD DUP2 PUSH1 0x1 ADD SWAP1 DUP1 MLOAD SWAP1 PUSH1 0x20 ADD SWAP1 PUSH2 0x1BD SWAP3 SWAP2 SWAP1 PUSH2 0x2AC JUMP JUMPDEST POP POP POP DUP1 PUSH1 0x2 DUP4 PUSH1 0x40 MLOAD PUSH2 0x1D1 SWAP2 SWAP1 PUSH2 0x754 JUMP JUMPDEST SWAP1 DUP2 MSTORE PUSH1 0x20 ADD PUSH1 0x40 MLOAD DUP1 SWAP2 SUB SWAP1 KECCAK256 DUP2 SWAP1 SSTORE POP POP POP JUMP JUMPDEST PUSH1 0x1 DUP2 DUP2 SLOAD DUP2 LT PUSH2 0x1F7 JUMPI PUSH1 0x0 DUP1 REVERT JUMPDEST SWAP1 PUSH1 0x0 MSTORE PUSH1 0x20 PUSH1 0x0 KECCAK256 SWAP1 PUSH1 0x2 MUL ADD PUSH1 0x0 SWAP2 POP SWAP1 POP DUP1 PUSH1 0x0 ADD SLOAD SWAP1 DUP1 PUSH1 0x1 ADD DUP1 SLOAD PUSH2 0x220 SWAP1 PUSH2 0x79A JUMP JUMPDEST DUP1 PUSH1 0x1F ADD PUSH1 0x20 DUP1 SWAP2 DIV MUL PUSH1 0x20 ADD PUSH1 0x40 MLOAD SWAP1 DUP2 ADD PUSH1 0x40 MSTORE DUP1 SWAP3 SWAP2 SWAP1 DUP2 DUP2 MSTORE PUSH1 0x20 ADD DUP3 DUP1 SLOAD PUSH2 0x24C SWAP1 PUSH2 0x79A JUMP JUMPDEST DUP1 ISZERO PUSH2 0x299 JUMPI DUP1 PUSH1 0x1F LT PUSH2 0x26E JUMPI PUSH2 0x100 DUP1 DUP4 SLOAD DIV MUL DUP4 MSTORE SWAP2 PUSH1 0x20 ADD SWAP2 PUSH2 0x299 JUMP JUMPDEST DUP3 ADD SWAP2 SWAP1 PUSH1 0x0 MSTORE PUSH1 0x20 PUSH1 0x0 KECCAK256 SWAP1 JUMPDEST DUP2 SLOAD DUP2 MSTORE SWAP1 PUSH1 0x1 ADD SWAP1 PUSH1 0x20 ADD DUP1 DUP4 GT PUSH2 0x27C JUMPI DUP3 SWAP1 SUB PUSH1 0x1F AND DUP3 ADD SWAP2 JUMPDEST POP POP POP POP POP SWAP1 POP DUP3 JUMP JUMPDEST PUSH1 0x0 DUP1 SLOAD SWAP1 POP SWAP1 JUMP JUMPDEST DUP3 DUP1 SLOAD PUSH2 0x2B8 SWAP1 PUSH2 0x79A JUMP JUMPDEST SWAP1 PUSH1 0x0 MSTORE PUSH1 0x20 PUSH1 0x0 KECCAK256 SWAP1 PUSH1 0x1F ADD PUSH1 0x20 SWAP1 DIV DUP2 ADD SWAP3 DUP3 PUSH2 0x2DA JUMPI PUSH1 0x0 DUP6 SSTORE PUSH2 0x321 JUMP JUMPDEST DUP3 PUSH1 0x1F LT PUSH2 0x2F3 JUMPI DUP1 MLOAD PUSH1 0xFF NOT AND DUP4 DUP1 ADD OR DUP6 SSTORE PUSH2 0x321 JUMP JUMPDEST DUP3 DUP1 ADD PUSH1 0x1 ADD DUP6 SSTORE DUP3 ISZERO PUSH2 0x321 JUMPI SWAP2 DUP3 ADD JUMPDEST DUP3 DUP2 GT ISZERO PUSH2 0x320 JUMPI DUP3 MLOAD DUP3 SSTORE SWAP2 PUSH1 0x20 ADD SWAP2 SWAP1 PUSH1 0x1 ADD SWAP1 PUSH2 0x305 JUMP JUMPDEST JUMPDEST POP SWAP1 POP PUSH2 0x32E SWAP2 SWAP1 PUSH2 0x332 JUMP JUMPDEST POP SWAP1 JUMP JUMPDEST JUMPDEST DUP1 DUP3 GT ISZERO PUSH2 0x34B JUMPI PUSH1 0x0 DUP2 PUSH1 0x0 SWAP1 SSTORE POP PUSH1 0x1 ADD PUSH2 0x333 JUMP JUMPDEST POP SWAP1 JUMP JUMPDEST PUSH1 0x0 PUSH1 0x40 MLOAD SWAP1 POP SWAP1 JUMP JUMPDEST PUSH1 0x0 DUP1 REVERT JUMPDEST PUSH1 0x0 DUP1 REVERT JUMPDEST PUSH1 0x0 DUP2 SWAP1 POP SWAP2 SWAP1 POP JUMP JUMPDEST PUSH2 0x376 DUP2 PUSH2 0x363 JUMP JUMPDEST DUP2 EQ PUSH2 0x381 JUMPI PUSH1 0x0 DUP1 REVERT JUMPDEST POP JUMP JUMPDEST PUSH1 0x0 DUP2 CALLDATALOAD SWAP1 POP PUSH2 0x393 DUP2 PUSH2 0x36D JUMP JUMPDEST SWAP3 SWAP2 POP POP JUMP JUMPDEST PUSH1 0x0 PUSH1 0x20 DUP3 DUP5 SUB SLT ISZERO PUSH2 0x3AF JUMPI PUSH2 0x3AE PUSH2 0x359 JUMP JUMPDEST JUMPDEST PUSH1 0x0 PUSH2 0x3BD DUP5 DUP3 DUP6 ADD PUSH2 0x384 JUMP JUMPDEST SWAP2 POP POP SWAP3 SWAP2 POP POP JUMP JUMPDEST PUSH1 0x0 DUP1 REVERT JUMPDEST PUSH1 0x0 DUP1 REVERT JUMPDEST PUSH1 0x0 PUSH1 0x1F NOT PUSH1 0x1F DUP4 ADD AND SWAP1 POP SWAP2 SWAP1 POP JUMP JUMPDEST PUSH32 0x4E487B7100000000000000000000000000000000000000000000000000000000 PUSH1 0x0 MSTORE PUSH1 0x41 PUSH1 0x4 MSTORE PUSH1 0x24 PUSH1 0x0 REVERT JUMPDEST PUSH2 0x419 DUP3 PUSH2 0x3D0 JUMP JUMPDEST DUP2 ADD DUP2 DUP2 LT PUSH8 0xFFFFFFFFFFFFFFFF DUP3 GT OR ISZERO PUSH2 0x438 JUMPI PUSH2 0x437 PUSH2 0x3E1 JUMP JUMPDEST JUMPDEST DUP1 PUSH1 0x40 MSTORE POP POP POP JUMP JUMPDEST PUSH1 0x0 PUSH2 0x44B PUSH2 0x34F JUMP JUMPDEST SWAP1 POP PUSH2 0x457 DUP3 DUP3 PUSH2 0x410 JUMP JUMPDEST SWAP2 SWAP1 POP JUMP JUMPDEST PUSH1 0x0 PUSH8 0xFFFFFFFFFFFFFFFF DUP3 GT ISZERO PUSH2 0x477 JUMPI PUSH2 0x476 PUSH2 0x3E1 JUMP JUMPDEST JUMPDEST PUSH2 0x480 DUP3 PUSH2 0x3D0 JUMP JUMPDEST SWAP1 POP PUSH1 0x20 DUP2 ADD SWAP1 POP SWAP2 SWAP1 POP JUMP JUMPDEST DUP3 DUP2 DUP4 CALLDATACOPY PUSH1 0x0 DUP4 DUP4 ADD MSTORE POP POP POP JUMP JUMPDEST PUSH1 0x0 PUSH2 0x4AF PUSH2 0x4AA DUP5 PUSH2 0x45C JUMP JUMPDEST PUSH2 0x441 JUMP JUMPDEST SWAP1 POP DUP3 DUP2 MSTORE PUSH1 0x20 DUP2 ADD DUP5 DUP5 DUP5 ADD GT ISZERO PUSH2 0x4CB JUMPI PUSH2 0x4CA PUSH2 0x3CB JUMP JUMPDEST JUMPDEST PUSH2 0x4D6 DUP5 DUP3 DUP6 PUSH2 0x48D JUMP JUMPDEST POP SWAP4 SWAP3 POP POP POP JUMP JUMPDEST PUSH1 0x0 DUP3 PUSH1 0x1F DUP4 ADD SLT PUSH2 0x4F3 JUMPI PUSH2 0x4F2 PUSH2 0x3C6 JUMP JUMPDEST JUMPDEST DUP2 CALLDATALOAD PUSH2 0x503 DUP5 DUP3 PUSH1 0x20 DUP7 ADD PUSH2 0x49C JUMP JUMPDEST SWAP2 POP POP SWAP3 SWAP2 POP POP JUMP JUMPDEST PUSH1 0x0 PUSH1 0x20 DUP3 DUP5 SUB SLT ISZERO PUSH2 0x522 JUMPI PUSH2 0x521 PUSH2 0x359 JUMP JUMPDEST JUMPDEST PUSH1 0x0 DUP3 ADD CALLDATALOAD PUSH8 0xFFFFFFFFFFFFFFFF DUP2 GT ISZERO PUSH2 0x540 JUMPI PUSH2 0x53F PUSH2 0x35E JUMP JUMPDEST JUMPDEST PUSH2 0x54C DUP5 DUP3 DUP6 ADD PUSH2 0x4DE JUMP JUMPDEST SWAP2 POP POP SWAP3 SWAP2 POP POP JUMP JUMPDEST PUSH2 0x55E DUP2 PUSH2 0x363 JUMP JUMPDEST DUP3 MSTORE POP POP JUMP JUMPDEST PUSH1 0x0 PUSH1 0x20 DUP3 ADD SWAP1 POP PUSH2 0x579 PUSH1 0x0 DUP4 ADD DUP5 PUSH2 0x555 JUMP JUMPDEST SWAP3 SWAP2 POP POP JUMP JUMPDEST PUSH1 0x0 DUP1 PUSH1 0x40 DUP4 DUP6 SUB SLT ISZERO PUSH2 0x596 JUMPI PUSH2 0x595 PUSH2 0x359 JUMP JUMPDEST JUMPDEST PUSH1 0x0 DUP4 ADD CALLDATALOAD PUSH8 0xFFFFFFFFFFFFFFFF DUP2 GT ISZERO PUSH2 0x5B4 JUMPI PUSH2 0x5B3 PUSH2 0x35E JUMP JUMPDEST JUMPDEST PUSH2 0x5C0 DUP6 DUP3 DUP7 ADD PUSH2 0x4DE JUMP JUMPDEST SWAP3 POP POP PUSH1 0x20 PUSH2 0x5D1 DUP6 DUP3 DUP7 ADD PUSH2 0x384 JUMP JUMPDEST SWAP2 POP POP SWAP3 POP SWAP3 SWAP1 POP JUMP JUMPDEST PUSH1 0x0 DUP2 MLOAD SWAP1 POP SWAP2 SWAP1 POP JUMP JUMPDEST PUSH1 0x0 DUP3 DUP3 MSTORE PUSH1 0x20 DUP3 ADD SWAP1 POP SWAP3 SWAP2 POP POP JUMP JUMPDEST PUSH1 0x0 JUMPDEST DUP4 DUP2 LT ISZERO PUSH2 0x615 JUMPI DUP1 DUP3 ADD MLOAD DUP2 DUP5 ADD MSTORE PUSH1 0x20 DUP2 ADD SWAP1 POP PUSH2 0x5FA JUMP JUMPDEST DUP4 DUP2 GT ISZERO PUSH2 0x624 JUMPI PUSH1 0x0 DUP5 DUP5 ADD MSTORE JUMPDEST POP POP POP POP JUMP JUMPDEST PUSH1 0x0 PUSH2 0x635 DUP3 PUSH2 0x5DB JUMP JUMPDEST PUSH2 0x63F DUP2 DUP6 PUSH2 0x5E6 JUMP JUMPDEST SWAP4 POP PUSH2 0x64F DUP2 DUP6 PUSH1 0x20 DUP7 ADD PUSH2 0x5F7 JUMP JUMPDEST PUSH2 0x658 DUP2 PUSH2 0x3D0 JUMP JUMPDEST DUP5 ADD SWAP2 POP POP SWAP3 SWAP2 POP POP JUMP JUMPDEST PUSH1 0x0 PUSH1 0x40 DUP3 ADD SWAP1 POP PUSH2 0x678 PUSH1 0x0 DUP4 ADD DUP6 PUSH2 0x555 JUMP JUMPDEST DUP2 DUP2 SUB PUSH1 0x20 DUP4 ADD MSTORE PUSH2 0x68A DUP2 DUP5 PUSH2 0x62A JUMP JUMPDEST SWAP1 POP SWAP4 SWAP3 POP POP POP JUMP JUMPDEST PUSH32 0x4E487B7100000000000000000000000000000000000000000000000000000000 PUSH1 0x0 MSTORE PUSH1 0x11 PUSH1 0x4 MSTORE PUSH1 0x24 PUSH1 0x0 REVERT JUMPDEST PUSH1 0x0 PUSH2 0x6CD DUP3 PUSH2 0x363 JUMP JUMPDEST SWAP2 POP PUSH2 0x6D8 DUP4 PUSH2 0x363 JUMP JUMPDEST SWAP3 POP DUP3 PUSH32 0xFFFFFFFFFFFFFFFFFFFFFFFFFFFFFFFFFFFFFFFFFFFFFFFFFFFFFFFFFFFFFFFF SUB DUP3 GT ISZERO PUSH2 0x70D JUMPI PUSH2 0x70C PUSH2 0x693 JUMP JUMPDEST JUMPDEST DUP3 DUP3 ADD SWAP1 POP SWAP3 SWAP2 POP POP JUMP JUMPDEST PUSH1 0x0 DUP2 SWAP1 POP SWAP3 SWAP2 POP POP JUMP JUMPDEST PUSH1 0x0 PUSH2 0x72E DUP3 PUSH2 0x5DB JUMP JUMPDEST PUSH2 0x738 DUP2 DUP6 PUSH2 0x718 JUMP JUMPDEST SWAP4 POP PUSH2 0x748 DUP2 DUP6 PUSH1 0x20 DUP7 ADD PUSH2 0x5F7 JUMP JUMPDEST DUP1 DUP5 ADD SWAP2 POP POP SWAP3 SWAP2 POP POP JUMP JUMPDEST PUSH1 0x0 PUSH2 0x760 DUP3 DUP5 PUSH2 0x723 JUMP JUMPDEST SWAP2 POP DUP2 SWAP1 POP SWAP3 SWAP2 POP POP JUMP JUMPDEST PUSH32 0x4E487B7100000000000000000000000000000000000000000000000000000000 PUSH1 0x0 MSTORE PUSH1 0x22 PUSH1 0x4 MSTORE PUSH1 0x24 PUSH1 0x0 REVERT JUMPDEST PUSH1 0x0 PUSH1 0x2 DUP3 DIV SWAP1 POP PUSH1 0x1 DUP3 AND DUP1 PUSH2 0x7B2 JUMPI PUSH1 0x7F DUP3 AND SWAP2 POP JUMPDEST PUSH1 0x20 DUP3 LT DUP2 EQ ISZERO PUSH2 0x7C6 JUMPI PUSH2 0x7C5 PUSH2 0x76B JUMP JUMPDEST JUMPDEST POP SWAP2 SWAP1 POP JUMP INVALID LOG2 PUSH5 0x6970667358 0x22 SLT KECCAK256 0x5D 0xBA 0xB9 0xB8 0x4B CALLDATACOPY 0xA9 GASLIMIT 0x49 PUSH1 0xAE SWAP10 PUSH24 0xCBE682CAFAB93C833FFF77B893C7DB6528D0A664736F6C63 NUMBER STOP ADDMOD ADDMOD STOP CALLER "
		},
		"gasEstimates": {
			"creation": {
				"codeDepositCost": "410000",
				"executionCost": "449",
				"totalCost": "410449"
			},
			"external": {
				"addPeople(string,uint256)": "infinite",
				"people(uint256)": "infinite",
				"personMapping(string)": "infinite",
				"retrive()": "2503",
				"store(uint256)": "infinite"
			}
		},
		"methodIdentifiers": {
			"addPeople(string,uint256)": "795fff1d",
			"people(uint256)": "9e7a13ad",
			"personMapping(string)": "6def8172",
			"retrive()": "a6b7fc5b",
			"store(uint256)": "6057361d"
		}
	},
	"abi": [
		{
			"inputs": [
				{
					"internalType": "string",
					"name": "_name",
					"type": "string"
				},
				{
					"internalType": "uint256",
					"name": "_number",
					"type": "uint256"
				}
			],
			"name": "addPeople",
			"outputs": [],
			"stateMutability": "nonpayable",
			"type": "function"
		},
		{
			"inputs": [
				{
					"internalType": "uint256",
					"name": "",
					"type": "uint256"
				}
			],
			"name": "people",
			"outputs": [
				{
					"internalType": "uint256",
					"name": "number",
					"type": "uint256"
				},
				{
					"internalType": "string",
					"name": "name",
					"type": "string"
				}
			],
			"stateMutability": "view",
			"type": "function"
		},
		{
			"inputs": [
				{
					"internalType": "string",
					"name": "",
					"type": "string"
				}
			],
			"name": "personMapping",
			"outputs": [
				{
					"internalType": "uint256",
					"name": "",
					"type": "uint256"
				}
			],
			"stateMutability": "view",
			"type": "function"
		},
		{
			"inputs": [],
			"name": "retrive",
			"outputs": [
				{
					"internalType": "uint256",
					"name": "",
					"type": "uint256"
				}
			],
			"stateMutability": "view",
			"type": "function"
		},
		{
			"inputs": [
				{
					"internalType": "uint256",
					"name": "_favNumber",
					"type": "uint256"
				}
			],
			"name": "store",
			"outputs": [],
			"stateMutability": "nonpayable",
			"type": "function"
		}
	]
}